:100000000C942A000C9465000C9447000C94470053
:100010000C9447000C9447000C9447000C94470044
:100020000C94AE000C9491000C9447000C94470083
:100030000C9447000C9447000C9447000C94470024
:100040000C9447000C9447000C9447000C94470014
:100050000C94470011241FBECFE5D4E0DEBFCDBF16
:1000600010E0A0E6B0E0ECE9F1E002C005900D92EE
:10007000A236B107D9F710E0A2E6B0E001C01D92A8
:10008000A436B107E1F70E9449000C94CC000C940F
:1000900000008FEF84BB8BEF81BB84E082BB85E0E7
:1000A00083BF8EE982BF81E08EBD82E085BF80E4A0
:1000B0008BBF78942AEF30E0809162008F5F80934D
:1000C0006200C9010197F1F7F7CF1F920F920FB6A7
:1000D0000F9211248F939F93EF93FF9390E0809161
:1000E0006300882309F491E090936300992349F019
:1000F000E9E5F0E080818560808380EE8093600098
:1001000007C019BE15BAE2E3F0E080818F778083E3
:10011000FF91EF919F918F910F900FBE0F901F90C5
:1001200018951F920F920FB60F9211248F938EE99C
:1001300082BF8091600088232CF4880F81608093B7
:10014000600003C0880F809360008091600085BBD1
:100150008F910F900FBE0F901F9018951F920F92C6
:100160000FB60F9211248F939F93EF93FF9380917B
:10017000620090E0805092409DBD8CBDE2E3F0E0D3
:10018000808180588083FF91EF919F918F910F9094
:0C0190000FBE0F901F901895F894FFCF41
:02019C00E00081
:00000001FF
