:100000000C942A000C9484000C9434000C9434005A
:100010000C9434000C9434000C9434000C94340090
:100020000C9471000C9434000C9434000C94340043
:100030000C9434000C9434000C9434000C94340070
:100040000C9434000C9434000C9434000C94340060
:100050000C94340011241FBECFE5D4E0DEBFCDBF29
:100060000E9436000C948F000C9400008FEF84BB2C
:10007000E5E3F0E0808311BA82BB80818E7F8083CC
:1000800020E83EE349E150E0CA010197F1F7215031
:100090003040D1F782E085BF80E48BBF83E08EBD26
:1000A00082E794EA9DBD8CBD84E089BF2FE088E1A2
:1000B00090E00FB6F894A89581BD0FBE21BDE5E391
:1000C000F0E08081816080837894E5E3F0E040E2B5
:1000D00020E533EC808184278083C9010197F1F703
:1000E000F9CF1F920F920FB60F9211248F939F9307
:1000F00082E794EA9DBD8CBDA8959F918F910F904A
:100100000FBE0F901F9018951F920F920FB60F926F
:10011000112419BE0F900FBE0F901F901895F894E0
:02012000FFCF0F
:00000001FF
