:100000000C942A000C943F000C943F000C943F0089
:100010000C943F000C943F000C943F000C943F0064
:100020000C943F000C943F000C943F000C943F0054
:100030000C943F000C943F000C943F000C943F0044
:100040000C943F000C943F000C943F000C943F0034
:100050000C943F0011241FBECFE5D4E0DEBFCDBF1E
:1000600010E0A0E6B0E0E2EFF0E002C005900D92F3
:10007000A236B107D9F70E9441000C9477000C9486
:100080000000EF92FF920F931F93CF93DF938FEFB8
:1000900084BB81BB85BB82BB85E083BF8CE382BF11
:1000A0002091600030916100E8E5F0E071E042E508
:1000B00050E06CE3C5E3D0E00F2EF2E3EF2EFF2417
:1000C000F02D0EEF1FEF808180FFFDCF7083DA01EE
:1000D0006C932883D7013C93C901880F991F9C0119
:1000E0002160BFEF2F3F3B0771F79801ECCFF894E9
:0200F000FFCF40
:0200F200FEFF0F
:00000001FF
