:100000000C942A000C9434000C9434000C943400AA
:100010000C9434000C9434000C9434000C94340090
:100020000C9434000C9434000C9434000C94340080
:100030000C9434000C9434000C9434000C94340070
:100040000C9434000C9434000C9434000C94340060
:100050000C94340011241FBECFE5D4E0DEBFCDBF29
:100060000E9453000C9488000C94000080EB87BB26
:100070008FEF88BBEDE2F0E0808181658083089599
:100080008FB9EEE2F0E080818823ECF7EEE2F0E059
:100090008081806880838FB1089587B924B135B19C
:1000A000822F932F0895EF92FF920F931F93CF9378
:1000B000DF931ABA0E94360086EE86B920E335E750
:1000C00049E150E0CA010197F1F721503040D1F7E2
:1000D000C8E3D0E00F2EF8EAEF2EF1E6FF2EF02D68
:1000E00084E00E944D008C01000F111F000F111FB2
:1000F00088818F7E8883812F0E944000802F0E94FC
:100100004000888180618883C7010197F1F7E8CFBB
:04011000F894FFCF91
:00000001FF
