:100000000C942A000C9447000C94DF000C944700D9
:100010000C9447000C9447000C9447000C94470044
:100020000C9447000C9447000C9447000C94AE00CD
:100030000C9447000C9447000C9447000C94470024
:100040000C9447000C9447000C9447000C94470014
:100050000C94470011241FBECFE5D4E0DEBFCDBF16
:1000600010E0A0E6B0E0E2E3F2E002C005900D92FD
:10007000AA38B107D9F710E0AAE8B0E001C01D9294
:10008000A23FB107E1F70E949A000C9417010C946B
:10009000000088E98AB9E0E4F0E086E0808389E145
:1000A00089B9108208951F93182F8A3019F48DE0B2
:1000B0000E9453001CB9EBE2F0E0808185FFFDCF88
:1000C0001F910895EF92FF920F931F93CF93DF93A9
:1000D0002091F100222339F1ADE8B0E0C0E6D0E094
:1000E00005E310E00F2EF0EAEF2EFFE0FF2EF02DDB
:1000F00044E650E0822F815090E00196BC016A0FE7
:100100007B1F8C91FE01E80FF11D8081F801808337
:100110009701FA013197F1F721503040D1F711964C
:10012000A617B70771F7DF91CF911F910F91FF903D
:10013000EF9008951092F10017BA9FEF98BB94BB0F
:1001400015BA82E081BB92BB88E085BF80E88BBF97
:100150000E94490078940E946200FDCF1F920F9286
:100160000FB60F9211248F939F93EF93FF939CB13F
:100170009D3011F09A3019F481E080938A009053F9
:100180009A30A0F480918A00813021F41092F1001D
:1001900010928A008091F100EDE8F0E0E80FF11D87
:1001A0009083843618F48F5F8093F100FF91EF9174
:1001B0009F918F910F900FBE0F901F9018951F92D7
:1001C0000F920FB60F9211241F932F933F934F93CB
:1001D0005F936F937F938F939F93AF93BF93EF93AF
:1001E000FF93E0918700F09188008081882369F077
:1001F00010E01F5F0E945300E0918700F09188009B
:10020000E10FF11D80818823A1F7FF91EF91BF914C
:10021000AF919F918F917F916F915F914F913F919E
:100220002F911F910F900FBE0F901F901895F8946B
:02023000FFCFFE
:100232003F065B4F666D7D077F6F00D5E2CAC741FF
:100242005652B5A5C6ACBBFAB7A2CBCDB5C4D7D66C
:0A025200B7FBB4AE210A006B0000F8
:00000001FF
