:1000000010C017C016C015C014C013C012C011C054
:1000100010C00FC00EC00DC00CC00BC00AC009C07C
:1000200008C011241FBECFE5D2E0DEBFCDBF02D095
:1000300037C0E6CF8FEF87BBE8E3F0E080838081B5
:100040008F77808320E137E249E150E0CA010197D0
:10005000F1F721503040D1F7E5E5F0E0808180688C
:100060008083E0E0F0E88E2F8F5F819380E8E83CAA
:10007000F807C9F7E7ECF0E8A0E0B1E880818D93DC
:1000800031978FE7EF3FF807C9F7E8E3F0E020E5A5
:1000900033EC808180588083C9010197F1F7F9CF53
:0400A000F894FFCF02
:00000001FF
