:100000000C942A000C9451000C9462000C9434005F
:100010000C9434000C9434000C9434000C94340090
:100020000C9434000C9434000C9434000C94340080
:100030000C9434000C9434000C9434000C94340070
:100040000C9434000C9434000C9434000C94340060
:100050000C94340011241FBECFE5D4E0DEBFCDBF29
:100060000E9436000C947F000C9400009FEF9ABB16
:100070009BBB97BB98BB80EF84BB95BB11BA92BB6F
:100080008AE085BF80EC8BBF7894E8E3F0E041E044
:1000900020E533EC808184278083C9010197F1F743
:1000A000F9CF1F920F920FB60F9211248F9383B343
:1000B0008295807F8F6085BB8F910F900FBE0F90D0
:1000C0001F9018951F920F920FB60F9211242F9325
:1000D0008F939F9320B322952F70277081E090E03B
:1000E00002C0880F991F2A95E2F780958BBB9F91DC
:1000F0008F912F910F900FBE0F901F901895F8942D
:02010000FFCF2F
:00000001FF
