:1000000012C019C018C017C016C015C014C013C044
:1000100012C011C010C00FC00EC00DC00CC00BC06C
:100020000AC009C008C011241FBECFE5D4E0DEBF5E
:10003000CDBF62D0A8C0E4CF92E3899FA001112474
:10004000141615068CF420E068E0E5E3F0E031E0FA
:10005000862F8A95F1F78081832780832F5F822FF7
:1000600090E084179507A4F30895AF92BF92CF92C2
:10007000DF92EF92FF920F931F93CF93DF936C0168
:1000800084E0DADFE5E3F0E080818E7F80838CE23C
:1000900091E00197F1F701E010E0C0E0D0E00F2E11
:1000A000F5E3EF2EFF24F02D0F2EFCE2AF2EF1E052
:1000B000BF2EF02DC8018C219D21892B19F082E0E3
:1000C000BBDF02C081E0B8DFF70180818E7F8083D3
:1000D000C5010197F1F7000F111F2196CC30D10512
:1000E00049F7DF91CF911F910F91FF90EF90DF9033
:1000F000CF90BF90AF9008950F931F93CF93DF934E
:100100008FEF84BB11BA82BBC0E3D0E008E813E1F3
:10011000888180FD04C081E797E0A7DF30C0888137
:1001200081FD04C084E393E0A0DF29C0888182FDC3
:1001300004C086E595E099DF22C0888183FD04C074
:1001400088E797E092DF1BC0888184FD04C08AEABB
:1001500099E08BDF14C0888185FD04C08CEC9BE0A6
:1001600084DF0DC0888186FD04C08EEE9DE07DDFBA
:1001700006C0888188231CF080E09FE076DFC801FC
:0A0180000197F1F7C5CFF894FFCF07
:00000001FF
