:100000000C94CA060C94E7060C94B6070C94E70609
:100010000C94E7060C94E7060C94E7060C94E706AC
:100020000C94E7060C94E9060C94E7060C94760809
:100030000C94E7060C94E7060C94E7060C94E7068C
:100040000C94E7060C94E7060C94E7060C94E7067C
:100050000C94E706A06E0000000000000000000005
:100060000000000000000000000000000000000090
:100070000000000000000000000000000000000080
:100080000000000000000000000000000000000070
:100090000000000FFC000000000000000000000055
:1000A0000000000000000E1FFC0000000000000027
:1000B000000000000000000000007FDFFC000000E6
:1000C00000000000000000000000000000007FFFB2
:1000D000FC00000000000000000000000000000024
:1000E00000007FFFFC000000000000000000000096
:1000F0000000000000001FFFFC00000000000000E6
:100100000000000000000000000003FFFC000000F1
:100110000000000000000000000000000000407F20
:10012000FF80000000000000000000000000000050
:10013000000078FFFFE00000000000000000000069
:100140000000000000007FFFFFFC00000000000036
:10015000000000000000000000007FFF7FFF800023
:1001600000000000000000000000000000007FFE12
:100170007FFFF00000000000000000000000000011
:1001800000007FFFFCFFFE000000000000000000F8
:100190000000000000000FFFFC3FFFC00000000057
:1001A0000000000000000000000001FFFC07FFF855
:1001B0000000000000000000000000000000003F00
:1001C000FF80FFFF000000000000000000000000B2
:1001D00000000007FFF01FFFE0000000000000002B
:1001E0000000000000000000FFFE03FFF800000018
:1001F0000000000000000000000000001FFFC07FA2
:10020000FF000000000000000000000000000000EF
:1002100007FFF80FFFE000000000000000000000F2
:100220000000000000FFFF01FFFC000000000000D4
:100230000000000000000000001FFFE03FFF800002
:100240000000000000000000000000000003FFFCB0
:100250000FFFF000000000000000000000000000A0
:1002600000007FFF01FFFE00000000000000000012
:100270000000000000000FFFE03FFFC00000000092
:100280000000000000000000000001FFFC07FFF07C
:100290000000000000000000000000000000003F1F
:1002A000FF80FFFE000000000000000000000000D2
:1002B00000000007FFF01FFFC0000000000000006A
:1002C0000000000000000001FFFE03FFF800000036
:1002D0000000000000000000000000003FFFC07FA1
:1002E000FF0000000000000000000000000000000F
:1002F00007FFF80FFFC00000000000000000000032
:100300000000000000FFFE03FFF8000000000000F6
:100310000000000000000000001FFFC07FFF000081
:100320000000000000000000000000000003FFF0DB
:100330000FFFE000000000000000000000000000CF
:1003400000007FFE01FFFC00000000000000000034
:100350000000000000000FFFC07FFF8000000000D1
:100360000000000000000000000003FFF80FFFF095
:100370000000000000000000000000000000007FFE
:10038000FF01FFFE00000000000000000000000070
:100390000000000FFFE03FFFC00000000000000071
:1003A0000000000000000003FFFC07FFF800000051
:1003B0000000000000000000000000007FFF83FF3D
:1003C000FFFC0000000000007FF0000000000000C3
:1003D0000FFFE7FFFFFF078000000003FFFF0000A3
:1003E0000000000001FFFFFFFFFFCFC0000000077B
:1003F000FFFF800000000000003FFFFFFFFFFFC085
:100400000000001FFFFFE000000000000007FFFFEA
:10041000FFFFFFE00000003FFFFFF00000000000D2
:100420000000FFFE03FFFFE00000007FC007F800B0
:100430000000000000003FFFC07FFFE0000000FF61
:100440000003FC000000000000000FFFF80FFFF0A9
:10045000000001FC0000FE000000000000001FFF83
:10046000FF01FFFE000001F800007E000000000018
:1004700000001F9FFFC03FFF800003F000003F000F
:100480000000000000001F03FFF80FFFF00007E06E
:1004900000001F800000000000003F007FFF07FFFA
:1004A000FE0007E000001F800000000000003E008A
:1004B0000FFFE7FFFE0007C000000F8000000000F4
:1004C00000003E0001FFFFFFFE000FC000000FC054
:1004D0000000000000003E00007FFFFFFE000F80D4
:1004E000000007C00000000000003E00000FFFFFFA
:1004F0009E000F80000007C00000000000003E00CA
:100500000001FFFF82000F80000007C00000000014
:1005100000001E0000003FFFC0001F80000007C059
:100520000000000000001F0000000FFFF0000F009F
:10053000000007C00000000000001F8000001FFF37
:10054000FE000F80000007C00000000000001FC078
:1005500000003FFFFE000F80000007C00000000009
:1005600000000FE000007FFBFE000F80000007C0CE
:1005700003FFC000000007F80001FEFFFE00078037
:10058000000007801FFFF800000003FE0007FCFFCB
:10059000FE0007C000000F803FFFFC00000001FFCD
:1005A000FFFFF8FFFE0007E000001F807FFFFE0056
:1005B000000000FFFFFFF0FFFE0007E000001F80CB
:1005C000FFFFFF000000003FFFFFC0FFFE0003F041
:1005D00000003F01FE007F000000000FFFFF00FF52
:1005E000FF0001F800007E01F8001F00000000037A
:1005F000FFF800FFFF0001FC0000FE01F0000F000B
:10060000000000000000007FFF8000FF0003FC01ED
:10061000F0000F00000000000000007FFFC0007F1E
:10062000C007F801F8001F00000000000000007F74
:10063000FFC0003FFFFFF001FE007F000000000050
:100640000000007FFFE0001FFFFFE000FFFFFF0052
:10065000000000000000007FFFE00007FFFF8000B7
:100660007FFFFE00000000000000007FFFF000039D
:10067000FFFF00003FFFFC00000000000000007FC3
:10068000FFF800007FF000001FFFF80000000000EE
:100690000000007FFFF800000000000003FFC00022
:1006A000000000000000007FFFFC000000000000D0
:1006B00000000000000000000000003FFFFC000000
:1006C0000000000000000000000000000000001F0B
:1006D000FFFC00000000000000000000000000001F
:1006E00000000007FFFC0000000000000000000008
:1006F0000000000000000001FFFC000000000000FE
:100700000000000000000000000000007FFC00006E
:1007100000000000000000000000000000000000D9
:100720003FFC00000000000000000000000000008E
:10073000000000000FF80000000000002000000092
:10074000000000000000000003F8000000000000AE
:100750000000000000000000000000000000000099
:100760000000000000000000000000000000000089
:100770000000000000000000000000000000000079
:100780000000000000000000000000000000000069
:100790000000000000000000000000000000000059
:1007A0000000000000000000000000000000000049
:1007B0000000000000000000000000000000000039
:1007C0000000000000000000000000000000000029
:1007D0000000000000000000000000000000000019
:1007E0000000000000000000000000006030003049
:1007F0000030C1802030002180000CC000000000CB
:10080000403000300038C98033FF063180000DC011
:1008100000000001FC3007FF0006C98063FE038969
:10082000F80FCE0000000001FBF807B00000C980FF
:100830008840007E8018DFE0000000018F3E00301D
:1008400000F8C981FBF00835F80CBE00000000017B
:10085000F9303FFFF8C8C98125B00F3C700FACC01C
:1008600000000007F9B03C33F808C980CBFE002433
:1008700060038D8000000007B8B002313018C981D4
:10088000F330006FFE03878000000000E830023084
:10089000801EC98001B40748200E470000000003F5
:1008A00088300630801DC980FBB30EC8203C1F80F5
:1008B0000000000F587007FF803B8983C631C19844
:1008C0006010FBF80000000079E007FFC0370982E4
:1008D00019F18277E00000F800000000000000003D
:1008E0000000008000E00000C00000200000180CA4
:1008F0000300000780000780007FFFFEFFFFFFFF6F
:10090000FFFC7FFFFC0001FC0001FC00007F0000F9
:100910007F00001F00000000000000FFFFFFFFFF3E
:1009200000000000000000000000000000307878A7
:100930007830300030300000006666662400000029
:1009400000000000006C6CFE6C6C6CFE6C6C0000B7
:1009500030307CC0C0780C0CF8303000000000C48F
:10096000CC183060CC8C00000070D8D870FADECC87
:10097000DC76000000303030600000000000000035
:10098000000C183060606030180C000000603018F7
:100990000C0C0C1830600000000000663CFF3C6648
:1009A0000000000000000018187E18180000000069
:1009B0000000000000000000383860000000000067
:1009C00000FE000000000000000000000000000029
:1009D00038380000000002060C183060C0800000AB
:1009E000007CC6CEDED6F6E6C67C0000001030F0F5
:1009F0003030303030FC00000078CCCC0C18306047
:100A0000CCFC00000078CC0C0C380C0CCC7800002E
:100A1000000C1C3C6CCCFE0C0C1E000000FCC0C08A
:100A2000C0F80C0CCC780000003860C0C0F8CCCC0A
:100A3000CC78000000FEC6C6060C1830303000002E
:100A40000078CCCCEC78DCCCCC7800000078CCCC36
:100A5000CC7C1818307000000000003838000038D6
:100A60003800000000000038380000383818300026
:100A7000000C183060C06030180C0000000000004E
:100A80007E007E0000000000006030180C060C188C
:100A9000306000000078CC0C18303000303000009E
:100AA000007CC6C6DEDEDEC0C07C0000003078CC34
:100AB000CCCCFCCCCCCC000000FC6666667C6666C8
:100AC00066FC0000003C66C6C0C0C0C6663C0000B4
:100AD00000F86C66666666666CF8000000FE626090
:100AE000647C646062FE000000FE6662647C646098
:100AF00060F00000003C66C6C0C0CEC6663E000086
:100B000000CCCCCCCCFCCCCCCCCC000000783030B1
:100B10003030303030780000001E0C0C0C0CCCCC87
:100B2000CC78000000E6666C6C786C6C66E60000C1
:100B300000F060606060626666FE000000C6EEFE67
:100B4000FED6C6C6C6C6000000C6C6E6F6FEDECEA7
:100B5000C6C6000000386CC6C6C6C6C66C380000E3
:100B600000FC6666667C606060F0000000386CC661
:100B7000C6C6CEDE7C0C1E0000FC6666667C6C661B
:100B800066E600000078CCCCC07018CCCC780000B1
:100B900000FCB430303030303078000000CCCCCCA9
:100BA000CCCCCCCCCC78000000CCCCCCCCCCCCCC3D
:100BB0007830000000C6C6C6C6D6D66C6C6C000085
:100BC00000CCCCCC783078CCCCCC000000CCCCCCD9
:100BD000CC7830303078000000FECE98183060625B
:100BE000C6FE0000003C303030303030303C000079
:100BF000000080C06030180C06020000003C0C0CA5
:100C00000C0C0C0C0C3C000010386CC600000000F2
:100C10000000000000000000000000000000FF00D5
:100C2000303018000000000000000000000000004C
:100C3000780C7CCCCC76000000E060607C66666658
:100C400066DC00000000000078CCC0C0CC7800005A
:100C5000001C0C0C7CCCCCCCCC760000000000003E
:100C600078CCFCC0CC78000000386C6060F8606024
:100C700060F000000000000076CCCCCC7C0CCC787E
:100C800000E060606C76666666E60000001818009A
:100C900078181818187E0000000C0C003C0C0C0C86
:100CA0000CCCCC7800E06060666C786C66E6000086
:100CB0000078181818181818187E00000000000096
:100CC000FCD6D6D6D6C6000000000000F8CCCCCCAE
:100CD000CCCC00000000000078CCCCCCCC7800005C
:100CE00000000000DC666666667C60F000000000C4
:100CF00076CCCCCCCC7C0C1E00000000EC6E766078
:100D000060F000000000000078CC6018CC78000093
:100D100000002060FC6060606C3800000000000093
:100D2000CCCCCCCCCC76000000000000CCCCCCCC21
:100D30007830000000000000C6C6D6D66C6C0000FB
:100D400000000000C66C38386CC6000000000000CF
:100D5000666666663C0C18F000000000FC8C1860AB
:100D6000C4FC0000001C303060C06030301C00004B
:100D700000181818180018181818000000E0303073
:100D8000180C183030E000000073DACE00000000CC
:100D90000000000011241FBECFE5D8E0DEBFCDBFAC
:100DA00013E0A0E6B0E0EAEDF9E202C005900D9292
:100DB000AC32B107D9F713E0ACE2B3E001C01D9249
:100DC000A533B107E1F70E9455070C94EB140C947E
:100DD00000001F920F920FB60F9211242F938F9342
:100DE0009F93EF93FF93E8E3F0E0808191E0892700
:100DF0008083809195009091960001979093960042
:100E0000809395009DBD8CBD80559E4F39F480EF39
:100E10009FEF90939600809395001EBCFF91EF91F9
:100E20009F918F912F910F900FBE0F901F9018954B
:100E30000F931F93DF93CF9300D000D0CDB7DEB7D1
:100E400080E289831C8220912E03822F6AE00E9417
:100E50004C14805D8A83822F0E944C14905D9B838A
:100E600085E265E78E010F5F1F4FA80121E00E9418
:100E7000200C20919300822F6AE00E944C14805D28
:100E80008A83822F0E944C14905D9B8386E865E7DD
:100E9000A80121E00E94200C0F900F900F900F905E
:100EA000CF91DF911F910F9108950F938FE087BB32
:100EB0008FEF88BB84BB87EF81BB0E94EE090E9445
:100EC000C90984E590E066E040E00E94A90B20E3B8
:100ED00035E744E650E0CA010197F1F72150304070
:100EE000D1F70E94C9098CE061E040E650E021E0C2
:100EF0000E94200C82E065E747E750E020E00E9476
:100F0000200C8BE465E74EE750E020E00E94200CC7
:100F10000E94180780E062E14FE922E101E00E94AF
:100F2000830A8FE962E14FE920E70E94830A8FE993
:100F300060E740E020E70E94830A80E060E740E04D
:100F400022E10E94830A8EEE98E06091940040E1D5
:100F50000E94A90B95E093BF8CE382BF1EBC99BF92
:100F600088E085BF80E88BBF8FBFFFCF1F920F92B5
:100F70000FB60F9211240F932F933F934F935F93CC
:100F80006F937F938F939F93AF93BF93EF93FF9351
:100F9000B4991DC060919400662309F48DC080E867
:100FA00049E850E020E00E94200C80919400885095
:100FB00080939400843118F484E1809394008EEE41
:100FC00098E06091940040E10E94A90B7DC0B59922
:100FD0001DC060919400662309F472C080E849E85E
:100FE00050E020E00E94200C80919400885F809364
:100FF0009400853618F084E6809394008EEE98E095
:101000006091940040E10E94A90B5EC0B69949C06E
:1010100080919300882309F457C082E08EBD20910F
:1010200094002C5F8AE0622F4DE701E00E94830A62
:1010300020E233E044E650E0CA010197F1F7215085
:101040003040D1F7209194002C5F8AE0622F4DE769
:1010500000E00E94830A809193008823F9F0815078
:10106000809393008091940090E09C012C5F3F4F0F
:1010700040913003842F90E0821793077CF40B9605
:10108000281739075CF480913103481739F08091B3
:101090002E038F5F80932E03409331030E94180725
:1010A00013C086B3882384F010922E0384E18093CA
:1010B00093000E94180708C088EF809394007FCFA8
:1010C00088E0809394009ACFFF91EF91BF91AF9108
:1010D0009F918F917F916F915F914F913F912F9150
:1010E0000F910F900FBE0F901F9018951F920F92A7
:1010F0000FB60F9211242F933F934F935F936F93EB
:101100007F938F939F93AF93BF93EF93FF938CE362
:1011100082BF809132038F5F809332038E3109F05A
:1011200047C01092320380912F03882349F06091C9
:101130003003662329F04DE850E020E00E94200CA7
:101140000E943E142CE330E040E050E00E9458142E
:10115000685F60932F030E943E1420E530E040E07A
:1011600050E00E9458146C5E60933003809131030C
:1011700090E0861B91090396079798F40E943E140D
:1011800020E530E040E050E00E9458146C5E60932F
:1011900030038091310390E0861B910903960797F5
:1011A00068F380912F0340E950E020E00E94200C7A
:1011B000FF91EF91BF91AF919F918F917F916F912F
:1011C0005F914F913F912F910F900FBE0F901F9005
:1011D0001895A4E3B0E01C92E2E3F0E08081846023
:1011E000808380818D7F808381E08A95F1F783B34E
:1011F0009081926090839FEF9C930895A4E3B0E068
:101200001C92E2E3F0E080818B7F808380818D7F80
:10121000808381E08A95F1F783B390819260908317
:101220009FEF9C9308959FEF94BBE2E3F0E09081E1
:101230009B7F908385BB80818E7F808382E08A95AF
:10124000F1F780818160808308959FEF94BBE2E392
:10125000F0E090819460908385BB80818E7F808355
:1012600082E08A95F1F780818160808308951F93E1
:101270001AE00E94E9088370833011F01150C9F719
:10128000812F1F9108951F931AE00E94E90883FDA2
:1012900002C01150D1F7812F1F910895FF920F9333
:1012A0001F93F82E162F042F0E943709882311F45C
:1012B00081E016C0812F0E9413090E9437098823FC
:1012C00011F482E00DC0802F0E9413090E9437099B
:1012D000882311F483E004C08F2D0E94250980E04B
:1012E0001F910F91FF9008950F931F93082F162FB2
:1012F0000E943709882311F481E00DC0812F0E94DC
:1013000013090E943709882311F482E004C0802F5A
:101310000E94250980E01F910F9108951F93182FB7
:101320000E943709882311F481E004C0812F0E94B4
:10133000250980E01F9108951F93182F0E944309EB
:10134000882311F481E004C0812F0E94130980E0FA
:101350001F9108950E943709882311F481E00895B0
:101360000E94FE0808950F931F93182F062F24E163
:10137000829F90011124260F311D84E2622F432F9A
:101380000E944E0910933403009333031F910F9171
:101390000895CF93DF9384E260E040E00E944E091D
:1013A00080EB0E948E09C0E0D0E00E94430980E0FB
:1013B0000E949C09219680E2C030D807B1F782EBE9
:1013C0000E948E0984E260E040E00E944E09109283
:1013D000340310923303DF91CF91089580E460E0ED
:1013E00040E00E944E0981E464E140E00E944E0921
:1013F00082E460E040E00E944E0983E464E140E062
:101400000E944E0981EA0E948E0980E80E948E099E
:1014100088E90E948E0980E00895CF92DF92EF92D2
:10142000FF920F931F93082FD42E0F2EF7E0FF2E5D
:10143000F02DF622C62EC694C694C694842F6C2D29
:101440000E94B30981EB0E948E090E94AA09E82E2E
:101450000E94AA0998E09F1910E04FEF50E09A010E
:10146000092E02C0220F331F0A94E2F7E2229801EC
:101470000F2C02C0359527950A94E2F7E22A02C0A4
:10148000000F111F9A95E2F702C055954795FA94FF
:10149000E2F7F82EF422F02A82EB0E948E098D2DBD
:1014A0006C2D0E94B30980EB0E948E098E2D0E9444
:1014B0009C098F2D0E949C0982EB0E948E091F912E
:1014C0000F91FF90EF90DF90CF9008951F93982F8A
:1014D000262F80958770182F106F41111860692F83
:1014E000669566956695822F0E94B309812F806F5D
:1014F0000E948E091F910895FC01DB0190818C915F
:1015000080839C9308952F923F924F925F926F92A7
:101510007F928F929F92AF92BF92CF92DF92EF9283
:10152000FF920F931F93DF93CF9300D000D00F92C1
:10153000CDB7DEB789836A834B832C83302EC62ECA
:10154000462E55242D83822E9924D82E682E77245A
:10155000242EA42EBB24B20168197909882777FDAF
:101560008095982F0E9444117B018C01E89417F913
:10157000B3016A197B09882777FD8095982F0E940F
:1015800044119B01AC015F77C801B7010E9414119F
:1015900018160CF464C0B40164197509882777FD26
:1015A0008095982F0E9444117B018C01B50166192A
:1015B0007709882777FD8095982F0E9444119B0119
:1015C000AC01C801B7010E9438104B015C01B201A7
:1015D000882777FD8095982F0E9444117B018C010C
:1015E000B301882777FD8095982F0E944411A501AB
:1015F00094010E943E0F9B01AC01C801B7010E94FB
:10160000E00E7B018C012D1460F4CE010196BE0129
:101610006D5F7F4F0E947C0AD9808B818D1508F405
:1016200080C06D2D70E0882777FD8095982F0E94EF
:101630004411A50194010E943E0FA80197010E9448
:10164000110F0E94680D9B01AC018D2D622F432D5F
:101650000E94660AD3948B818D1518F762C0B5017C
:1016600066197709882777FD8095982F0E94441185
:101670007B018C01B40164197509882777FD809579
:10168000982F0E9444119B01AC01C801B7010E9430
:1016900038104B015C01B301882777FD8095982FA6
:1016A0000E9444117B018C01B201882777FD80954F
:1016B000982F0E944411A50194010E943E0F9B01A6
:1016C000AC01C801B7010E94E00E7B018C018D8145
:1016D0008C1558F4CE010296BE016C5F7F4F0E94BC
:1016E0007C0ACA808C818C15E0F06C2D70E0882714
:1016F00077FD8095982F0E944411A50194010E94C6
:101700003E0FA80197010E94110F0E94680DDC0195
:10171000CB016C2D432D0E94660AC3948C818C15DD
:1017200020F70F900F900F900F900F90CF91DF91B7
:101730001F910F91FF90EF90DF90CF90BF90AF90EF
:101740009F908F907F906F905F904F903F902F90E1
:1017500008952F923F924F925F926F927F928F9255
:101760009F92AF92BF92CF92DF92EF92FF920F9330
:101770001F93DF93CF9300D00F92CDB7DEB75C01FC
:10178000562E442EFC013196E4918E2E992481141C
:10179000910409F43FC0CC24DD24FC01F491F983C9
:1017A0002F2E33247101F694E794F694E794F6947F
:1017B000E79466247724852D8C0D642D0E94B3094F
:1017C00080EB0E948E09E114F104D9F0EC9CC00179
:1017D000ED9C900DFC9C900D112402968501080F44
:1017E000191F7B826A82F80184910E949C098A8178
:1017F0009B8101969B838A830F5F1F4F8E159F05E8
:1018000090F382EB0E948E090894C11CD11CC8146D
:10181000D90488F20F900F900F90CF91DF911F9114
:101820000F91FF90EF90DF90CF90BF90AF909F907F
:101830008F907F906F905F904F903F902F90089582
:101840002F923F924F925F926F927F928F929F92D0
:10185000AF92BF92CF92DF92EF92FF920F931F93BE
:10186000DF93CF9300D000D00F92CDB7DEB7582EC4
:10187000462E5B834A83822EAA81BB81FD010190A3
:101880000020E9F73197EA1BFB0BE983EE2309F40B
:1018900007C133242224EA81FB81E30DF11DF1907D
:1018A0001081952C969496949694842D692D0E947F
:1018B000B3092FE92F1508F472C03FE13F15D0F0AE
:1018C0008AE0F81639F09DE0F91621F0A8E0FA1642
:1018D00089F40AC03394BFE6B41510F45524B9C096
:1018E000ECE04E0E5524B5C03394F8E0F41510F436
:1018F00028EF420E3CE0F39EC00111249C012457C6
:1019000031400F2EF4E16F2EF9E07F2EF02D620EA4
:10191000731E142D252D30E00F2EF7E0AF2EBB24C3
:10192000F02DA222B322885691400F2EF4E1CF2E43
:10193000F9E0DF2EF02DC80ED91E8EE18F15F0F4E0
:10194000F3018491882011F4082F02C0082F00951C
:10195000812F692D0E94B309A114B10451F480EBC9
:101960000E948E09802F0E949C0982EB0E948E09A2
:1019700005C0802F652D412F0E940D0A812F692DF2
:101980000E94B3091F5F0894611C711C6C147D04D4
:10199000A1F6F8E0FF1609F45BC05F0E59C0E9E953
:1019A000F0E0DD2480818F1521F48181811709F415
:1019B00055C0D3947A962FE0D216A1F74FC0FE2CD3
:1019C000F40C8F2D692D0E94B3093EE03D1518F4EB
:1019D000122D022D05C0AC81BD811C9111960C9178
:1019E0006114710461F480EB0E948E0981101095DE
:1019F000812F0E949C0982EB0E948E0907C08110F2
:101A00001095812F652D4F2D0E940D0AA114B10450
:101A100061F480EB0E948E0981100095802F0E9456
:101A20009C0982EB0E948E0907C081100095802FCF
:101A30006C2D4F2D0E940D0AE394EC81FD813296AE
:101A4000FD83EC83FCE0EF1609F0B9CF5F0E339411
:101A500033942981321608F41ECF22C03AE1D39E76
:101A6000C00111240296A9E9B0E0A80FB91FBD83F7
:101A7000AC83EE24852D90E00F2EF7E06F2E7724B7
:101A8000F02D6822792208960F2EF7E0AF2EBB24A6
:101A9000F02DA822B922CC246894C3F8C50C8FCFAE
:101AA0000F900F900F900F900F90CF91DF911F919B
:101AB0000F91FF90EF90DF90CF90BF90AF909F90ED
:101AC0008F907F906F905F904F903F902F900895F0
:101AD000EF92FF920F931F937B018C0120E030E087
:101AE00040E05FE40E94E41088238CF0C801B70155
:101AF00020E030E040E05FE40E94E00E0E94A2118E
:101B00009B01AC01205030404040504806C0C80105
:101B1000B7010E94A2119B01AC01B901CA011F913A
:101B20000F91FF90EF900895A0E0B0E0EAE9FDE0AA
:101B30000C949514DC012B01FA019C91923008F46D
:101B400039C1EB018881823008F433C1943069F4E3
:101B5000843009F02FC111969C91119789819817B3
:101B600009F428C1AFE1B2E025C1843009F421C1F4
:101B70008230A9F4923009F01DC19A01AD0188E0CC
:101B8000EA010990AE01E90109929E018150C1F775
:101B9000E201898111969C918923818308C1923049
:101BA00009F407C112962D903C901397EB018A819E
:101BB0009B811496AD90BD90CD90DC901797EC80F2
:101BC000FD800E811F819101281B390BB90137FF60
:101BD00004C066277727621B730B603271050CF017
:101BE00061C0121613066CF537014801062E04C0B9
:101BF00096948794779467940A94D2F721E030E022
:101C000040E050E004C0220F331F441F551F6A9567
:101C1000D2F721503040404050402E213F214023F8
:101C20005123211531054105510521F021E030E016
:101C300040E050E079018A01E628F72808291929AF
:101C40003CC0232BD1F1260E371E35014601062E4E
:101C500004C096948794779467940A94D2F721E00D
:101C600030E040E050E004C0220F331F441F551FF6
:101C70006A95D2F721503040404050402A213B2104
:101C80004C215D21211531054105510521F021E04F
:101C900030E040E050E059016A01A628B728C82882
:101CA000D9280BC0821593052CF01C01AA24BB2453
:101CB000650103C0EE24FF24870111969C91D20197
:101CC00011968C91981709F445C0992339F0A80111
:101CD00097012A193B094C095D0906C0A601950127
:101CE0002E193F09400B510B57FD08C0118233825A
:101CF000228224833583468357831DC081E08183FC
:101D00003382228288279927DC01821B930BA40B44
:101D1000B50B84839583A683B7830DC0220F331F31
:101D2000441F551F248335834683578382819381C3
:101D30000197938382832481358146815781DA011B
:101D4000C9010197A109B1098F5F9F4FAF4FBF43F1
:101D500028F30BC0918333822282EA0CFB1C0C1DFA
:101D60001D1DE482F5820683178383E0808324812E
:101D700035814681578157FF1AC0C901AA2797FDAF
:101D8000A095BA2F81709070A070B070569547954D
:101D900037952795822B932BA42BB52B8483958382
:101DA000A683B78382819381019693838283DF0127
:101DB00001C0D201CD01CDB7DEB7E2E10C94B11480
:101DC000A0E2B0E0E6EEFEE00C94A11469837A8311
:101DD0008B839C832D833E834F835887E9E0EE2ECF
:101DE000F12CEC0EFD1ECE010196B7010E941A13D4
:101DF0008E010F5E1F4FCE010596B8010E941A1387
:101E00008A8991E089278A8BC701B801AE01475EB4
:101E10005F4F0E94940D0E944512A096E6E00C943C
:101E2000BD14A0E2B0E0E7E1FFE00C94A1146983E7
:101E30007A838B839C832D833E834F835887F9E07D
:101E4000EF2EF12CEC0EFD1ECE010196B7010E9483
:101E50001A138E010F5E1F4FCE010596B8010E9426
:101E60001A13C701B801AE01475E5F4F0E94940D7F
:101E70000E944512A096E6E00C94BD14A0E2B0E0EA
:101E8000E4E4FFE00C94951469837A838B839C834C
:101E90002D833E834F835887CE010196BE01675F35
:101EA0007F4F0E941A13CE010596BE016F5E7F4FD1
:101EB0000E941A139985923088F089898230C8F07F
:101EC000943019F4823051F404C0843029F49230F3
:101ED00081F48FE192E0C6C0923049F420E09A8507
:101EE0008A89981321E02A87CE010996BBC08230E7
:101EF00049F420E09A858A89981321E02A8BCE0143
:101F00004196B0C02D843E844F8458886D887E8869
:101F10008F88988CEE24FF248701AA24BB246501B6
:101F200040E050E060E070E0E0E0F0E0C10181708E
:101F30009070892BE9F0E60CF71C081D191D9A0119
:101F4000AB012A0D3B1D4C1D5D1D80E090E0A0E023
:101F5000B0E0E614F7040805190520F481E090E0EC
:101F6000A0E0B0E0BA01A901480F591F6A1F7B1F0A
:101F7000AA0CBB1CCC1CDD1C97FE08C081E090E0C5
:101F8000A0E0B0E0A82AB92ACA2ADB2A3196E032BA
:101F9000F10549F0660C771C881C991C56944794EF
:101FA00037942794C3CFFA85EA892B893C898B859E
:101FB0009C85280F391F2E5F3F4F17C0CA018170C3
:101FC0009070892B61F016950795F794E79480E05F
:101FD00090E0A0E0B0E8E82AF92A0A2B1B2B7695BE
:101FE0006795579547952F5F3F4F77FDE7CF0CC01B
:101FF000440F551F661F771F17FD4160EE0CFF1C35
:10200000001F111F21503040403090E0590790E0F0
:10201000690790E4790760F32B8F3C8FDB01CA01DD
:102020008F779070A070B07080349105A105B105D4
:1020300061F447FD0AC0E114F1040105110529F01E
:10204000405C5F4F6F4F7F4F40781A8EFE1711F044
:1020500081E08A8F4D8F5E8F6F8F78A383E0898FA9
:10206000CE0149960E944512A096E2E10C94B1146B
:10207000A8E1B0E0EEE3F0E10C949D1469837A836B
:102080008B839C832D833E834F835887B9E0EB2E4F
:10209000F12CEC0EFD1ECE010196B7010E941A1321
:1020A0008E010F5E1F4FCE010596B8010E941A13D4
:1020B0002985223008F47EC03989323010F4B80105
:1020C0007CC08A859A8989278A87243011F022303A
:1020D00031F4231709F06EC06FE172E06EC0343046
:1020E00039F41D861E861F86188A1C861B8604C02E
:1020F000323021F484E08987B7015FC02B853C85AD
:102100008B899C89281B390B3C872B87ED84FE84A7
:102110000F851889AD88BE88CF88D88CEA14FB0457
:102120000C051D0540F4EE0CFF1C001F111F215073
:1021300030403C872B8720E030E040E050E080E0FA
:1021400090E0A0E0B0E460E070E0EA14FB040C056D
:102150001D0540F0282B392B4A2B5B2BEA18FB0876
:102160000C091D09B695A79597958795EE0CFF1C50
:10217000001F111F6F5F7F4F6F31710531F7DA015B
:10218000C9018F779070A070B07080349105A1055F
:10219000B10561F427FD0AC0E114F1040105110540
:1021A00029F0205C3F4F4F4F5F4F20782D873E87AF
:1021B0004F87588BBE01675F7F4FCB010E9445124E
:1021C0006896EAE00C94B914A8E1B0E0EAEEF0E118
:1021D0000C94A11469837A838B839C832D833E8323
:1021E0004F83588789E0E82EF12CEC0EFD1ECE01BE
:1021F0000196B7010E941A138E010F5E1F4FCE0188
:102200000596B8010E941A138985823040F08989A9
:10221000823028F0C701B8010E94921301C08FEFED
:102220006896E6E00C94BD14A8E1B0E0EAE1F1E1C3
:102230000C94A11469837A838B839C832D833E83C2
:102240004F83588789E0E82EF12CEC0EFD1ECE015D
:102250000196B7010E941A138E010F5E1F4FCE0127
:102260000596B8010E941A138985823040F0898949
:10227000823028F0C701B8010E94921301C081E0AA
:102280006896E6E00C94BD14A8E0B0E0EAE4F1E161
:102290000C949E149B01AC0183E08983DA01C9018F
:1022A0008827B7FD83959927AA27BB27B82E211524
:1022B00031054105510519F482E089833AC088232C
:1022C000A9F0203080E0380780E0480780E8580710
:1022D00029F460E070E080E09FEC30C0EE24FF2441
:1022E0008701E21AF30A040B150B02C079018A0177
:1022F0008EE1C82ED12CDC82CB82ED82FE820F8350
:102300001887C801B7010E94F6110197181619061F
:1023100084F4082E04C0EE0CFF1C001F111F0A9449
:10232000D2F7ED82FE820F831887C81AD90ADC82A1
:10233000CB82BA82CE0101960E9445122896E9E02E
:102340000C94BA14ACE0B0E0E8EAF1E10C94A51406
:1023500069837A838B839C83CE010196BE016B5F78
:102360007F4F0E941A138D81823061F1823050F1CB
:10237000843021F48E81882351F12EC02F8138853D
:1023800037FD20C06E812F3131051CF06623F9F036
:1023900023C08EE190E0821B930B29853A854B8503
:1023A0005C8504C056954795379527958A95D2F751
:1023B0006623B1F050954095309521953F4F4F4F92
:1023C0005F4F0EC020E030E040E050E009C02FEF4A
:1023D0003FEF4FEF5FE704C020E030E040E050E81F
:1023E000B901CA012C96E2E00C94C114EF92FF925D
:1023F0000F931F937B018C0180E0E81680E0F806C4
:1024000081E0080780E0180788F48FEFE816F104F0
:102410000105110531F028F088E090E0A0E0B0E07F
:1024200017C080E090E0A0E0B0E012C080E0E816C5
:1024300080E0F80680E0080781E0180728F088E1CE
:1024400090E0A0E0B0E004C080E190E0A0E0B0E067
:1024500020E230E040E050E0281B390B4A0B5B0BD8
:1024600004C016950795F794E7948A95D2F7F7017B
:10247000E95DFD4F8081281B310941095109C901DE
:102480001F910F91FF90EF900895DF92EF92FF92CE
:102490000F931F93FC01E480F58006811781D180A2
:1024A0008081823048F480E090E0A0E1B0E0E82A4A
:1024B000F92A0A2B1B2BA5C0843009F49FC0823057
:1024C00021F4EE24FF24870105C0E114F104010585
:1024D000110519F4E0E0F0E096C0628173819FEF8E
:1024E000623879070CF05BC022E83FEF261B370B00
:1024F0002A3131052CF020E030E040E050E02AC0E5
:10250000B801A701022E04C07695679557954795A7
:102510000A94D2F781E090E0A0E0B0E004C0880F18
:10252000991FAA1FBB1F2A95D2F70197A109B109CC
:102530008E219F21A023B1230097A105B10521F091
:1025400081E090E0A0E0B0E09A01AB01282B392BAC
:102550004A2B5B2BDA01C9018F779070A070B070A5
:1025600080349105A105B10539F427FF09C0205C2D
:102570003F4F4F4F5F4F04C0215C3F4F4F4F5F4F66
:10258000E0E0F0E02030A0E03A07A0E04A07A0E455
:102590005A0710F0E1E0F0E079018A0127C06038C5
:1025A000710564F5FB01E158FF4FD801C7018F7732
:1025B0009070A070B07080349105A105B10539F418
:1025C000E7FE0DC080E490E0A0E0B0E004C08FE33F
:1025D00090E0A0E0B0E0E80EF91E0A1F1B1F17FFF5
:1025E00005C016950795F794E794319687E0169500
:1025F0000795F794E7948A95D1F705C0EE24FF2458
:102600008701EFEFF0E06E2F679566276795902FB3
:102610009F77D794DD24D7948E2F8695492F462B0C
:10262000582F5D29B701CA011F910F91FF90EF90BC
:10263000DF900895FC01DB01408151812281622FEE
:102640006F7770E0221F2227221F9381892F880F26
:10265000822B282F30E0991F9927991F11969C9360
:10266000119721153105A9F5411551056105710530
:1026700011F482E037C082E89FEF13969C938E930B
:1026800012979A01AB0167E0220F331F441F551FB9
:102690006A95D1F783E08C930DC0220F331F441F3E
:1026A000551F12968D919C911397019713969C93A9
:1026B0008E931297203080E0380780E0480780E44E
:1026C000580758F314962D933D934D935C931797A9
:1026D00008952F3F310579F44115510561057105C4
:1026E00019F484E08C93089564FF03C081E08C9317
:1026F00012C01C9210C02F57304013963C932E935B
:10270000129783E08C9387E0440F551F661F771F55
:102710008A95D1F7706414964D935D936D937C9375
:10272000179708951F93DC01FB019C91923008F4E8
:1027300047C08081823008F443C0943051F4119630
:102740001C91843099F58181682F70E0611B7109BB
:102750003FC0843021F0923031F48230B9F1818170
:10276000882389F12DC011961C9111978230F1F0C8
:1027700081811817D9F412962D913C91139782817B
:1027800093818217930794F028173907BCF01496A9
:102790008D919D910D90BC91A02D24813581468114
:1027A0005781281739074A075B0718F4112341F0AE
:1027B0000AC082179307A407B50740F4112319F044
:1027C00061E070E005C06FEF7FEF02C060E070E095
:1027D000CB011F910895A0E0B0E0E1EFF3E10C948C
:1027E0009D14EC01A880B980CA80DB80A114B104DB
:1027F000C104D10441F484E2A82E89EDB82E8BE502
:10280000C82E87E0D82EC601B5012DE133EF41E097
:1028100050E00E94581427EA31E440E050E00E9462
:10282000CC147B018C01C601B5012DE133EF41E0F1
:1028300050E00E945814CA01B9012CEE34EF4FEF5A
:102840005FEF0E94CC146E0D7F1D801F911F97FFBC
:1028500004C06150704080409048688379838A83C7
:102860009B839B01AC015F77B901CA01CDB7DEB78D
:10287000EAE00C94B9140E94EB13089587E293E008
:102880000E94EB13089560932703709328038093AD
:10289000290390932A030895991B79E004C0991F96
:1028A000961708F0961B881F7A95C9F780950895AA
:1028B00097FB092E05260ED057FD04D014D00AD060
:1028C000001C38F450954095309521953F4F4F4F5F
:1028D0005F4F0895F6F790958095709561957F4FBD
:1028E0008F4F9F4F0895A1E21A2EAA1BBB1BFD011B
:1028F0000DC0AA1FBB1FEE1FFF1FA217B307E407DF
:10290000F50720F0A21BB30BE40BF50B661F771F36
:10291000881F991F1A9469F7609570958095909516
:102920009B01AC01BD01CF0108952F923F924F92C0
:102930005F926F927F928F929F92AF92BF92CF924F
:10294000DF92EF92FF920F931F93CF93DF93CDB758
:10295000DEB7CA1BDB0B0FB6F894DEBF0FBECDBFD0
:1029600009942A88398848885F846E847D848C84A1
:102970009B84AA84B984C884DF80EE80FD800C81AA
:102980001B81AA81B981CE0FD11D0FB6F894DEBF8D
:102990000FBECDBFED010895629FD001739FF0017E
:1029A000829FE00DF11D649FE00DF11D929FF00DDF
:1029B000839FF00D749FF00D659FF00D9927729F16
:1029C000B00DE11DF91F639FB00DE11DF91FBD01A1
:0A29D000CF0111240895F894FFCF01
:1029DA00A1EFA1EF20C9E4BBF7D1B5C1B7D3CECFE0
:1029EA00B720A1EFA1EF00B5C3B7D6A3BA00CAA317
:1029FA00D3E0B5AFD2A9A3BA00202020002020003E
:102A0A00A1F6001414F0FF1480B5C327C024405760
:102A1A00C0944027C06000AFE020802FE0248021CE
:102A2A00800000B7D611001100208020804040BFEE
:102A3A00A00880088010802080C7000000A3BA0088
:102A4A000000000C000C000000000000000C000C4C
:102A5A0000000000000000A1EF040004000E000EB8
:102A6A0000FFE07FC01F001F003B80208040400025
:102A7A0000A1F600007FC07FC07FC07FC07FC07FFB
:102A8A00C07FC07FC07FC000000000C9E42040783A
:102A9A004048407FE048407A404940F94028404851
:102AAA004099C00000BBF7040004007FC004000482
:102ABA0000FFE004004440444044407FC00000D18D
:102ACA00B54440254005400540C540454045404580
:102ADA00405540684010400000C1B722004FE04214
:102AEA00009F80E4804480AFE0C08034C0C8A01357
:102AFA00A00000D3CE910049E03E0093E05C405430
:102B0A008055E094809480A4804D800000CFB70265
:102B1A0080F240124013E09E005240228031004968
:102B2A002042A08C600000CAA37C2010A0FEA05402
:102B3A00A0D6A054A0D6A038A054A0922010E0009D
:102B4A0000D3E004000A0011002080DF6004007F47
:102B5A00C01500248044409C400000B5AF0440E208
:102B6A00802FC02940EFC08940EFC021003FE021FB
:102B7A0000C1000000D2A91100FFE0110022004BA1
:102B8A00E074202220592061201840E1C000000092
:102B9A000000000000000000010202030303030416
:102BAA0004040404040404050505050505050505D2
:102BBA0005050505050505060606060606060606B2
:102BCA00060606060606060606060606060606069B
:102BDA000606060606060607070707070707070782
:102BEA00070707070707070707070707070707076B
:102BFA00070707070707070707070707070707075B
:102C0A00070707070707070707070707070707074A
:102C1A000707070707070708080808080808080831
:102C2A00080808080808080808080808080808081A
:102C3A00080808080808080808080808080808080A
:102C4A0008080808080808080808080808080808FA
:102C5A0008080808080808080808080808080808EA
:102C6A0008080808080808080808080808080808DA
:102C7A0008080808080808080808080808080808CA
:102C8A0008080808080808080808080808080808BA
:0C2C9A00080808080808080100000000F5
:00000001FF
