:100000000C942A000C9447000C9447000C94470071
:100010000C9447000C9447000C9447000C94470044
:100020000C9447000C9447000C9447000C94470034
:100030000C9447000C9447000C9447000C94470024
:100040000C9447000C9447000C9447000C94470014
:100050000C94470011241FBECFE5D4E0DEBFCDBF16
:1000600011E0A0E6B0E0ECEFFDE002C005900D92DB
:10007000A43BB107D9F713E0A4EBB1E001C01D9296
:10008000AB3BB107E1F70E94C0000C94FC060C9456
:1000900000004F925F926F927F928F929F92AF92E9
:1000A000BF92CF92DF92EF92FF920F931F93DF9355
:1000B000CF9300D000D0CDB7DEB73C015A016B0121
:1000C000411551056105710509F441C0EE24FF2475
:1000D00087014E010894811C911C0F2EF0E64F2ED3
:1000E000F0E05F2EF02DD801C7018F719070A070E5
:1000F000B0700097A105B10519F48DE00E94490385
:1001000000D000D000D0EDB7FEB73196918280824A
:1001100053824282D301AE0DBF1D8C918483158220
:100120000E94C8038DB79EB706960FB6F8949EBF7F
:100130000FBE8DBFC4010E9458030894E11CF11C3E
:10014000011D111DEA14FB040C051D0560F286E675
:1001500090E00E9458030F900F900F900F90CF9156
:10016000DF911F910F91FF90EF90DF90CF90BF90A4
:10017000AF909F908F907F906F905F904F90089579
:100180002F923F924F925F926F927F928F929F92A7
:10019000AF92BF92CF92DF92EF92FF920F931F9395
:1001A000CF93DF931ABA8FEF8BBB81BB82BB0E94C8
:1001B000F5010E943F0388EE93E024E630E0F90168
:1001C0003197F1F70197D9F782E890E00E94580340
:1001D0000E9402038093AF01882329F086EA90E011
:1001E0000E94580304C08CEA90E00E94580385EBFB
:1001F00090E00E9458038CE291E00E94BD030F2E14
:10020000F9E3EF2EFF24F02D0F2EFAE84F2EF1E048
:100210005F2EF02D0F2EFCE72F2EF1E03F2EF02D5C
:100220000F2EFBEBCF2EF1E0DF2EF02D0F2EFBEB90
:10023000AF2EF3E0BF2EF02D0F2EFCEA8F2EF0E054
:100240009F2EF02D0F2EF6EA6F2EF0E07F2EF02D70
:1002500004E610E0F70180818F3FE1F380818D3F5C
:1002600021F4F1E0F093B40117C0F7018081873FDA
:1002700021F4F2E0F093B4010FC0F70180818F3DCB
:1002800021F4F3E0F093B40107C0F70180818F37C8
:1002900019F4F4E0F093B4018091AF018823E1F404
:1002A00086EE90E00E9458030E94F50128EE33E0AC
:1002B000C8010197F1F721503040D1F70E940203A5
:1002C0008093AF01882321F0C3010E94580304C02A
:1002D000C4010E94580384C08091B401813011F59B
:1002E0008DE091E00E94580380E090E0F601E80F75
:1002F000F91F8083019622E080309207B9F760E011
:1003000070E080E090E0A6010E9452028093AF016D
:10031000882321F0C3010E94580362C0C4010E94D7
:1003200058035EC08230F1F48EE291E00E945803DF
:10033000E6010E94B8038993CA15DB05D1F760E096
:1003400072E080E090E0A6010E9452028093AF012B
:10035000882321F0C3010E94580342C0C4010E94B7
:1003600058033EC08330F1F480E591E00E945803C9
:1003700060E070E080E090E00E94B0028093AF0106
:10038000882361F085E791E00E945803C60140E0B0
:1003900052E060E070E00E94490022C0C1010E946A
:1003A00058031EC08430E1F4C2010E94580360E08B
:1003B00072E080E090E00E94B0028093AF01882359
:1003C00061F085E791E00E945803C60140E052E0E9
:1003D00060E070E00E94490003C0C1010E94580320
:1003E000F70180818F3FE1F735CF8FEB87BBEDE2DF
:1003F000F0E0808183658083E8E3F0E080818061C4
:10040000808308958FB98EB188234CF021E0EEE20D
:10041000F0E0822F8A95F1F780818823D4F78FB19D
:100420000895A5EBB1E0FD011192108212961C9285
:10043000129713961C92139714961C921497159664
:100440001C920895EF92FF920F931F93CF93DF9327
:100450007C0108E310E0F8018081806180838FEFE8
:100460000E940202F80180818F7E8083C0E0D0E08C
:10047000F701EC0FFD1F80810E9402022196C63019
:10048000D105B1F700E08FEF0E9402020F5F0A3C36
:1004900011F08F3FC1F3DF91CF911F910F91FF902A
:1004A000EF900895EF92FF920F931F93CF93DF93F6
:1004B0007B018C010E941102E5EBF1E088E580836D
:1004C0008FEF85830D2ED9E0EE0CFF1C001F111F4E
:1004D000DA95D1F7D02D812F9927AA27BB278183C1
:1004E000C801AA27BB278283EF2CF02E012F1127EA
:1004F000E3821482CF010E942202882349F58FEF04
:100500000E9402028EEF0E940202CBEBD1E00BEBC5
:1005100013E089910E940202C017D107D1F78FEF33
:100520000E9402028FEF0E9402028FEF0E940202DD
:100530008F71853069F404C0812F8A95F1F701C06D
:1005400011E08FEF0E9402028823B1F381E001C025
:1005500080E0DF91CF911F910F91FF90EF90089570
:10056000EF92FF920F931F93CF93DF937B018C0148
:100570000E941102E5EBF1E081E580838FEF858336
:100580000D2ED9E0EE0CFF1C001F111FDA95D1F7DC
:10059000D02D812F9927AA27BB278183C801AA279D
:1005A000BB278283EF2CF02E012F1127E3821482C8
:1005B000CF010E942202882331F080E01CC0812FED
:1005C0008A95F1F701C011E08FEF0E9402028E3F81
:1005D000B1F7CBEBD1E00BEB13E08FEF0E940202FF
:1005E0008993C017D107C9F78FEF0E9402028FEFDE
:1005F0000E94020281E0DF91CF911F910F91FF9045
:10060000EF9008950F931F93CF93DF930E941102F1
:10061000E5EBF1E080E4808385E9858328E833E138
:1006200044E650E0CA010197F1F721503040D1F77C
:1006300010E08FEF0E9402021F5F1031D1F785EBAF
:1006400091E00E9422028130A1F4E5EBF1E081E427
:1006500080838FEF8583CFEFDFEF8F0103C020977B
:1006600041F02197C8010E9422028823C1F781E04E
:1006700001C080E0DF91CF911F910F91089588E92B
:100680008AB9E0E4F0E086E0808389E189B91082EC
:1006900008951F93182F8A3019F48DE00E944903A2
:1006A0001CB9EBE2F0E0808185FFFDCF1F9108953A
:1006B000CF93DF93EC018881882331F021960E944B
:1006C000490388818823D1F7DF91CF910895A0E075
:1006D000B0E0EDE6F3E00C94AB06EC01A880B98045
:1006E000CA80DB80A114B104C104D10441F484E2C6
:1006F000A82E89EDB82E8BE5C82E87E0D82EC6012E
:10070000B5012DE133EF41E050E00E94880627EA71
:1007100031E440E050E00E9469067B018C01C60193
:10072000B5012DE133EF41E050E00E948806CA0197
:10073000B9012CEE34EF4FEF5FEF0E9469066E0DAA
:100740007F1D801F911F97FF04C061507040804043
:100750009048688379838A839B839B013F77C90193
:10076000CDB7DEB7EAE00C94C7060E946703089590
:1007700080EB91E00E9467030895A0E0B0E08093D1
:10078000B0019093B101A093B201B093B301089569
:10079000AEE0B0E0EEECF3E00C94B1060D891E89FA
:1007A00086E08C831A8309838FEF9FE79E838D8376
:1007B0009E01275E3F4FCE0101966F89788DA9017A
:1007C0000E94EC032F813885020F131FF80110825D
:1007D0002E96E4E00C94CD06ABE0B0E0E2EFF3E05F
:1007E0000C94A3063C012B015A01FC0117821682CE
:1007F000838181FD03C06FEF7FEFC6C19AE0892E30
:100800001E010894211C311CF3012381F20123FDF8
:10081000859123FF81912F01882309F4B2C185328C
:1008200039F423FD859123FF81912F01853229F42D
:1008300090E0B3010E94DF05E7CF982FFF24EE245C
:100840009924FFE1FF15D0F09B3269F09C3228F427
:10085000903259F0933291F40EC09D3249F09033AA
:1008600069F441E024C052E0F52A84E0F82A28C067
:1008700098E0F92A25C0E0E1FE2A22C0F7FC29C051
:10088000892F80538A3070F4F6FE05C0989C902C16
:100890001124980E15C0E89CE02C1124E80EF0E21B
:1008A000FF2A0EC09E3229F4F6FC6BC140E4F42A04
:1008B00007C09C3619F450E8F52A02C0983649F46E
:1008C000F20123FD959123FF91912F01992309F0C6
:1008D000B8CF892F8554833018F08052833038F494
:1008E00044E050E0A40EB51E5FE359830FC0933679
:1008F00031F0933779F0933509F056C020C0F501F7
:100900008081898342E050E0A40EB51E610101E0C0
:1009100010E012C0F501C080D180F6FC03C06FEF7B
:100920007FEF02C0692D70E042E050E0A40EB51EDA
:10093000C6010E94D4058C015FE7F52214C0F501C1
:10094000C080D180F6FC03C06FEF7FEF02C0692D3D
:1009500070E042E050E0A40EB51EC6010E94C90539
:100960008C0150E8F52AF3FE07C01AC080E290E03F
:10097000B3010E94DF05EA948E2D90E00817190755
:10098000A8F30EC0F601F7FC8591F7FE81916F0187
:1009900090E0B3010E94DF05E110EA94015010409D
:1009A0000115110579F7EAC0943611F0993669F509
:1009B000F7FE08C0F501208131814281538184E036
:1009C00090E00AC0F501808191819C01442737FDA8
:1009D0004095542F82E090E0A80EB91E9FE6F922C0
:1009E00057FF09C050954095309521953F4F4F4F87
:1009F0005F4FE0E8FE2ACA01B901A1012AE030E018
:100A00000E940B06D82ED21840C0953729F41F2D0E
:100A10001F7E2AE030E01DC01F2D197F9F3661F038
:100A2000903720F4983509F0ACC00FC0903739F0FA
:100A3000983709F0A6C004C028E030E00AC0106171
:100A400014FD146020E130E004C014FD166020E1C4
:100A500032E017FF08C0F5016081718182819381C6
:100A600044E050E008C0F50180819181BC0180E044
:100A700090E042E050E0A40EB51EA1010E940B06DA
:100A8000D82ED2188FE7F82EF122F6FE0BC05EEFBB
:100A9000F522D91438F4F4FE07C0F2FC05C08FEE3D
:100AA000F82202C01D2D01C0192DF4FE0DC0FE015B
:100AB000ED0DF11D8081803319F499EEF92208C003
:100AC0001F5FF2FE05C003C08F2D867809F01F5FFF
:100AD0000F2DF3FC14C0F0FE0FC01E1510F09D2C5E
:100AE0000BC09D2C9E0C911A1E2D06C080E290E03A
:100AF000B3010E94DF051F5F1E15C0F304C01E1561
:100B000010F4E11A01C0EE2404FF0FC080E390E06E
:100B1000B3010E94DF0502FF1DC001FD03C088E78D
:100B200090E00EC088E590E00BC0802F867891F0B1
:100B300001FF02C08BE201C080E2F7FC8DE290E091
:100B4000B3010E94DF0506C080E390E0B3010E947C
:100B5000DF059A94D914C0F3DA94F101ED0DF11D7B
:100B6000808190E0B3010E94DF05DD20A9F706C077
:100B700080E290E0B3010E94DF05EA94EE20C1F725
:100B800043CEF30166817781CB012B96E2E10C9491
:100B9000BF06FC010590615070400110D8F78095A8
:100BA00090958E0F9F1F0895FC0161507040019039
:100BB0000110D8F7809590958E0F9F1F08950F9381
:100BC0001F93CF93DF938C01EB018B8181FF1BC0BF
:100BD00082FF0DC02E813F818C819D8128173907AE
:100BE00064F4E881F9810193F983E88306C0E8851C
:100BF000F985802F0995892B31F48E819F8101968B
:100C00009F838E8302C00FEF1FEFC801DF91CF914A
:100C10001F910F910895FA01AA27283051F1203130
:100C200081F1E8946F936E7F6E5F7F4F8F4F9F4F80
:100C3000AF4FB1E03ED0B4E03CD0670F781F891FC2
:100C40009A1FA11D680F791F8A1F911DA11D6A0F90
:100C5000711D811D911DA11D20D009F468943F9143
:100C60002AE0269F11243019305D3193DEF6CF0142
:100C70000895462F4770405D4193B3E00FD0C9F708
:100C8000F6CF462F4F70405D4A3318F0495D31FD75
:100C90004052419302D0A9F7EACFB4E0A6959795C8
:100CA000879577956795BA95C9F70097610571059E
:100CB00008959B01AC010A2E0694579547953795E8
:100CC0002795BA95C9F7620F731F841F951FA01D42
:100CD0000895629FD001739FF001829FE00DF11D86
:100CE000649FE00DF11D929FF00D839FF00D749FA6
:100CF000F00D659FF00D9927729FB00DE11DF91F52
:100D0000639FB00DE11DF91FBD01CF0111240895AE
:100D100097FB092E05260ED057FD04D04BD00AD0E4
:100D2000001C38F450954095309521953F4F4F4F1A
:100D30005F4F0895F6F790958095709561957F4F78
:100D40008F4F9F4F08952F923F924F925F926F92D5
:100D50007F928F929F92AF92BF92CF92DF92EF924B
:100D6000FF920F931F93CF93DF93CDB7DEB7CA1BCC
:100D7000DB0B0FB6F894DEBF0FBECDBF09942A88F7
:100D8000398848885F846E847D848C849B84AA849F
:100D9000B984C884DF80EE80FD800C811B81AA812C
:100DA000B981CE0FD11D0FB6F894DEBF0FBECDBFF7
:100DB000ED010895A1E21A2EAA1BBB1BFD010DC077
:100DC000AA1FBB1FEE1FFF1FA217B307E407F507FB
:100DD00020F0A21BB30BE40BF50B661F771F881FD7
:100DE000991F1A9469F760957095809590959B016D
:0C0DF000AC01BD01CF010895F894FFCFC5
:100DFC002530325820000D2D2D2D2D2D2D2D2D462D
:100E0C00696E6973686564212D2D2D2D2D2D2D2D69
:100E1C000D00496E697469616C697365204D4D43B1
:100E2C002C20506C656173652057616974696E671D
:100E3C002E2E2E2E2E004F4B210D0D004552524FB3
:100E4C0052210D0D00506C617365205072657373E7
:100E5C00204B312C4B322C4B33206F72204B3420D7
:100E6C00746F20506C6179204D4D43205465737420
:100E7C002E2E2E0D0D0052652D496E697469616C14
:100E8C00697365204D4D432C20506C656173652052
:100E9C0057616974696E672E2E2E2E2E005772695B
:100EAC007465204D4D43204F7264657220427974F5
:100EBC00657328353132292E2E2E2E2E2E00577288
:100ECC00697465204D4D432052616E646F6D2042F4
:100EDC007974657328353132292E2E2E2E2E2E0044
:100EEC000D0D0D52656164204D4D432044454D4F11
:100EFC003A204F72646572642042797465732E2EA9
:100F0C002E2E2E2E00204F4B210D0D00204552521F
:100F1C004F52202A2A2A210D0D000D0D0D5265610C
:100F2C0064204D4D432044454D4F3A2052616E6430
:100F3C006F6D2042797465732E2E2E2E2E2E00018D
:040F4C0001000000A0
:00000001FF
