:100000000C942A000C943F000C943F000C943F0089
:100010000C943F000C943F000C9441000C943F0062
:100020000C943F000C943F000C943F000C943F0054
:100030000C943F000C943F000C943F000C943F0044
:100040000C943F000C943F000C943F000C943F0034
:100050000C943F0011241FBECFE5D4E0DEBFCDBF1E
:1000600010E0A0E6B0E0E4E7F2E002C005900D92F7
:10007000A239B107D9F70E9456000C9438010C94AC
:1000800000001F920F920FB60F9211248F93EF93DF
:10009000FF93E2E3F0E0808180588083FF91EF914D
:1000A0008F910F900FBE0F901F9018958F929F9277
:1000B000AF92BF92CF92DF92EF92FF920F931F9376
:1000C000CF93DF9317BA8FEF88BB84BBE5E3F0E0F3
:1000D000808381BB82BB8FEB80831FBC89E08EBD98
:1000E000789400E810E00F2EF5E3EF2EFF24F02DBA
:1000F0000F2EF0E6CF2EF0E0DF2EF02D0F2EFAE4DB
:10010000AF2EBB24F02D0F2EFCE48F2E9924F02D62
:10011000C9E5D0E00E94BE008823E1F30E94CD0033
:1001200090919000892F81508F30A0F7892F90E017
:10013000F801E80FF91F2081F7012083880F991F2C
:10014000F601E80FF91F2081318140E050E060E2C4
:1001500071EA87E090E00E941601F5013183208367
:10016000F401118210828881806188830E94BE0020
:100170008823E1F788818F7E8883CCCF80EF87BB8F
:100180008FE088BB8AEF90E00197F1F786B390E0AB
:100190008F3009F091E0892F089586B38B3081F07C
:1001A0008C3018F48730A1F40FC08D3029F08E30D8
:1001B00079F4109290000FC081E0809390000BC002
:1001C00082E08093900007C083E08093900003C09A
:1001D0008FEF809390008FE087BB80EF88BB8AEF22
:1001E00090E00197F1F786B3803B81F0813B18F4F2
:1001F0008037C1F411C0803D19F0803E99F4089514
:10020000809190008C5F8093900008958091900081
:10021000885F80939000089580919000845F809320
:10022000900008958FEF809390000895A1E21A2E18
:10023000AA1BBB1BFD010DC0AA1FBB1FEE1FFF1F8A
:10024000A217B307E407F50720F0A21BB30BE40BDA
:10025000F50B661F771F881F991F1A9469F7609521
:100260007095809590959B01AC01BD01CF010895DB
:04027000F894FFCF30
:100274000000060126014A015D018801B801EE0172
:100284000B024B029302BA0210037003DC03160440
:10029400C0F9A4B0999282F880908883C6A1868E12
:0202A400100048
:00000001FF
