:100000000C942A000C943F000C943F000C943F0089
:100010000C943F000C943F000C94AF000C943F00F4
:100020000C943F000C943F000C943F000C943F0054
:100030000C943F000C943F000C943F000C943F0044
:100040000C943F000C943F000C943F000C943F0034
:100050000C943F0011241FBECFE5D4E0DEBFCDBF1E
:1000600010E0A0E6B0E0E6EDF1E002C005900D92F0
:10007000A038B107D9F70E9441000C94E9000C9414
:1000800000002F923F924F925F926F927F928F92D9
:100090009F92AF92BF92CF92DF92EF92FF920F9317
:1000A0001F93CF93DF9317BA8FEF88BB81BB82BBBF
:1000B0001FBC89E08EBD78940F2EF6E34F2E552499
:1000C000F02D0F2EF2E62F2EF0E03F2EF02D0F2E0A
:1000D000FAE46F2E7724F02D0F2EFCE48F2E992456
:1000E000F02D09E510E00F2EF0E5AF2EF3ECBF2E5A
:1000F000F02D0F2EF0E2CF2EFEE4DF2EF02D0F2E8E
:10010000F0E8EF2EF0E0FF2EF02DF201808180FD6F
:10011000FCCFF201808180FFFCCFE1012991399170
:1001200040E050E060E271EA87E090E00E94C700A2
:10013000F30131832083F40111821082F801808160
:1001400080618083C5010197F1F780818F7E808374
:10015000C6010197F1F7CE15DF0501F7D6CF1F9243
:100160000F920FB60F9211248F939F93EF93FF93EB
:10017000E2E3F0E0808191E089278083FF91EF91B5
:100180009F918F910F900FBE0F901F901895A1E235
:100190001A2EAA1BBB1BFD010DC0AA1FBB1FEE1F01
:1001A000FF1FA217B307E407F50720F0A21BB30B4C
:1001B000E40BF50B661F771F881F991F1A9469F7C8
:1001C00060957095809590959B01AC01BD01CF0124
:0601D0000895F894FFCF32
:1001D6000000060126014A015D018801B801EE0111
:1001E6000B024B029302BA0210037003DC031604DF
:00000001FF
