:100000000C942A020C9447020C9447020C94470269
:100010000C9447020C9447020C9447020C9447023C
:100020000C9447020C9447020C9447020C9447022C
:100030000C9447020C9447020C9447020C9447021C
:100040000C9447020C9447020C9447020C9447020C
:100050000C944702000000000000000000000000B7
:100060000000000000000000000000000000000090
:100070000000000000000000000000000000000080
:100080000000000000000000000000000000000070
:100090000000000000000000000000000000000060
:1000A0000000000000000000000000000000000050
:1000B0000000000000000000000000000000000040
:1000C0000000000000000000000000000000000030
:1000D0000000000000000000000000000000000020
:1000E00080E0E0F8F8F8787878FEFEFEFEFE7C000E
:1000F000000000000000000000000000F8F83838A0
:10010000F8F8F8F8F8F8F8F8F8F8F8F83838F8F8EF
:10011000F8F8F8F8F8F8F8F8F8F8F8F8000000003F
:1001200000000000000000000000000000000000CF
:1001300000000000007CFC1E0202020000000080A3
:1001400080800000000000000000000000000000AF
:100150000000000000000000F0FCFCFCFCFCFCFFC8
:10016000FFFFFFF3F0F0F0F0F0F0F0F0F0F0F8FF48
:10017000FFFEFCFCF8F0000000000000FFFF03039E
:10018000FFFF07037373737373F3F3F30307FFFF47
:10019000070373737373737373FBFFFF0000000037
:1001A00000000000000000000000000000060F0F2B
:1001B0000F070707061CFEFFDFFFF2FEFEFEFFFF34
:1001C000FDF7F63E1C30D0808000000000000000EB
:1001D00000000000000000F0F1F7F7F7F7F7F7F77D
:1001E000F3F70F0F1E3E3C7CFCF8F8F8F8F8F8FF28
:1001F0000F0707030100000000000000FFFFE0E020
:10020000EFEFEFEEEEEEEECEC0E0FFFFE0C0CFCFBF
:10021000CFCECECECECECECEC0E0FFFF00000000CF
:100220000000000000000000000000F8F8F8F8F8F6
:10023000F8F8F8FCFEFBB31FDFFF7F7FFFFFFFFF37
:10024000FF3F7F0C000080C100000080C000000064
:10025000000000000000007F7F7F7F7F7F7F7F7F27
:100260007F7F00000000000000030303030303037B
:10027000000000000000000000000000FFFFFFFF82
:10028000FFFFFFFFFFFFFF0F0F0F0F0F0F0F0F0FEE
:100290000F0F0F0F0F0F0F0F0F0F0F0F00000000AA
:1002A00000000000000000000000003F3F3F3F3F13
:1002B0003F3F3F3F3F3F0707031E1C000000000079
:1002C000000000000605043F044000001F0000007D
:1002D0000000000000C0404040400040404040C09E
:1002E0000000000000C000000000C000804040404E
:1002F0004000C04040408000000000000040C0407E
:100300000080404040400040C040008040404040AD
:100310000000000040404040C0000000000000001D
:1003200000C0C0000000C0000000C000C04040404D
:100330008000000000804040404000C000000000FD
:10034000000000000000000000E00040000000008D
:1003500000000000003F2222222000302826212019
:1003600000040404001F202020201F00212222223C
:100370001C003F2222221D000000000000203F2020
:1003800000212222221C00203F2000212222221CA8
:100390000000000000300C030000000000000038E6
:1003A0000F08080F3800010E300E01003F04040C46
:1003B0001320000000212222221C001F2121001FE7
:1003C0002020203F001E2121213F003F001E21212F
:1003D000211E0000000000000000000000000000DE
:1003E000000000000000000000000000000000000D
:1003F00000000000000000000000000000000000FD
:1004000000000000000000000000000000000000EC
:1004100000000000000000000000000000000000DC
:1004200000000000000000000000000000000000CC
:1004300000000000000000000000000000000000BC
:1004400000000000000000000000000000000000AC
:100450000000000011241FBECFE5D4E0DEBFCDBFF9
:1004600010E0A0E6B0E0E0E6F9E002C005900D92F1
:10047000AA36B107D9F710E0AAE6B0E001C01D9294
:10048000AD36B107E1F70E9497020C94AE040C94CC
:10049000000086B38823B4F081E090E090936C0074
:1004A00080936B0080916A008F5F80936A009091C7
:1004B0006000891711F410926A0080E593EC0197AF
:1004C000F1F729C0B19914C081E090E090936C00DD
:1004D00080936B0080916A00882321F08150809383
:1004E0006A0019C080916000815080936A0013C037
:1004F000B49911C081E090E090936C0080936B0000
:1005000080916A008F5F80936A00909160008917E4
:1005100011F410926A0081E090E000906A0002C03D
:10052000880F991F0A94E2F780958BBB08958FEF8F
:100530008ABB8BBB17BA88BB81BB0E94400382EE8B
:1005400094E00197F1F780E00E94940380E593EC3A
:100550000197F1F781E00E9494030E944902809183
:100560006B0090916C000197C1F780916A00833015
:10057000C1F0843028F4813069F0823070F407C013
:100580008530B9F0853088F08630C9F416C00E94F5
:100590003A0415C00E94BD0312C081E00E9494037A
:1005A0000EC080E00E9494030AC081E00E940B0408
:1005B00006C080E00E940B0402C00E9479041092E1
:1005C0006C0010926B00C9CF282FE2E3F0E080812D
:1005D0008B7F808380818F7E808381E08A95F1F795
:1005E00090E031E080818D7F8083222324F480811C
:1005F0008160808303C080818E7F80838081826060
:100600008083832F8A95F1F79F5F983011F0220F36
:10061000E9CF81E08A95F1F7E2E3F0E08081846040
:1006200080830895282FE2E3F0E080818B7F808330
:1006300080818061808381E08A95F1F790E031E0EC
:1006400080818D7F8083222324F480818160808358
:1006500003C080818E7F8083808182608083832F2E
:100660008A95F1F79F5F983011F0220FE9CF81E072
:100670008A95F1F7E2E3F0E0808184608083089559
:100680000F931F93E2E3F0E08081877F808304EC87
:1006900019E0C8010197F1F780818860808382EAC0
:1006A0000E94E402C8010197F1F781EA0E94E40286
:1006B000C8010197F1F788EC0E94E402C801019794
:1006C000F1F787E20E94E402C8010197F1F781E89F
:1006D0000E94E402C8010197F1F78BE10E94E40255
:1006E000C8010197F1F78CE20E94E402C80101976A
:1006F000F1F78EE20E94E402C8010197F1F78FE260
:100700000E94E402C8010197F1F784EA0E94E40222
:10071000C8010197F1F78FEA0E94E402C80101972E
:10072000F1F71F910F910895FF920F931F93082FD8
:1007300080E40E94E4020F2EF0EBFF2EF02D8F2DAF
:100740000E94E40280E10E94E40280E00E94E40250
:1007500010E0013021F48FEF0E94120303C080E00B
:100760000E9412031F5F1038A1F7F39488EBF8166C
:1007700031F71F910F91FF9008950F931F9380E41D
:100780000E94E40280EB0E94E40280E10E94E40205
:1007900080E00E94E4028FEF0E94120310E081E0EB
:1007A0000E9412031F5F1E37D1F78FEF0E941203C2
:1007B00001EB802F0E94E40280E10E94E40280E0CD
:1007C0000E94E4028FEF0E94120310E080E00E947A
:1007D00012031F5F1E37D1F78FEF0E9412030F5FC6
:1007E000073B39F787EB0E94E40280E10E94E402B4
:1007F00080E00E94E4028FEF0E94120310E080E884
:100800000E9412031F5F1E37D1F78FEF0E94120361
:100810001F910F910895FF920F931F93082F80E46B
:100820000E94E4020F2EF0EBFF2EF02D8F2D0E9480
:10083000E40280E10E94E40280E00E94E40210E011
:10084000002339F48AEA0E94120385E50E9412030C
:1008500006C085E50E9412038AEA0E9412031F5F08
:10086000103471F7F39488EBF81601F71F910F918C
:10087000FF900895CF92DF92EF92FF920F931F9314
:10088000CF93DF9380E40E94E4020F2EF0EBCF2E93
:10089000F02D0F2EF9E6EF2EF0E0FF2EF02D81E681
:1008A00090E0D82E092F8C2D0E94E40280E10E9456
:1008B000E40280E00E94E40210E00EC089910E94F0
:1008C0001203CE15DF05D1F71F5F103129F4C39451
:1008D00088EBC81641F704C08D2D902FEC01EECFA8
:1008E000DF91CF911F910F91FF90EF90DF90CF900C
:1008F0000895EF92FF920F931F93CF93DF9380E4BD
:100900000E94E40200EBC0E0D0E00F2EF4E5EF2EF1
:10091000F0E0FF2EF02D802F0E94E40280E10E9483
:10092000E40280E00E94E40210E0CE01810F911DFC
:10093000F701E80FF91FE4918E2F0E9412031F5F49
:10094000103899F70F5FC058DF4F083B21F7DF9150
:10095000CF911F910F91FF90EF900895F894FFCFE2
:0A0960000700FE1232528C00000066
:00000001FF
