:100000000C9480290C94E8290C94E8290C94E82994
:100010000C94E8290C94E8290C940B5E0C94E829C4
:100020000C940C580C94E8290C94E8290C94E829B9
:100030000C94E8290C94E8290C94E8290C947E5837
:100040000C94E8290C94E8290C94E8290C94E829EC
:100050000C94E8290C94E8290C94E8290C94E829DC
:100060000C94E8290C94E8290C94E8290C94E829CC
:100070000C94E8290C94E8290C94E8290C94E829BC
:100080000C94E8290C94E8290C94E8294357530868
:10009000F8390000789CED7B7554555BF7E83AC45D
:1000A0003974772320DD201DD2255D52D2DD25A9AC
:1000B000484997944883747797344877492B2808A0
:1000C0000888A0F20EF77EF77EF78D5F8CF77BE352
:1000D000FDF9D6196BEC196BAF3DE75C73CDB9D662
:1000E0003A7BFB00E42700C0A60060170632B80088
:1000F0005EA4116E6F6F251031E1602A0A00760050
:10010000860C0745C12D0103FC0A01CF6FAD9ABBD8
:100110007F0521031F80DC640AFEA04108C01FE5A3
:100120001642F7A9691CDCA2E2C0110438231C0A9C
:100130008573019084E3515028329C48796DCE0F2D
:100140006EF1E2E1BD22026408FA232D1AF547762A
:10015000CE16B62E000AB0C002780CC146A040945C
:10016000467243C6C1423903F7571C73C147A2D137
:100170002E5CFD0242F2DC7A33195E5A1542B23728
:100180004C00B551B5B65595051634753D7542B957
:10019000DFBD6ED0717823E3A5694E2633846A955E
:1001A00053C3F778D54D8490E7D48221984B3B49CF
:1001B0002114A0BC5600AE29A6C034A853B1D194D6
:1001C000C5F104ACCEB45589677DE22A6571F11C96
:1001D000F7952A6B4624BA02282C854050A9067050
:1001E000499AA8E109EFC92548A7D9F2A5422433C5
:1001F000377123937493DF7B337DC3D5AE92844CE8
:100200002523BF1E25F0F530B39E774F7273F1AEF4
:10021000F09A66E62B951578C8D12C35D9CF1CF508
:1002200053EA9973E51CAF24C0C13CE42CCF73BCE6
:10023000D1403E164799AB5C944503904E668025AD
:100240001C0AD0DC25C13A3159C5EF24949536F407
:10025000073E3C67DF21F6A5B5922055279A6263D9
:10026000FCD3FD613751BAF1BD572658523E0B07FA
:10027000F3492187292715F9B96BA792F8BDAE1369
:10028000A5B58E598F47A84BA523EB7A70E351682B
:10029000D9C84B97EFD7447A96AD46BCF38F4E1A28
:1002A00051AB933CF52373EAC7818B10A35F916137
:1002B00003C1A29D9D697CA7200870742F1A63E773
:1002C000ADA2BE4D2B3CE563306F2BC6CDD08C4B21
:1002D000913927A5AA14670148D02584FBC550325F
:1002E000E535A2D292179240270A6090FDFC283C87
:1002F000FBDD54CBBFD19C6B96328228EF370028B0
:10030000E8839F39D1A53BF46BCA32121200A7F2E1
:10031000A057357A2BEBD56C3BDDF8FB0A1CE2AE1F
:10032000A9D2B0556A6C74E97623DACDB4044E16BE
:10033000272DF45E5C8EA52B1FE3F5952D60F29AB8
:100340008E7BC8314094E3F8C8F565F03DC94E9303
:100350008BE0B845141F86BD3F6E0AC2C1FC12DC9B
:10036000E862BF5DD65619CD54ECAB8F4C40546E4D
:10037000A0F10000172549C4D03C8090690B047699
:10038000CF7B217E2C8E8C44B8DCC95CA129CFBCEC
:100390009C2187A5CC2FCB1222DE75F510C96EA645
:1003A00034FFA95FCA1FFA9199B0E6E80298BF63CB
:1003B0006EF3BC33F7D3C792D73ABA883D80344C3A
:1003C000124266BAF1D4C0FE239ACBC0B186B161A5
:1003D000F9283232CB091DEB78EB63E6D6748052F4
:1003E000E733CDBF6524EB9FAA5C541A7DF1E83E4C
:1003F0001D44AA09EE48F8B0A1D1D252548070DE53
:100400006AD61C769DC53EAFC34F33054C3E566C35
:100410007094B3A9AEC5BE1B365F74F2D2C97B50CF
:100420001AFB92E771CC4DD774CAFBA5B8385BA50F
:10043000012F553A96B7942C91737C9DDA02A64110
:100440001DFB3A7C2EE8172246BD9B2F6C1C6D21AC
:100450006EAF66C27D729DE048EC0F13E243F81068
:100460001E4C30703A440579E51A61A355BF698E78
:100470001F7361F3619D945D14EE3F4C939755B4E7
:10048000B5C4C15FD792E90C3B46233CC1C15B6C4C
:10049000416DF659111D4D651B0842E8280138AF22
:1004A0003800421605E0B7AC2A372F12E663B7CF03
:1004B000BC8820EE01A516C8EA6B98746D02452A27
:1004C000E8CB02AE9EC59E364803B3AC4A38EFD1A6
:1004D0001A74D05E99C1CDFD9919A0B7FDE9ACD3CE
:1004E000F32B9DAA8FED97C99EF54282E9166964A8
:1004F00039CCC601B45501B8CD9B022D5F00136CF9
:100500002438526268E463CCC87E317EEAD85766EC
:10051000FF3017744E923E129D93C4B7322A0C5A84
:100520000B6CA3742223E96862F8F532C5E0FED2B1
:1005300061A63CAA2622856755E0E21B80877136BA
:10054000ACB792BC30C68C5244287438C993DBA82F
:10055000C549348349B380829E633B329A8F278A90
:100560007A768AF665F82D3A328ED4EB5096388238
:10057000F14AA16505F9E473E13A4D5AD3A03B3342
:10058000513305385CCDB0B745641E46B72C472EB5
:1005900043CA98653800A24221E0804F6BE6C12033
:1005A000C4676A87CD522F9A93CECB3776F8D80896
:1005B00072D1AC6B6D6992DA1ADA34D2EDB550CAE9
:1005C000C27333E2B8FDB2507589A60C4AABB07065
:1005D000E953CB6AF64D3609B51C0F7BDFD16A169D
:1005E000E013E2E1A4A2A02FD598155508A5B923E0
:1005F000842EB5B5729D682749FF9296597E328246
:10060000B335FB164DDB66705C457159438D5E5208
:100610008786FFDE8B713DD3F5474168E47E7A7AA9
:10062000CBCAC35EF8D63A47A42D44B90A61BCFAD6
:100630000D3807C606FC2C154291183AF678A42C02
:10064000BAEBAAA105D19B3ADA6BB0E4C8A8C660A0
:1006500044247215FB38BBA8338F4054BC821E9EC5
:10066000F206BC495D4BED20E8FBF8382B218545AF
:1006700093CD4678CF00E148AD3F49B93ECBEEA6D9
:1006800086298965C820FD934F19213CF296745A3A
:1006900087F8A9205C7892EAF0D3D2C05DF3FDE53B
:1006A000904EAEF0A49C6F10D8536579CCE415EA57
:1006B0007D13A0F1FC399E04B80BCA00E191C05D26
:1006C00034EF9142FC9F43B77851300090E0911D88
:1006D0004FCAC5C5C1C9CC9946CDD19246CBD3D757
:1006E000D10A600032782A5801BC1071845F08A1D9
:1006F000888A488D48FCC858D032282D0C1E2417F3
:10070000F984FC6919562E8F23EE1F85A659D2B79E
:100710009917D41EADD7247D0AAC5A6CF6166B7FA0
:10072000BB001FDDFD427A457B4F49A06DC157AA32
:100730008651D2457C581B00F76254C10A80667905
:10074000486BCB32516452212D5E5615734D041007
:100750004AA200DAF6045AB9057FFDF5D3F28F9765
:100760005E006213D503B1DE7A61339A7F951DA6D0
:100770003ECE9222CD41F947B04FDAB9CF6F0ACAC7
:100780009AF99BAC74D34D529A01B25E0220538900
:10079000D539778D9504BAF0C4A19BD08A32AFE1E8
:1007A0004E87C0059015E600F2A9AB4EF48E0B0003
:1007B000E5BA2870C93E55D02B06EA986802222E69
:1007C00051DC57A939AA165E74E93CF77B2053D552
:1007D000949CCC07BEFE45E4C2443C296B009A566B
:1007E00094F5365340B914233301687F25311761DE
:1007F000A19DC54C6178D94F00EBD6F6A10A7D4981
:10080000E9A4A47F104117E22E76973D0E146BD613
:10081000ED4DB7CDF942C94ADE629400BCBE5CE042
:100820006E6FAA38FACD51E3B011AEE431405B5A95
:100830002F2BB7F06E5C6566AE9AB1057251924887
:10084000920678F6F983236F4F960F2B58DD9A584E
:10085000A95996300200FA7009E05448E5B1CF5723
:100860001D29FCB25EF62ADA93D407B04A9A02F444
:100870000041A5D4AB8D20C80B786AC287721CB624
:1008800070B5B28106B861BC0FBFC9138E5AE7D9E3
:10089000E6C162DA82673608B85187A74C91C81260
:1008A00020BE1CE1D6453B56C3148039BC07E13B52
:1008B00089BD0B6D00805D0741FAD409D0C25B1C75
:1008C00012A7BCDAF26BB610F6DE33FD2EA2A156EB
:1008D0000948641E8CF80468590034F1811DF3FD49
:1008E000413B111C25AD9A6B7B4984D40440002305
:1008F0007B2BE9864059CE245D4683E09A0B425813
:100900004657AA88B6D1D5B7B11A8C9BEE4C516226
:10091000047B5944C4E2835D23AFFAA994ACDDA7FC
:10092000A78527E53404AB51BFF0B3F656206D69B7
:10093000126A9D178E928DFA759C2442990A400F77
:100940005E89AADCB1692A402C5B894102686D1579
:1009500080589B9B289D155E09E1F87C2140C420AE
:10096000BE57FF8A1C05A02F9400EA1D2BA2E0CAE7
:100970006403B46D59FB72337C7AFDD0F2E19A6066
:10098000C635004F663CA76C0CACB6800EF38512E2
:10099000D712D2CAA4E6A38A13909D029007ED074E
:1009A000D3754A57CC9E0188CE31801613851944E1
:1009B000180090A4031054091FDA6A6B0DC40403D5
:1009C00048305CFCBDDAC25E7F12AF2FC167792C64
:1009D0004A0546B4EFEE25A1F010095C1EF854A3B9
:1009E000C6099BAD46D3DE68460681B5E357CDEC1C
:1009F00092A85E3488459EAC798B696CAC7DDFB182
:100A0000DA4F6AB41DB170809C2A50A7C2D1C6ECDF
:100A1000C743A1D26479210D5F5271126EE9C9AB4F
:100A20008868060370723EDBC137626F850C4D7FAC
:100A300022B531ECA083873C9AF8A876A992E3BA54
:100A40002D422F505864092EC6E63BFADE40A25EC6
:100A50005F9265FCAADA350D1DB7B7BB8E974D5A6C
:100A600056AC56147B73D31C8A284130ABCFED862D
:100A7000DCC3D5CCE63D20C69705E798C6A79F19ED
:100A80009B8204683A1BAE4F6D64B3467B2AD8B094
:100A9000971482C7AA076D4C2B5531E499C521BE26
:100AA000230A40884DCFE11EDC8E9BC3CE9996CEA3
:100AB000CAD84C74884341E093224BB20FDCABF2AE
:100AC000985D33842C94A3A2BE71209F6D08B772E9
:100AD0008BF8EED8C9B828911B731DF5546B56C31B
:100AE000E5FFF6AA83375C819F66AC11A045EEE076
:100AF00085D1208CFA6385896784A9CC6ACD8AEE7A
:100B00001D038A54AD224AF8D260B3A2B037802CBC
:100B1000E3C0A74A99F9D12EA0D4E75153617724B5
:100B2000D3BE364B00788CD1030441485F70C30AB2
:100B300077ADF24BF21E168AF205C1EEEDDED9F961
:100B4000719BD96A22BE662A000D97F8957C0368CE
:100B500056B40E7900BD7107739E06A1DDCFD94D45
:100B6000BCCF5870446B5D2C6CE5DFCF9AFCFB5911
:100B70001A326CC0A537F914F1BEE25B797A4B806A
:100B8000451CBDAB0DB081A5802A93001DCA1CEE8B
:100B90008B1D1AA05D1C04ACB3649559E694349F78
:100BA0006B6B3CFE243C9F353F8EBA3A498646E04B
:100BB000A76B7DF0D259564C9A069019251FB12586
:100BC00026BD966CCC03B8C531F4C900C7E6519276
:100BD0005A66924E7DB25DE6EE2670D79848F7BE13
:100BE0001BB0A6C2DE409C69CDC920C439BCB9CEB9
:100BF0002DB681F80BB6A05BF27052C516B320C8B3
:100C0000A136C070721FEAD419A42AFC816AE3F5E8
:100C1000868FD7778B5D8AAB8C6240FBD80A313DDB
:100C2000F6E1381DAF24EC9E3E5C7FF4FC8E7588A7
:100C30008C806C8777B97B026840081ACECCED3285
:100C40002065267C68870AB0642133A72678A59E94
:100C5000EF9AEF39E69D038C3877EF5485118E4279
:100C6000529F20887987996E2E8815C1440B9CDB92
:100C7000AEEC2FC0D9AD0088B153C8EE4FE2D2859B
:100C800091F7BA9885BD5B1C6A11E6EFD3007CE250
:100C900024CD54C1E90763C949E32D805D9606E17F
:100CA000C839E64275638278274FA77323CC411277
:100CB000B2EC7A379FB71A0B16FC080A22493EFBA2
:100CC00088D9F59745B5118C0D2F29C67A45F7457A
:100CD000955BB17DEB68137EB3AE58E66D54F4D3EB
:100CE000110309304600BEA12861B31660DDF1444E
:100CF000BB10B0995AB23392B263430F26A1720966
:100D0000F98985B0CC1EF0D718BFC878FB1840020F
:100D1000BF303EB18B493A9466A40784160BB703E3
:100D2000005976C973CE9B92FF0A683D03C8415CA7
:100D3000734B88982144FC26AE74645FF28C2D1CA2
:100D40008C3B62DD6CB8EE8C8E4CDF1B40BA7FE0D2
:100D50005339E2F5800978995A89715945A8AB450C
:100D6000A80342ED2048A150B25E92DD9BFB679A3A
:100D70007CA173D19FD78010BCEFE92297B9738E05
:100D80005F364130A4B7B3581B68319E1D3AFC1141
:100D9000C02D8F5D359F6225B2D3FF837EF14DDD7F
:100DA000D3ECEFF53A1DC5CFF49C0F6619DBB468A0
:100DB00096473927DC8910DACC96002BE002DC401C
:100DC000100881874016280215A009B4812E5057BB
:100DD0000EC59BC3C4E09AE2FBF35722542284421F
:100DE00023C9EB288E240887C07FFE03E0399E3F8D
:100DF000B8CBC7410810F1BB144D2C8188C0C90382
:100E0000C013897678DA7EF007ED0EBA11F8EFA0FC
:100E1000DDBFA177FF0977E26F88EA3FF6778B475E
:100E20000E5F1020C31704B0BDAAE8DDCE577F6C5B
:100E3000F3C8203B086F11BF21514221F0CCBFAF56
:100E400052AEE2D33742186246C3059B5A2484CD82
:100E50001A11A6956B96099B06E7EB2011457A239C
:100E600037EB7DC1ACD3311058A2E1D4485434CC17
:100E70009AE2D0793D322339F3A0F161E11AB2D57B
:100E8000410A615A11B2CEBC36A19E4E0DE1D1137A
:100E9000D3079070561ED3A0C6F7263487A60A98AB
:100EA000CA34DB1853C08FEFF86BC2D89A57852C21
:100EB000CF97C201EB8CAC2DC132DAC70F5868F85E
:100EC000E2999F363FC8623DEFBB2FACF2B2EC5ABD
:100ED0003042A545826E6657929358F1DEBD1A7571
:100EE00016C31B54FA6A78BDD4F42987D77A94695B
:100EF000674E4D6E03ECD212FACFCABAF49FE540AA
:100F0000FE5E4AD0E85E10A8672C4856FD41D439F1
:100F100064D0A6C5A96448692D620579411D76B1E2
:100F20002876F592E521D212E6BDAB4267CE90F964
:100F30006F258162211934851EE658C6AAE53F183F
:100F400055AB52C6D9EEF66987173446F6225631AC
:100F500058160A851E7C611A61A55A4BBCDD6A874A
:100F6000BF7F4D4597B9E2C74EAD217CFB49ECD21E
:100F700096F16A5297D1F91343C886CEDB900D05DE
:100F8000854B64F9AB6DE95F1DC9B9D1230725B263
:100F90004FCCF2F5484BE78D9A8AE5C289DC9A334B
:100FA0004753EC3462AEF23B265BD065557ED88465
:100FB000EB64CCD59556ACF17C34B41C7681F2B69A
:100FC0008DEEAA79B5CBA89C7731CCF52490A5E419
:100FD000F513BB824F1E68CDAD8415BEBA65B5B2A0
:100FE00006DDC000BECFCAF9C2371F04A1A41A7D16
:100FF00060659CBCA4771E9A728213B630433BC4D2
:101000007D9E5E6EDBF409CDB77474D4B7B4C74768
:10101000D221E37EE9FAD75F039B26F3CA68CDD1DC
:10102000753A009141401D78335C272F018CF0B94F
:10103000C2778EF97B1CCC8D541EE5BAA39D86FA2F
:101040004108E942CC614F5476722214926F0A2310
:10105000E153487645EBEE20A1209BDFDE43668E10
:10106000AEE29E85249BC408C6A1E723454D6FCB05
:101070009065476435AB5A65D21EA39BB74155EEC8
:10108000C183E33D6665E95BE10392CEBD10B7E243
:10109000394EDDA0710B42695E4296B971EAFD627C
:1010A000AF0456A6724132694FF4ED722A64942B54
:1010B00054FB09A140B30C27B202BE060B840DD528
:1010C0005A0D579DB344965503A130DDE1DDA512BD
:1010D000524AB591BC5253FD17AB6E65263032B300
:1010E000ACB28A71A1681EADD18A118D3A4952E124
:1010F0003C8F2CED2203CFCAB58BC7861DE7419CE0
:10110000BAEE53D11CC2F0182FC9507317DAB60FBC
:101110006805ED6DAD4D0877360ACBC46463EB4AC4
:10112000F5579980CAA824D24212615445C20233AD
:10113000CD9AB3FF2909C29E576BDC6986F29B8A60
:10114000CE753BB4F0D6FEE2C7CB9CC78EDCBF3574
:10115000870567F90045BCD640B2FDDD64F22A057B
:10116000B010D37BCEE5245D84C4039598DEA3BA8A
:1011700064C7A32C06CA6B0E76741DF69973E88BB0
:10118000E906322715EDA52F68F8D94262792521A5
:101190004BCD934439AC0022D86D5AE55CF9BA2E98
:1011A0002570EE1C20D3FA0CFDDA6C937FAC197914
:1011B000DC6C1B61FCAAEEB4FE4D4647BEF15160EB
:1011C000933250279F02485FB8EE34D8C1A539B397
:1011D00097B5CAC591E128114FD82C13B54F111BF3
:1011E0004122BC5FF850D381509765A9523FEB1163
:1011F000C58E185F50ABC3FB3A51EB89FDE5D2C5F4
:10120000C71BA51C1ED355DE8F2CFE9422022EC5B3
:10121000F07B51C38E4240AFCA17D9568CE7AFFD61
:1012200084D8D666514723C7383F4C5D80F49EE68C
:10123000574D5901840B0EFDC00E5CF3EAFA61A311
:101240007177B9F295F05141D9076C38C439929D44
:10125000BD772E99FAB01F3917F4B2E2247DC3741A
:101260008D5516C4A3DE6ECFEB6E4DD815321731F7
:10127000C9228D2DB3B249169FB982A5A8B35B5B75
:10128000907BEBB177543DDC686A8372B2F27B2BC2
:10129000A0B829A8BA689179E5DA117D7E2ED7BA6F
:1012A000757F8AD33750DEBF299D62B671EAB3ECF1
:1012B00082D5C473AE89910AAFF2CAE41240A00E7F
:1012C00070B67381749C913ECBCF717D9636EAF6F1
:1012D000289913DDAE4A55AC68FE94B868FE9C9A16
:1012E0003262F32B11C36975C05E800060528EDAE2
:1012F0003792B974E4A752DC1049CD14811D6643BE
:10130000DAC04775A4F853045A122F2441933ECDF6
:101310009D3FCCC3ADA98C9C8B47AF5BA28CAB9F90
:10132000D5C99302994522382F14553BF43265995B
:10133000AD8CCAFA32BE63CA12D449021D717E80D6
:1013400014B861398674FAC62263B0DDD8B6AD49E7
:10135000684E8E74993FAE082968AE0E8BEF3D80C3
:10136000D1859E3A45054132EA32274AFB1B75700A
:1013700052BD1809B9B433B52BC2E68FE05BC6077E
:1013800013CCCE0ED2645EA52C641F85D39B2D9FFB
:10139000B222F07F0EF29DFB0AFD2D3CB99BE3D5F6
:1013A0005D50715E99F22FCB929E804F81E8404E46
:1013B0007DAC31BF997525B8A190222E8E197FDEA4
:1013C00070AF8E4DF7B3BAAE5EB43A6286B9711C97
:1013D00059F536A6EB653E5AF9653E8A8828E4B091
:1013E00029178D16DFBBF5FBEE910108D74646881D
:1013F000D77E4B85A1B582AB5FDC468F1B7DAD8B65
:10140000F3F91A69457489868B0DA7AB6DC75E80A9
:101410009086A717E51E9736B54285CCC62F258A3C
:10142000E350BC1E4DE90A5DBFCA946BFCAAC5859A
:10143000E5D4BB8DD4F6AFFB628E10C997B9008F8F
:10144000A806208548D4088C958BDB33561C3B3B83
:1014500090CD3D6DBCFC04F187BAB451946F3788D0
:10146000C182C4C340E95321576701A957C66E41E1
:1014700048BF2F5ECBBE1731C6AA2FD5343AA4ABD6
:1014800038492BF8CB1137219B2F8BCBEF2B4922DF
:1014900064176EF45552DCA0C89C62E090A00A3E2E
:1014A00029717B9DA194D4DB02B5932F237D4BC082
:1014B0005E7E52D2C0F9C6972FA372777A58A6FEE5
:1014C000CE0BCFDBED96BE4D12508BD046EE04D046
:1014D00070DAB357D737291A4D3FE0FB6C4898357F
:1014E000F1887F6258CBABA852A684808A0950F459
:1014F000D5008A379768E07070757DF61965BCE88D
:1015000081EA448553AD4E605814805A9B0681642D
:10151000930FCFF2A2BBA2BBA38F53FEDC7623C3F3
:10152000B7DD270FEEA6F93B78F6FC1F43B7087727
:10153000691E0A7C205E6292C810F8261E092D0ED4
:1015400011DC02300ED9844018432390C02604C118
:101550000392921B817C07C98799E0FC4143D7B174
:101560009F2F357E4193B29282A2F25E8CE0FCD531
:101570009C9AE49F6D0442B3712210E110924028BE
:1015800015AE8FCED61F64082CF40F2202631815F7
:10159000CE9F14E250D08D87F18700EAE0AF1209A8
:1015A00085C2E0042276DC92E7A8BC70020C3C59AC
:1015B00032CA315D0D8ABD8704D82077E7C5FF6A3E
:1015C000CA04EC80A82B8D99A39D8DB3D83D472BE1
:1015D0006BCF7BE2A29CAEE2FFEA150614FEEEB5ED
:1015E0001B7A774A7D1F054EA42AE860E9B170F1A5
:1015F00072F6F40192E016ED6EB9E36EE5E169E68C
:10160000EE0922A0C8C87747CD2892927FC2E4E7AE
:1016100043CEE06F78B03DE8DF30CABFE1019D7F87
:10162000C3FDF970F8E51D4C7A10DFF33718732EFF
:10163000092410C411E0D22FDDAE026900454286B4
:10164000222341A1C850180C8A82868386868A8A02
:101650004680858D81434C4042424C40444446C9BB
:10166000404D464E47414444C34643779F91998538
:1016700099949A9D8B9D898B818999E9AE13080C69
:1016800006434341C34743C36722232263FA1F979C
:10169000DB7E400D000419F247F9CB58100444B822
:1016A0007030145434747883461C800041444440A4
:1016B0004244464642827303E17C80848B8C47CB54
:1016C000FD108AAF6106BBE746C0F322310F854E9D
:1016D000AAB6975073FA849ED7DC3D18158D88986A
:1016E00084948CE13E2313330B1FFF0301412161DE
:1016F00069195939790545252D6D1D5D3DFDC706D3
:10170000169656D636B676F61E9E5EDE4F7D7CFD6C
:101710004242C3C25F46444625BD4A4E494D4B7FB7
:101720009D915F50F8B6A8B8A4B4ACAEBEA1B1A963
:10173000B9A5B5ADEF5DFFC0E0D0F0C8E8CCECDCFA
:10174000FCC2E2D2F2CAD6F6CEEEDEFEC74F078763
:10175000A767DFCE2F2EBF5FFDB8BED30B021021CF
:101760007F95FF542F5CB85E0848488848B03BBD61
:1017700020084FEF1AE02221D37243F11E6AC0CC39
:10178000DCF0EFF1BC4021904ACCABED45A5E3D5B0
:101790003C2134779F4623A2E7DB6238BD53ED0F2F
:1017A000CDFECF140BFEBFD2EC6FC5FEADD77237A6
:1017B000C40FEEC928775EB4097094E414E5C09DA7
:1017C0007A7FFC5D72DB037051E04E7F8E08B907B3
:1017D00010702188B890DB15808108812388B8407B
:1017E000025CCBEB9DCA8514289C1E664CE4D8F1A4
:1017F00080F704CD6855B027ED99BF53222506B078
:10180000917B149EE318705316607CBC0594D02E17
:10181000FFAB935743A7D4EABEFACE812D93D44CA5
:1018200088D4796A0BCDCFC802646BA7455989B2B9
:10183000182A2BDF0C08D31FB1F77E70B5F4C666EB
:10184000D2CC3C1A0D460F9C729B25807CAEFB6966
:101850007CA2F278BD7C584D70206590FC93B7E96E
:1018600082E3070A51B20832A1EAA2091F6573EEAA
:10187000F8EF354247266ADBCA0D57216507199DE7
:10188000BD2D4D38863D4A8D99AF585F539985845B
:1018900083781EAE1C0E1E925BE081109EF7346FA3
:1018A00079F8E483E1D22A7DD428C5018953C51192
:1018B00045ECC8CDF069122AA90417306507FECFA0
:1018C0005F7671FB78182F3A9EB7EB7B31EDB73D11
:1018D000E710BA1F26E5DC4B834792ED169735E4F7
:1018E000EC30FD79EB8DB16BEFF652634B4124196F
:1018F0006B7F1BEEEAA0060EDB8B9332C59E9DBC70
:10190000EA560BAF44C21D2B4B53B4BACC606C37B4
:101910004974590275C87F5BE5BDDC30DF3634138E
:101920006B0E61763059263D2661C97F91D49F0D9B
:1019300010331751ED4EE37B88F51EB95047561210
:10194000F6D23494D22BF60E7DB042BF9E823D97E4
:10195000B539F0DB482997A19F6914615D9A946BB2
:10196000CEB2A4CE786540003464FFAE906FD44709
:101970008209CB57F9E42F2D35F8D0544F7FCAF0A8
:101980009CAE9D9254D3CC363AE1B173EC53CA74F9
:101990000EDCEC0C67538ED2012AB4C43855DEC479
:1019A00025D338C56B91CBA89306718685007CCC76
:1019B000BDED257D452F51626229B1F1D6783F3FBB
:1019C0008C8038218981A9C5309FB4ADCBE8829F36
:1019D000EAD30162D0728FC0820D3E2AAF7E5BA433
:1019E000E8D665230E8298D8D64F7E5350362ACE3D
:1019F000D6E617F79AE6AB73C32CF4A769191082E1
:101A0000067A762849D3E355B25F97E17DAE51A4BB
:101A1000EC7061588B44B9C7E74DCFA1AA0A3D8647
:101A2000D0EF77F26E2FBEA346F179DAFB51E36473
:101A3000FEB2DAC3278D993CBA4ACB6C58A88F0303
:101A4000CBFB168479FD0657169B8FF47AC9C4F632
:101A5000F643CAD7ED89536DCF8693860BC699C7D7
:101A60003828387887A9D373B1918C9DF9B522AC09
:101A70002C4718E931B02B033B4FD2B484BBDF3D78
:101A8000C13211D870E08B8D14A22F1EF6F87AB6F1
:101A9000F8FE16D40F85F1517A2F3E11FEFAF28D21
:101AA0007EC68A820E5A2B94BDF7DB4FE952836BB8
:101AB000AD2DE748EA97E2D4B67EDA9AA4A2D1AE79
:101AC000C69113C6914F7BCFD786A8E62073D377F4
:101AD000767E22F653F3AA7B9B1ADB67FBBBCAF424
:101AE000C294C12A9264BD6C4BFD735C46A1AFD712
:101AF000D846731BE0AA78279ED8DE9CBF7ECAF129
:101B00007C37116FFFD2DF3758C6284C96BA933C0A
:101B10002B3D8878EE9200F2754E8FDCA5CC210922
:101B20007C583150C424137E396B152F92D06DB779
:101B30009A1F92CDD2D81DED2568D5AC3C376BE508
:101B40001F1DDE1827D83F9DC3A5642E645A950B30
:101B5000953B16FC2529D2C6DAF3F516D846B07F98
:101B6000C435B04D3844A3C3B00E3F53986B966A4A
:101B7000F1793879F0F591DA8AF007373C1F7B8DDF
:101B80009089D5795177DED81CB58920B1EBA8931F
:101B90004FDDB69524A71C61A5AC1E7D1D36D9AEC0
:101BA00042745D12883916C2CFA6BBF059DE9EBFC3
:101BB000F7D5DFA1914625BD05DD0D90236DBDF85C
:101BC0007737523E42135498D69CDF8FB46FC127AB
:101BD0000EFBF9E6A16E44951EFEF5739A049ECBAA
:101BE00038C9C99BD6EF1261C0AF91F0E51636D166
:101BF000A76CAED9BDCE93BD938EA6A8270CAB63C0
:101C00003EA35D534BEF82FCB83E92548E02A6FC7D
:101C1000C4081D3655407A3F48D4E13277B1BBBE87
:101C20008B626DA9A0264D235BC4AA87C609E6FF77
:101C30003B3A7EE8F313F27AF163ECE14035FBEFD7
:101C4000CF57CA8D1CBA890E32F4C6476C9CAD5C66
:101C50008782CEB2DF358F96DF8240BDB82B7FC939
:101C6000B99F8F2A0D0FFCC492D388EB9B10BC81C7
:101C7000973563504129E3F51454D2B4CE598E659B
:101C80003398C455BECBA170A6C3773B8B1CBDD87F
:101C9000E795DE0B7093E3E0FD70F53849DE45B55E
:101CA000AFB181135195AE654E5496A4797633EA5F
:101CB000B1684372AB75649F60820C7D12BDAE0447
:101CC00037F324221DCD4BCE77B7E0089B62FDD3BE
:101CD00065B3EEB573B6B232E54441171E714C7F61
:101CE000BE64C55929030A707FF916381F4834109D
:101CF000C757287CFBFAE5EB4B3AA7F57CEC05B11E
:101D0000F07676BACBFC2E158EEAAD31BB4ECBC643
:101D100016DBD3C52B7D8166BFC9CE2B88F329DDA9
:101D200081C1AFA1AF6482D3367548DC5E24B4A113
:101D30002188F471F2EAF24501EF86BAA0AD278658
:101D4000EF287FBF2D5A1B61762D75B4E20CB3D6F8
:101D500054BD9A33E5E13951E3839C1725DE285DB4
:101D6000897F35FFF0F87001436DFC3DDA70488ED5
:101D70008EB9DAAF6F26955B9C84B65D1C33B7A035
:101D80002140E439E55E89798C36A1A5D9724A10E3
:101D9000CBB3FC6EA1A7C81005C1AFD98DE78C5F8E
:101DA0006AD9AE8DD2F4DCE4866EA4CE5839A48E06
:101DB000584AC69718F78787C543D632D5610B04B2
:101DC0001AB2C0F22A699E83FDC8EA557253CBE36A
:101DD000740AD320149A8F71310E7BDD91BFF9679D
:101DE000387E0B7C3218289C19312BE0EFD0BB27B2
:101DF000780BE284B20A9704273706FD77624E9F7C
:101E00003CFE001692C20F9ABA58DBAE9CB68D0DFE
:101E100007DA3AB38A72682C5B5326B6CE82F41383
:101E20009E06627FB2459C7E6E1B4FFDF8B00BB7DD
:101E300076BA92E8B9803A8EBD8292290AD6597B49
:101E40007D9CDAD8902359FB6675D4421B676F3AA4
:101E500007DEE8A1FC8C68A7D02B570445A5241405
:101E600089F55DAAE774833E93911B3873171204BA
:101E70003E0E0AB347D90E6F8CB1161674625CCE53
:101E8000761F6D86D3E521520696EB195C3954FA1C
:101E90003CDF72BC664CBCECD4FDAE1BB767DE8485
:101EA000BCD45F0B5461056EB7E0732E86CB7273A2
:101EB000FF64C1E1757804FBFA60016AF21AEC165E
:101EC000E8EC0ED00A517ECBEE6AF9BCFAE96BA8B9
:101ED00070F3E550906779AAF9843924F2A29AF652
:101EE000CAE1245EF764F6D136FBC3A8C94BF208F9
:101EF000DD693A4E261BE38220E1C5D2008293CAF7
:101F0000EFA11D844E166512D7AA4F49BE25929C9B
:101F1000E7625D4731E56247FEE64D4DDBCE8988DD
:101F2000DBF65E731C3EE612F9E5CE2ADD9B669079
:101F300092F66E7584EFF505A2B74BF26A2FE51B9A
:101F4000654882A8C5E8449F40EB2B3A241C0DEE5F
:101F5000E0BE5A71D696F6D3FD56C1B9BC70CB4ED1
:101F6000739DF90905342188C2213629DCC3153D4A
:101F70008AED522F1F5CC7A5D0C9D3243AA38D5137
:101F800004A1DE4BCEA573261E0FE7ED594F7095C9
:101F9000E4836C286F93EF46F77F494BBBD43870CE
:101FA000CD0B235AE0C1E76A55DF2A181EDBF21D6C
:101FB0001AF5B7E077D13AF5B0C31FE6F47ABD6CF5
:101FC000EAD5DA1C9BFBE2AD8DDD5BAB4CE64855F8
:101FD000051DF75612CE91919D49E79F764F3DB072
:101FE00072E3A992553E59E8DD68C79C8687F68C56
:101FF000A38F2A1349C93D71832159BCD0F969586F
:10200000B57E95BABFB1FFE5A0269DCEF2D740DFE1
:10201000B393FA8E988FFB230C99B7E0FACC16B1E4
:102020006C812F10BF1FDDAEE4834F17C957E72F18
:10203000CFA6EFB5F525F66CE57950CDF74AB04D52
:1020400000449102B36CD6F4535878C391F0F47EF7
:10205000D382B92B3F6AC5DC684F793FC60BAB51C1
:1020600067C1FE8020722AF38F207625555CB8BDAB
:102070007EAE81BC61D6C9B970E674AF6211F91643
:10208000EC65E25206E1EEFDACC1C07E83BCF41DFE
:1020900058DBAD6C35D44F6F3B89EFBD514B3D9D47
:1020A000EFFF796F4D0EC7F7B1A67A1EF95CD2B378
:1020B00067FE53C894D4EF42B49A6B3DE710E43DF9
:1020C000CAABD26DB8B85F4843221193B0AB47A5F5
:1020D000B2B33B6C1537594B69E7ACA2357A9A5AC3
:1020E000A3243E18A6CFB145E3A3D2FFE852419501
:1020F000D3DB376BD8456B74DB767A70C48F521D97
:1021000020E67DBA61AFB1CEE39BFB45D693BD79A6
:102110000F8830B92A500F0D8215DFE704C6868775
:1021200019F3EF7FC56531840A8818380440D13926
:1021300080A3930E093DD12094473217E934EDE591
:102140007100F75307CAD94C2343F40676D238C935
:10215000F665714BFAA33D92383FDCA95D4CE69FD2
:1021600088016D47FB89D0D2B78F7CED5B3D28E2BB
:102170007A33476AE45AA4D318AFDCA6C8763FB8CE
:102180003DECD4CFFFD9F1F1C524555F15A685CE1E
:10219000E3D0B1727B661A2D1237F7CDB28B152CB6
:1021A0007718692E76EE2DB0B8597050C37FDC4E8B
:1021B000816A96A53795C2F2E11A6D71DAEBACFB34
:1021C0004BA47071F4C598D16663F0306C4685FA03
:1021D000178ADE3C01D01688D1450C8949689DE0FC
:1021E000CEC868E98E26FB664B85BAC859309C84F8
:1021F0002E4567CA1B49FF035F680712956322AC2F
:102200000E1BCCC16B0C3BC58E6B3C5212C024F82C
:10221000EECEA6224C927024FDEAF768885177BA78
:10222000545B2499D8E7C6BE4C2808093914849D0C
:1022300050A588463DC82ADC3CCD7131D26613A436
:1022400070A6BC813B4A09E2E24FC62ABB7B7D0EE9
:1022500025014ECF8B1CF6FB6506AF2A6AF9AAE969
:102260006754F43B64EA52AD44F4B27A326B57F5EA
:10227000029EEC8C95C30C87BA661BC7185BB87AB4
:10228000DD4C670C8C542A12D7F85AD73614A14F5C
:10229000D8820A5E26FAD02F460D348F930AC20ADE
:1022A000A8728AC5AEA745B15DEED31B778693D3DE
:1022B000FC42D9E904FE0B993A48069F7DA42E877B
:1022C000D462264BD71E44FB0C5C8E517824BF7E13
:1022D00027DB1096C4F342B12F551D1DCA2FDF7F97
:1022E0006DFDA2C280F1E77DB2E6A823867A05F6ED
:1022F00019FFE12A9947ACC1C715752F718574552F
:102300005ED192FCA81D5C39BD51C375F07B36547B
:10231000B7E0C544697E8633E4BE5961BA4B437366
:10232000C23B816CE7B02171CAD19E9FC5A83FB75F
:10233000DBD660A7FB74238AF2B51E9A32E4D5205F
:10234000D4EF7C42720098F9442D0C8E197634CF6C
:10235000540DEC25AB12DEFF9C2D441E2E00DC0537
:102360004C11634E33AEE52FBD6768644E0EB1E984
:1023700047131F952837A4D1D7AEBCA9EF4B003423
:10238000D8A51F8BC7598AF4505E23C76D845ED0D1
:1023900045DDB86C2EBCD933D950250CD5F5AED15E
:1023A00097533167C3C9CBF4B538DECC169A6414A1
:1023B0009D8295DD2D70E2CA3E8D6EF2D4F42259D5
:1023C000E2AA046F907BAD2269F47745E4C91F68E7
:1023D0006A48A210606C425EBD7AB1901AC504F2E0
:1023E000FFAC88BD1DCF4F2EC7F57B91BB5F3A7107
:1023F0005C64499BF090AE38AA9CF01DB1E23D6F41
:10240000AF71123D41F93AA0F304E263A016E177FF
:10241000FAA66F3A1ECBEEDAC82A43E43511AD476F
:10242000D2D1301D664D35E90EF85E9DABC49C6877
:1024300054C2911BE4363CF9649785F44B65717383
:1024400036AA596C7E8EB87D0A92626248FB629C05
:102450007832E4ACB3F9DD2F164E041FCCAF014245
:102460008154EDA5875303BEAF3345565FD3DBFCE4
:102470001008281843FF864C42227431F3FCA5381B
:102480009E38FB6903DE814185B06EAC1946A2AF70
:10249000C7AF110CD90FFB0C756E0D9B1F294E6732
:1024A000BA52FD457C39CDDB7D52AACCE56229E2EA
:1024B000740C9D37C5DBF5CECA923E79E3DB2D3E29
:1024C000D05C9559F8AE6AD9F2A84369DCBDFFD754
:1024D000F31410F096FADD11540DE3A7584B22BF08
:1024E00067F7A2F34EF817CCB080220CE3B43D118D
:1024F0000511B7ECE5C9FAC22BABADC4D29FB2E16E
:10250000229566A627170DEE8FEBE542DBDF7827D5
:1025100086868CED3A3F8C41DEE9F6BBEE3D6F7F5F
:10252000CC2F58BD1B46B64F9241F28422BF69BDE5
:1025300027D0BB7AEF71F5163BF7797939EC25D7BF
:102540008611F99B3A54A8350FCC34507BC719FB40
:10255000E454929AB5FA1D26F1D8954F88E61C9E50
:102560000BEEA065ABB423F9E8AFE184F41E8D0453
:1025700054C4CC138F9532B59359B5A8A1A1A7DE49
:10258000D7E7A35DE42905A16205E69BA1988D71BB
:102590000FB532AB553CC5583F8F044898DD6F747A
:1025A000291365F9FEA0868F6874AD90E6C28ABAD9
:1025B0006F08E08960E85A66C3660AA72D675E5314
:1025C000563A3B3F9BF751243F4E6F71A717FCF1E2
:1025D0006210EB79A87990B8A15A1877D6D3DE6B40
:1025E000471366C41BBF09C3260FFB9E15A7484BA4
:1025F00050FD7A58884E889295EA7B0FDEBBAD7805
:10260000C2CFD1DBCA36C6E81AA9FD520321C6489B
:10261000964FB8557762BE1E4C8A7DFE927CF23E84
:10262000EAF32D58D9677048AF1CA82CCB746A56B2
:10263000495A858A6B2E839DBA178FDD7E8ACF40DB
:102640004388E2EF35A43AB9737C9566A16E566E65
:10265000F7E5399DD067A6B1C8A564421CECC2F16C
:1026600031F9D8F39C94CDF3C785BF988CBD9F7684
:102670001D757DAB88A4A9EBC35BF0B47A113EB4A1
:1026800055CF16FB323C4D58DFF4F30CD6DB5349E3
:10269000AD1AD6DFBB0505FD3C4A45B0532273B5E4
:1026A000A9403F34C03AD46D7B84A83DDFC1807718
:1026B000E026D6D7F8C5C45231D57BFDAC0A22A29C
:1026C0000D6551145F8BFBFDEE512291C232054224
:1026D000050ACD7702C8C9FDF2CD23073524133B87
:1026E0008169D9F58DF52CF0A38DCFFFA50CA3D072
:1026F000C1A414A6C757E73EA9B70558A8C8CA98E9
:1027000043B0C486048F047FBD0DCC4D312A215DBA
:10271000431293F773E54C8DAFB760763141AEAE9F
:10272000F2C71694121DFE0B5405275B455182BB60
:102730005D02274588F2CF1D3087AD10B87C4DB1C2
:10274000940A3BAFC703CF20A72A3523C4EFEFB5C8
:10275000E1C777143E6BE84F920DCBA76F70FAC9B3
:102760003E7CBD537BAD37979603DBA17FDDE0C494
:102770009890FFB89221A33F2654D715AA176CED65
:102780009CD3D76181D0B2AEB779EDEB3C6653B53F
:102790002A4281BDFECE2F2F4E90DEECCA1737F0B5
:1027A00099DC771AC4DEE418C460C9CF434A729B2F
:1027B000495C62A887CF95CEDFAB6D15A69EBA3473
:1027C000CD3B618F8E97FB632C387F606DE2B949FA
:1027D0006308A8DAB4366931CA54BE052FB3691A42
:1027E000154DD0F1FDF1A0E3A91EF2AE15C4EF85A1
:1027F00048686B9B6066836ECDAD20C8D2076FC4FE
:10280000A5C3266F554143A32A31BD631079F3F860
:1028100066134F182BF3DAE3894B0053E359070B88
:102820004796B6A23F5F1A52902F3C3CA931C63C56
:102830000BF896F44CFA4AC7C2CB6A67B912434FF9
:10284000FDD0ED9D1B92DB11CAF4304417438D3946
:102850000637017294F8C4C5C76FF246446AF6CBD6
:102860003B5E141A85B37EFCBE17AB51602AFFDFB6
:1028700001E9FFB816896A8C7CDF91BB8EB98E3F67
:102880007C2ECC948B625517AC9526A9EAF179C2BF
:1028900063EA66F337E2942EE1D7171D62DE3175E5
:1028A00076DE01555332B4AE823DA39B3B00AB9321
:1028B00047248329179D8AF4242E6CAB9AFB3C5045
:1028C0001885C39ABABB750563966AEF43399EAF04
:1028D000F845E7BFF6E4B7CBDD400C00800A9CA6C4
:1028E00013BD7A6BBF0104E9DB5B1C88AB340A586B
:1028F000D92B7E6BE0F0AD3F95E8D7C392B6AF0021
:10290000D060C22F98FB67B7716DD79F117DA51559
:10291000284CF264254C411C148A04EFA1E7422C98
:10292000846FEE0B33C6BF4E08A39824410C1419D4
:1029300009F4D2BC284ABE63FC852B0F8C9CFF1384
:102940007F8A7AA4FF0FBC7FFA7E2807BFF0A1F42C
:102950005FF8FE602C945F04ED6FFCA76DCAC63F64
:10296000F8037868D94DFFE00F305614C7FD1317F0
:1029700053AFB1F9677BCDB356897FF26D93FB8876
:10298000FF893F7B30FAF59FF8ABA5D9A17FE2A57F
:102990003E6B39FFECAF9B6CEFE93FF9731DC7EA63
:1029A000FFE41F9A7C67FA931F7187936585D106B0
:1029B00049827FFFBA219E5000D0FE9B33304120D8
:1029C000FC5F9E811575BCDBCE19A444EF61E6AFB8
:1029D000E79AF34AEFE3AE8B8DFAA2FB956E336C68
:1029E00027D37DAD9A44A89C9AE43783C115A2648D
:1029F00092AC837FAC893A11BA6E0294BCD95CDE8A
:102A0000E8F86C708607C68848471F1F6A72EA5547
:102A100069333EFFB5388EF9AD75EA56F2E80F8B93
:102A2000A42FBC498A871E39D54AA9AB01251B2C86
:102A3000045B47F60ECB4FC5A88724283B0CB7C9CB
:102A40000F06E20AC4B34C67BE86A30B9C75747173
:102A5000C1D281F7E6B757C1AAAE5C603FEF2A7AD0
:102A6000A73D35EDCBCA6537671A69629FC98437C0
:102A7000D3E110660FD54FBD021FBA77D7D0D8A2C9
:102A8000FB05C563940BDA4A2E5643A3E0E3AF1E61
:102A9000217A6A4D544142B39FFE5BE9D6B6863A2D
:102AA00052A34AB5FA85664379680FAFCFAB864D1E
:102AB0000BC67C157EB4FDD4329E4BE66A79CA40C3
:102AC000C9A7FB8BFCE642F4BBCCD5BB9DC07B47C2
:102AD00045F1FD64AF4438FA38EE0BA041689288A6
:102AE0008CC796302EBEEF2E4E53A377DB3AF11AE9
:102AF000BEFAF28C8DE8DA6A8456F3586C4326C627
:102B00009084667728486FDF5C2F9CBE1AA125252C
:102B10004DF6F441F6E971437750EC382294B955FB
:102B2000018698E2DC22049BEDF4791A73C4174BFA
:102B3000AE13C789F564CC338F9715AF222F5E9201
:102B4000C442944A8E7BF6551254E7A46B6C23A6BC
:102B5000CA7BAFF57A6864BA5A715079EC62F65460
:102B6000FE80C0A9559EE0FA47F9A5F35527E6FB7C
:102B7000F0375BEC8E2D2D98BB0626BCB185A629BF
:102B8000B1630F3C1270B933F7B4213139854F9BD3
:102B90009DBA232B08AAFC5298DD45A8D19FCD9859
:102BA000DC17FEDA1F6B25A0BCF7B8A536D2849FD0
:102BB0005CF79EF4F92146B605826F2FB5D2E9C9BC
:102BC000179833EFD062A5570EC1B3E55B80BAD03A
:102BD000FEABC8F4F79440FDAF5CC38FA31FF69B18
:102BE0008EDA5B57DB05270507DC290F1EAE1B7D40
:102BF000203AE227ACAB7D4B54EAE799575818B41A
:102C0000DCF0DB27DA76F2756CEB04EF6C8C0D618F
:102C1000A5C566ECB3DF0B226F2859AEB751A19A58
:102C2000FA95859E8E14145C24823421E7FCAFF261
:102C30007E206A3509B88DB0190EEE4A21729D23A7
:102C400085939E0F8B2EAEADB0AFC71EC73AB81599
:102C50008A72160D97EF36C8A301128055002C9A80
:102C6000B8E30A08B3EC670CF195520467DDF73A54
:102C7000974FD62B2F7E477DB773A28958935A382A
:102C80000BC8FD1A5B9BC023F652CC8157CCA7EA38
:102C900066C76A23C77FE748C98961CBDFDA8B360D
:102CA000DFB8EC7D038C6E918DE463B751E67E0B4B
:102CB000E2D542C29B642D6BAF52A92CB97CA72BE5
:102CC0003DED9619AF68E531E68E37E5BE49FA4627
:102CD0004C4E551DA5BD9B6730835FB4D3FCCA81A4
:102CE00016723573951DFDC1671B22110B0FC3753D
:102CF000BC3020947198CFACF54D8DA53CE233BD2E
:102D00000E16BA164E0C7FAA3E81D9B21655878A86
:102D1000F7B1D110DD025BC378DEB1B345E79F1494
:102D2000CE83BC71BC4A9789B364261BC95AFE5432
:102D300098372A571E378CDBD615272BE974EDCC34
:102D4000FEB81FDAFD5AC6E3E776787E6452503F3C
:102D50008CD18BA3B76A7B667271FDE814BB77E1F7
:102D600019FFC9DBFD58BF3E4E016C8C6D7EEFF044
:102D700087C3A6D8DB585C4AF518318B1F2F6BDF51
:102D8000DAFFC638A5AF9D74BC6CBEC4332D2CA130
:102D90001E732EA8D2BE40A27A8884BBC8AF349DD1
:102DA000923DA8835FAE968DBE61780B9EBCD6BF68
:102DB000327C1CAF14ADF94A2D73597083924B418C
:102DC0009DC7D0D91D0A11A223F9F856FD91DC97B1
:102DD00080D7483B2135363FB73B2DFA72F08F182C
:102DE0001BCF44A57FC70ACB8F7F42A72F16DCD30A
:102DF0000E28A6D6582477789BF404FA9EF53D5FFA
:102E00000652522B43560C7DAD98E2E473BF631F0C
:102E1000032F9D5971C39BA7E42199790621676E01
:102E2000F3129FAFE5C3ED84A92AB75923F5541BCC
:102E30001D5EC6403D1272116793242F7696AEC96F
:102E4000C6DB1B5A1BB272DB8315EEAB38C7E93009
:102E5000BDA3130D998DD1EBFE4C2538C567F82025
:102E60006EE590FCB5AEC45AAFD337C425CCD107BC
:102E70004162E21D5490B327440EDF7CDEE9C4D9E1
:102E80007ED96E8AE25B8A00D61A73A90108721E87
:102E90004320D05DD5AB54EB2D2543E97CDACE69D8
:102EA000CBF58456C11871BD8B9640DF8ACE42792E
:102EB000F9B2A17EBF656BB65538E11AB1678C6B6C
:102EC0000123709737F8C530F3A5D2B39367A66F87
:102ED000703DBFA1318C264CC0C69E254C23C9DD58
:102EE000157C7EEFCBF8E5E3491F27DA9537E5132C
:102EF000BD06F42AE367A79A3E7A81F95BC9C88CBC
:102F00006C15A3CBCE0F7799A99927E1B7014C7720
:102F100059E3F5EC5F7683A89AF18F7EC9EB11EF48
:102F20007C7D99018B730CA8B45E751ADD64F8C2C0
:102F3000522E0C3C1AB8612CEECB5A89DFF0633666
:102F400083A3BA74D8C7E984B4BE6F7F99FEE61232
:102F5000D76D7DF46CE1B76F00CF89FD036B15C9A8
:102F6000609D282B231B0E727BCBC0B5728FDE9E1B
:102F70009121FCA7279C830B69445C93458E49975C
:102F80005AC82D373230FF880D298905B733B98FDC
:102F90008C94DC73514C152B4DE387B13AFCEF0553
:102FA000EFFF7E5E20B71F7623ECB3707950D0D14F
:102FB000D85817C3B1C5FE7EC6911EF7ECF79776B9
:102FC0009B574B58D862BCE712EFD482FD60C1BB5F
:102FD0008623C3F3FC843415F57DF982E90F36A707
:102FE000878675B79E992BEE04B7DE8B623E3B94C5
:102FF0003538661E4465D8FB6574A14AE0A189385E
:1030000040A09B3AB5AFC8E07197FD39E1D91F1DCB
:1030100098025605C04C7397FCB11024A5D1C0721C
:10302000E06E06F5CD3840A687A7FDA899C2B44743
:10303000CE9EDADD4A499EF0767F7ED782F1D77741
:103040002DE87F7ED792082582C089230048EF6251
:103050003F34A1F9490BCF6B34480060FE37798DBE
:103060001970FC97792DA5978DABFFB9C1F64FFF6D
:1030700053B4B13E3527CBD43483A256EF8ACB6B01
:10308000A7746C5680BAF6615D2558C0F45C10B325
:1030900061A7BAB3257C624539FAB545144A72472F
:1030A000D270AF0E014692E227F0D544ECE47054A2
:1030B0000DEFC3FB9DA3679363731790A63E98B56E
:1030C000998D2D741E8DC4F5FDB75AB35ECCC4D84E
:1030D0007EBDB437FB6E6325FE7ADD6A5AC5D84AD9
:1030E000BC01B3CBC43BA7B0014AA9C7D64D331D21
:1030F000DC85ABC7AB945D797CF5CA31184D9FE296
:103100005026DC7A24C6073CB67322DB98BF5D608C
:10311000637FF2DBAB4E3EB69871A60F97610D79D7
:10312000B56FD924E75A56F8B165476483F29430F5
:10313000AE79AB857FE9756585B1F1EB2AA941755B
:103140003A2EF367E6E087E2A1CFC7B8643BE1E53A
:10315000B946FFCF0F668F9D7437508AE573EC1B1D
:10316000CAE91478F085747E2D6DD5AC6D960C4946
:1031700060FEAEB7764D7ECBD76AD1F663F59B087D
:1031800081E9F99E2EFF4FEC9D47BC83444FF10E21
:1031900006B7C9A3ED54041E3C65AEF3F7460AA278
:1031A00084084EF060CF7921611537FA34D5935DEC
:1031B000610F2E8833CDE42A9CBF37F0AC5B28E04A
:1031C000218814A8FBD2B6E9645CEC6ABE46B94417
:1031D000C261D099C1883DB9375CDD39FA0DCD3770
:1031E0009C8A7F6B6EBB5F53FD697CDF24DB554B94
:1031F00080A7A70B3E39EED6E4959C6C4C7B68DF2C
:10320000F3C6F49F391B9EE40236CF0407B933F6A8
:103210007F5289DFC346B1ED3615C727921AA466DF
:103220009C20A6B29E64F7FE3A440A0FA0B03D93DC
:10323000CF1CF35AB38CCD953EC57D3FB0435D386E
:103240007E2256AC8777D72716CDAEE773BF7D5F5A
:103250008FB92C25CF463ECED6B1790C120AE35950
:1032600023CD34D4636D6595DE1BF307627530188A
:10327000CEEED54D8D5D712349F75E937F9E7AC466
:10328000D09DBE3FA888E1E284D4E5B1830849D24D
:10329000ECD94AE72285181133F989F9F814FCC6EC
:1032A0006FDFD9D2C8B7B979303BF97BE69BAB84E5
:1032B000AF47B3F5A44A93C795EE87900E5EE297A9
:1032C0001DD40E5B37919ABF5152B5BD7D9A2AA28B
:1032D0008EC71F4AA9513F10CE78842E95A3740A39
:1032E000ADF45E8C75B37243EED01DE18BA7AF4594
:1032F000E2E12D17B1CA244AA8A17FF5CD023055CD
:10330000BFAC4C9F4D519A377FB5CE307D3356FCC4
:10331000ACA863D129DBE1D429C0E316A01095F055
:103320007FB892BB05F56A69FBBF2254EFDF0283C9
:10333000F4D5F6BDCF31A7339DA8125B2E16D52F3D
:1033400056458330978676F40DDE09C489DFB76D64
:10335000E3887FFA4602DB98E36D99F29E4B8C423C
:103360001C921B94FA6C2AE10729C0C85632EFACB4
:10337000618215F37FEF109173EB639E8B8A7FD090
:10338000A43448D2D6512ACBE0A6F4B175C0834A02
:10339000E4442E72E791107BE3AA059D6CFB48166E
:1033A000D6322D5B215EE50F0A8A525A772C642FA4
:1033B00082D8D953C2AF0DD9319B316BD47C26C58D
:1033C00089463F454EBD339B2DDE758977E2648E7D
:1033D000609055D6198BFF0A322B3657308A1BEB7B
:1033E00081EFB2AA4FDA0D175EE79FCAC77B29B7F4
:1033F000D3E10F9ACD1E15D47E68276F4E61A3745A
:103400004B0CEEBCBE98ACCCCE8928D9BA05461F71
:103410008E392FAAF8D3CCB45BE7F99F5D0A5CAF75
:10342000ABEEDB84FDE42EB83254369690AA8B9B2B
:1034300099B7B4F32E657BBC5ACE8BA72856A72626
:1034400009934476B4D8488DFAA2C81EE72BC0E889
:10345000FDFC2E0671C3C30716F0A088538B93D1D1
:1034600034FD3308B548638265E56B111C2E558B1E
:1034700084C21E78149A508B93759731D1D5193E1A
:10348000FE615D73177B10E177C1634F121419025F
:103490000600DECB994159BFC3268F8B811F7F5118
:1034A000076FBFFA70FC41F5BB4F3B0F5F74C7DE7F
:1034B00051C700E8A0C056E17830FECF66036D2FFB
:1034C0000995FCDC5E48FE6F5DFE499593FCD4F3E4
:1034D000AF9BFF1DE0FEFF93FF1F3D190186F25FCA
:1034E0003C5D02F1EE4DDA082478C6B003A9487FAE
:1034F000BCCC4BA141998A70774D4505D0BF5EF198
:1035000050C4C3CB4200B82006E5EF775FA0AFEF11
:103510003EBD84FD470D00F85FEDF56F49666C61B7
:1035200073682F737572666163652E737766003CEE
:1035300021444F43545950452068746D6C205055B8
:10354000424C494320222D2F2F5733432F2F4454D1
:1035500044205848544D4C20312E30204672616D25
:10356000657365742F2F454E222022687474703A5B
:103570002F2F7777772E77332E6F72672F54522F36
:103580007868746D6C312F4454442F7868746D6C76
:10359000312D6672616D657365742E647464223EAC
:1035A0000D0A3C68746D6C20786D6C6E733D2268FA
:1035B0007474703A2F2F7777772E77332E6F726768
:1035C0002F313939392F7868746D6C223E0D0A3CE1
:1035D000686561643E0D0A3C6D65746120687474B1
:1035E000702D65717569763D22436F6E74656E74DA
:1035F0002D547970652220636F6E74656E743D2260
:10360000746578742F68746D6C3B206368617273A5
:1036100065743D67623233313222202F3E0D0A3C01
:103620007469746C653ED3C34945B7C3CECABBF950
:10363000D3DA4156522B52544C38303139C9E8BC98
:10364000C6B5C4D2D4CCABCDF8D3A6D3C3CFB5CDF9
:10365000B33C2F7469746C653E0D0A3C2F6865613C
:10366000643E0D0A0D0A3C6672616D6573657420D7
:10367000726F77733D223236352C2A2220636F6CAD
:10368000733D222A22206672616D657370616369E1
:103690006E673D223022206672616D65626F7264D2
:1036A00065723D226E6F2220626F726465723D22E8
:1036B00030223E0D0A20203C6672616D65207372D7
:1036C000633D22746F702E68746D6C22206E616D84
:1036D000653D22746F704672616D6522207363725E
:1036E0006F6C6C696E673D224E6F22206E6F726543
:1036F00073697A653D226E6F726573697A652220FF
:1037000069643D22746F704672616D652220746930
:10371000746C653D22746F704672616D6522202F56
:103720003E0D0A20203C6672616D65207372633D18
:10373000226D61696E2E68746D6C22206E616D65FC
:103740003D226D61696E4672616D65222069643D3E
:10375000226D61696E4672616D6522207469746CB8
:10376000653D226D61696E4672616D6522202F3E56
:103770000D0A3C2F6672616D657365743E0D0A3CDF
:103780006E6F6672616D65733E3C626F64793E0D6B
:103790000A3C2F626F64793E0D0A3C2F6E6F667291
:1037A000616D65733E3C2F68746D6C3E0D0A696EE9
:1037B0006465782E68746D6C003C21444F43545905
:1037C00050452068746D6C205055424C494320226E
:1037D0002D2F2F5733432F2F445444205848544DF6
:1037E0004C20312E30205472616E736974696F6E93
:1037F000616C2F2F454E222022687474703A2F2F4F
:103800007777772E77332E6F72672F54522F786821
:10381000746D6C312F4454442F7868746D6C312D65
:103820007472616E736974696F6E616C2E64746416
:10383000223E0D0A3C68746D6C20786D6C6E733D91
:1038400022687474703A2F2F7777772E77332E6F24
:1038500072672F313939392F7868746D6C223E0DBB
:103860000A3C686561643E0D0A3C6D6574612068C0
:103870007474702D65717569763D22436F6E746541
:103880006E742D547970652220636F6E74656E744A
:103890003D22746578742F68746D6C3B2063686199
:1038A000727365743D67623233313222202F3E0DD0
:1038B0000A3C7469746C653E3C2F7469746C653E97
:1038C0000D0A3C7374796C6520747970653D2274BF
:1038D0006578742F637373223E0D0A3C212D2D0DE4
:1038E0000A626F6479207B0D0A096261636B6772FB
:1038F0006F756E642D636F6C6F723A202346464677
:103900004646463B0D0A7D0D0A2E5354594C45320E
:10391000207B0D0A09666F6E742D66616D696C7986
:103920003A20417269616C2C2048656C7665746937
:1039300063612C2073616E732D73657269663B0D34
:103940000A09666F6E742D73697A653A2031367094
:10395000783B0D0A7D0D0A2E5354594C4533207B7C
:10396000666F6E742D66616D696C793A2047656E7D
:103970006576612C20417269616C2C2048656C76FB
:1039800065746963612C2073616E732D7365726950
:10399000663B20666F6E742D73697A653A20313804
:1039A00070783B207D0D0A2E5354594C4535207BB1
:1039B000666F6E742D73697A653A20313470787D44
:1039C0000D0A2E5354594C4536207B666F6E742D6C
:1039D00066616D696C793A202254696D6573204E79
:1039E000657720526F6D616E222C2054696D65736E
:1039F0002C2073657269667D0D0A2E5354594C450F
:103A000039207B0D0A09666F6E742D66616D696CD5
:103A1000793A202254696D6573204E657720526F84
:103A20006D616E222C2054696D65732C2073657254
:103A300069663B0D0A09636F6C6F723A2023464634
:103A4000303030303B0D0A09666F6E742D73697A21
:103A5000653A20323470783B0D0A096261636B6706
:103A6000726F756E642D636F6C6F723A20234546DA
:103A7000454645463B0D0A7D0D0A2D2D3E0D0A3C5F
:103A80002F7374796C653E0D0A3C2F686561643E46
:103A90000D0A0D0A3C626F64793E0D0A3C683120C4
:103AA000636C6173733D225354594C4533223E0D70
:103AB0000A3C7370616E20636C6173733D225354D2
:103AC000594C4539223E54686973206578616D70A0
:103AD0006C6520202064657369676E206261736580
:103AE00064206F6E2045544845524E5554213C2F5A
:103AF0007370616E3E3C6272202F3E0D0A4E7574EB
:103B00002F4F5320342E392E372020496E74726F78
:103B100064756374696F6E3C2F68313E0D0A3C73A7
:103B200070616E20636C6173733D225354594C4530
:103B300032223E45746865726E7574206973206127
:103B40006E204F70656E20536F7572636520202064
:103B5000486172647761726520616E6420536F669C
:103B600074776172652050726F6A65637420666F46
:103B700072206275696C64696E6720456D62656468
:103B80006465642045746865726E6574204465766A
:103B9000696365732E3C2F7370616E3E0D0A3C7035
:103BA00020636C6173733D225354594C4532223E5D
:103BB000466F72207468652068617264776172650F
:103BC0002070617274207468726565207265666524
:103BD00072656E63652064657369676E73206172D8
:103BE000652063757272656E746C792061766169A7
:103BF0006C61626C653A203C2F703E0D0A3C756C1E
:103C00003E0D0A20203C6C6920636C6173733D2279
:103C10005354594C4532223E45746865726E757432
:103C2000203120776974682041546D6567613130B7
:103C300033206F722041546D656761313238204303
:103C4000505520616E64205265616C74656B205222
:103C5000544C3830313941532045746865726E6573
:103C600074202020436F6E74726F6C6C65722E200E
:103C70003C2F6C693E0D0A20203C6C6920636C610E
:103C800073733D225354594C4532223E4574686546
:103C9000726E7574203220776974682041546D65A6
:103CA00067613132382043505520616E6420534D96
:103CB0005343204C414E39314331313120457468F2
:103CC00065726E657420436F6E74726F6C6C657292
:103CD0002E203C2F6C693E0D0A20203C6C6920632D
:103CE0006C6173733D225354594C4532223E4574E6
:103CF0006865726E7574203320776974682041544A
:103D000039315234303030382043505520616E64A0
:103D10002044617669636F6D20444D393030304501
:103D20002045746865726E657420436F6E74726F9F
:103D30006C6C65722E203C2F6C693E0D0A3C2F7511
:103D40006C3E0D0A3C683220636C6173733D2253F4
:103D500054594C4536223E3C6120687265663D22CE
:103D6000687474703A2F2F7777772E657468657250
:103D70006E75742E646522207461726765743D22CD
:103D80005F626C616E6B2220636C6173733D2253C2
:103D900054594C4535223E7777772E65746E65729F
:103DA0006E75742E64653C2F613E3C2F68323E0D6B
:103DB0000A3C703E266E6273703B3C2F703E0D0ACB
:103DC0003C2F626F64793E0D0A3C2F68746D6C3E27
:103DD0000D0A6D61696E2E68746D6C000D0A3C6889
:103DE000746D6C3E3C686561643E3C7374796C65CF
:103DF00020747970653D27746578742F6373732719
:103E00003E0D0A2E7469746C655F7374796C65205D
:103E10007B666F6E742D66616D696C793A2027BA86
:103E2000DACCE5273B666F6E742D73697A653A20AC
:103E3000323470783B207D0D0A2E7265645F737496
:103E4000796C65207B666F6E742D66616D696C7927
:103E50003A2027BADACCE5273B666F6E742D73697A
:103E60007A653A20363070783B636F6C6F723A2017
:103E7000234646303030303B7D0D0A2E626C6B5F3E
:103E80007374796C65207B666F6E742D66616D69E5
:103E90006C793A2027BADACCE5273B666F6E742D31
:103EA00073697A653A20363070783B636F6C6F7255
:103EB0003A20233030303030303B7D3C2F737479E2
:103EC0006C653E0D0A3C2F686561643E3C626F6420
:103ED000793E3C6272202F3E0D0A3C7461626C6533
:103EE0002077696474683D27363330272068656918
:103EF0006768743D273136302720626F72646572BF
:103F00003D27312720616C69676E3D2763656E74BC
:103F10006572273E0D0A3C74723E3C7464207769DA
:103F20006474683D27323930272068656967687492
:103F30003D273439273E3C64697620616C69676EA1
:103F40003D2763656E746572273E0D0A3C73706190
:103F50006E20636C6173733D277469746C655F7365
:103F600074796C65273E4C4544D7B4CCAC3C2F7378
:103F700070616E3E3C2F6469763E3C2F74643E3C1B
:103F800074642077696474683D27333236273E0DA8
:103F90000A3C64697620616C69676E3D2763656ED3
:103FA000746572273E3C7370616E20636C6173733D
:103FB0003D277469746C655F7374796C65273EB5D1
:103FC000E7BBFAD7B4CCAC3C2F7370616E3E0D0AE0
:103FD0003C2F6469763E3C2F74643E3C2F74723EE5
:103FE0003C74723E3C7464206865696768743D2760
:103FF0003939273E0D0A3C64697620616C69676E29
:104000003D2763656E7465722720636C6173733D31
:1040100022626C6B5F7374796C65223E4F46463C3E
:104020002F6469763E3C2F74643E3C74643E0D0AF6
:104030003C64697620616C69676E3D2763656E74C8
:1040400065722720636C6173733D22626C6B5F73D2
:1040500074796C65223E53544F503C2F6469763E10
:104060003C2F74643E0D0A3C2F74723E3C2F7461E9
:10407000626C653E3C2F626F64793E3C2F68746DC4
:104080006C3E0D0A72756E5F7374617475732E6881
:10409000746D6C003C21444F435459504520687462
:1040A0006D6C205055424C494320222D2F2F573301
:1040B000432F2F445444205848544D4C20312E3027
:1040C000205472616E736974696F6E616C2F2F4535
:1040D0004E222022687474703A2F2F7777772E77CC
:1040E000332E6F72672F54522F7868746D6C312F96
:1040F0004454442F7868746D6C312D7472616E7302
:104100006974696F6E616C2E647464223E0D0A3CA2
:1041100068746D6C20786D6C6E733D226874747079
:104120003A2F2F7777772E77332E6F72672F3139AB
:1041300039392F7868746D6C223E0D0A3C686561D0
:10414000643E0D0A3C6D65746120687474702D6561
:10415000717569763D22436F6E74656E742D547966
:1041600070652220636F6E74656E743D227465788D
:10417000742F68746D6C3B20636861727365743D65
:1041800067623233313222202F3E0D0A3C7469744B
:104190006C653EC9E8D6C3B9DCC0EDD4B1C3DCC29E
:1041A000EB3C2F7469746C653E0D0A3C7374796C3A
:1041B0006520747970653D22746578742F6373731C
:1041C000223E0D0A3C212D2D0D0A2E5354594C45EB
:1041D00031207B0D0A09666F6E742D66616D696C06
:1041E000793A2022CBCECCE5223B0D0A09666F6ED0
:1041F000742D73697A653A20313870783B0D0A7DE9
:104200000D0A2E5354594C4533207B666F6E742D26
:1042100073697A653A20313070747D0D0A2E5354DB
:10422000594C4534207B0D0A09666F6E742D7369F5
:104230007A653A20313670743B0D0A09636F6C6FF2
:10424000723A20234646303030303B0D0A7D0D0A4D
:104250002E626F786C696E65207B0D0A09626F7241
:104260006465723A2031707820736F6C6964202322
:104270003030303033333B0D0A7D0D0A2D2D3E0D8D
:104280000A3C2F7374796C653E0D0A3C2F6865619A
:10429000643E0D0A0D0A3C626F64793E0D0A3C666D
:1042A0006F726D20616374696F6E3D222F61646D62
:1042B000696E2F6367692D62696E2F736574706113
:1042C0007373776F72642E63676922206D657468FB
:1042D0006F643D226765742263656C6C7370616402
:1042E00064696E673D2236223E0D0A20203C68310B
:1042F00020616C69676E3D2263656E746572222071
:10430000636C6173733D225354594C4531223E3CDA
:104310007370616E20636C6173733D225354594C0A
:104320004534223EC7EBCAE4C8EBD0C2B5C4B9DC01
:10433000C0EDD4B1C3DCC2EB3C2F7370616E3E3C68
:104340006272202F3E0D0A202020203C7370616E87
:1043500020636C6173733D225354594C4533223EA4
:104360003C6272202F3E0D0A202028B2BBB3ACB9AC
:10437000FD3130CEBB2CC7F8B7D6B4F3D0A1D0B442
:104380002CC3DCC2EBD0B4C8EB454550524F4D2096
:10439000307830304130B5D8D6B7293C2F737061B2
:1043A0006E3E3C2F68313E0D0A20203C7461626CE9
:1043B000652077696474683D22333632222068654F
:1043C000696768743D2239382220616C69676E3DE7
:1043D0002263656E74657222206267636F6C6F7210
:1043E0003D22234546454645462220636C61737352
:1043F0003D22626F786C696E65223E0D0A20202096
:10440000203C74723E0D0A2020202020203C746441
:10441000206865696768743D2232392220776964B3
:1044200074683D22313432223E266E6273703B2620
:104430006E6273703B3C7370616E20636C6173736A
:104440003D225354594C4533223ECAE4C8EBC3DCE9
:10445000C2EB3A3C2F7370616E3E3C2F74643E0D8C
:104460000A2020202020203C746420686569676849
:10447000743D223239222077696474683D223330DA
:1044800032223E3C696E707574206E616D653D220E
:1044900070617373312220747970653D227061738D
:1044A00073776F7264222069643D22706173733187
:1044B00022206D61786C656E6774683D2231302210
:1044C000202F3E3C2F74643E0D0A202020203C2FDC
:1044D00074723E0D0A202020203C74723E0D0A208A
:1044E00020202020203C7464206865696768743D42
:1044F000223332222077696474683D2231343222BB
:104500003E266E6273703B3C7370616E20636C611B
:1045100073733D225354594C4533223E266E6273C9
:10452000703BD4D9CAE4D2BBB1E93A3C2F73706175
:104530006E3E203C2F74643E0D0A20202020202057
:104540003C7464206865696768743D2233322220B8
:1045500077696474683D22333032223E3C696E7064
:104560007574206E616D653D227061737332222017
:10457000747970653D2270617373776F7264222065
:1045800069643D22706173733222206D61786C65BD
:104590006E6774683D22313022202F3E3C2F7464B8
:1045A0003E0D0A202020203C2F74723E0D0A202050
:1045B00020203C74723E0D0A2020202020203C74D4
:1045C0006420636F6C7370616E3D22322220616CD7
:1045D00069676E3D226D6964646C65222068656957
:1045E0006768743D22323722203E266E6273703B2C
:1045F000266E6273703B3C696E707574206E616DDF
:10460000653D227375626D6974222074797065202E
:104610003D20227375626D697422202076616C756D
:10462000653D2220B1A3B4E6C3DCC2EB2022207397
:10463000697A653D223822202F3E0D0A2020202055
:10464000202020202020266E6273703B266E62732D
:10465000703B3C696E707574206E616D653D2272B1
:1046600065736574222074797065203D202272651F
:10467000736574222076616C75653D2220C8A12087
:10468000CFFB20222073697A653D223822202F3EFD
:104690003C2F74643E0D0A202020203C2F74723E73
:1046A0000D0A20203C2F7461626C653E0D0A2020AB
:1046B0003C703E3C6120687265663D222E2E2F695B
:1046C0006E6465782E68746D6C223E3C2F613E20CE
:1046D0003C2F703E0D0A3C2F666F726D3E0D0A3CFA
:1046E0002F626F64793E0D0A3C2F68746D6C3E0D2D
:1046F0000A73657470617373776F72642E68746D7A
:104700006C003C21444F43545950452068746D6CF3
:10471000205055424C494320222D2F2F5733432FF1
:104720002F445444205848544D4C20312E302054AE
:1047300072616E736974696F6E616C2F2F454E22C2
:104740002022687474703A2F2F7777772E77332E64
:104750006F72672F54522F7868746D6C312F4454E8
:10476000442F7868746D6C312D7472616E73697446
:10477000696F6E616C2E647464223E0D0A3C68742D
:104780006D6C20786D6C6E733D22687474703A2F76
:104790002F7777772E77332E6F72672F313939392C
:1047A0002F7868746D6C223E0D0A3C686561643E2A
:1047B0000D0A3C6D65746120687474702D657175A7
:1047C00069763D22436F6E74656E742D5479706501
:1047D0002220636F6E74656E743D22746578742F49
:1047E00068746D6C3B20636861727365743D6762C9
:1047F0003233313222202F3E0D0A3C7469746C65CD
:104800003E3C2F7469746C653E0D0A3C7374796C80
:104810006520747970653D22746578742F637373B5
:10482000223E0D0A3C212D2D0D0A2E5354594C4584
:1048300033207B666F6E742D73697A653A2032344B
:1048400070743B20666F6E742D66616D696C793A89
:10485000BADACCE57D0D0A2E5354594C4534207BF1
:10486000666F6E742D73697A653A20313270747D8B
:104870000D0A626F6479207B0D0A096D61726769A8
:104880006E2D6C6566743A203070783B0D0A096DA8
:10489000617267696E2D746F703A203070783B0DCD
:1048A0000A096D617267696E2D72696768743A20D2
:1048B0003070783B0D0A096D617267696E2D626F09
:1048C00074746F6D3A203070783B0D0A7D0D0A2E9E
:1048D0005354594C4536207B666F6E742D73697A3C
:1048E000653A20313870747D0D0A2E746F706C69D2
:1048F0006E65207B0D0A09626F726465722D746F9C
:10490000702D77696474683A203170783B0D0A091C
:10491000626F726465722D72696768742D7769645D
:1049200074683A203170783B0D0A09626F726465D1
:10493000722D626F74746F6D2D77696474683A209C
:104940003170783B0D0A09626F726465722D6C6577
:1049500066742D77696474683A203170783B0D0A6B
:1049600009626F726465722D746F702D7374796C47
:10497000653A20736F6C69643B0D0A09626F72645B
:1049800065722D72696768742D7374796C653A204D
:104990006E6F6E653B0D0A09626F726465722D62FF
:1049A0006F74746F6D2D7374796C653A206E6F6ED1
:1049B000653B0D0A09626F726465722D6C656674E1
:1049C0002D7374796C653A206E6F6E653B0D0A0924
:1049D000626F726465722D746F702D636F6C6F728D
:1049E0003A20233030303036363B0D0A09626F7280
:1049F0006465722D72696768742D636F6C6F723AAB
:104A000020233030303036363B0D0A09626F726435
:104A100065722D626F74746F6D2D636F6C6F723A77
:104A200020233030303036363B0D0A09626F726415
:104A300065722D6C6566742D636F6C6F723A2023FE
:104A40003030303036363B0D0A7D0D0A2D2D3E0DAF
:104A50000A3C2F7374796C653E0D0A3C2F686561C2
:104A6000643E0D0A0D0A3C626F64793E0D0A3C7487
:104A700061626C652077696474683D22313030254D
:104A80002220626F726465723D2230222063656C61
:104A90006C73706163696E673D2231222063656CBF
:104AA0006C70616464696E673D2232223E0D0A209B
:104AB000203C74723E0D0A202020203C7464206843
:104AC00065696768743D223732223E3C646976200E
:104AD000616C69676E3D2263656E74657222206346
:104AE0006C6173733D225354594C4533223E0D0A79
:104AF0002020202020203C7020636C6173733D22B5
:104B00005354594C4533223E3C7370616E20636CA4
:104B10006173733D225354594C4534223E0D0A2093
:104B2000202020202020203C6F626A65637420636F
:104B30006C61737369643D22636C7369643A4432D7
:104B40003743444236452D414536442D3131636665
:104B50002D393642382D3434343535333534303010
:104B600030302220636F6465626173653D22687432
:104B700074703A2F2F646F776E6C6F61642E6D6165
:104B800063726F6D656469612E636F6D2F707562FE
:104B90002F73686F636B776176652F636162732F24
:104BA000666C6173682F7377666C6173682E6361DE
:104BB000622376657273696F6E3D372C302C313904
:104BC0002C30222077696474683D223638302220E8
:104BD0006865696768743D22313838223E0D0A20C5
:104BE0002020202020202020203C706172616D2038
:104BF0006E616D653D226D6F766965222076616C10
:104C000075653D22666C6173682F737572666163AA
:104C1000652E73776622202F3E0D0A20202020204B
:104C200020202020203C706172616D206E616D65D6
:104C30003D227175616C697479222076616C7565AD
:104C40003D226869676822202F3E0D0A202020201F
:104C50002020202020203C656D62656420737263F3
:104C60003D22666C6173682F737572666163652E91
:104C700073776622207175616C6974793D22686969
:104C800067682220706C7567696E73706167653D37
:104C900022687474703A2F2F7777772E6D61637264
:104CA0006F6D656469612E636F6D2F676F2F676528
:104CB00074666C617368706C6179657222207479B6
:104CC00070653D226170706C69636174696F6E2FED
:104CD000782D73686F636B776176652D666C617391
:104CE00068222077696474683D2236383022206853
:104CF00065696768743D22313838223E3C2F656D06
:104D00006265643E0D0A20202020202020203C2FB8
:104D10006F626A6563743E0D0A20202020202020E7
:104D2000203C7370616E20636C6173733D22535439
:104D3000594C4536223E3C6272202F3E0D0A2020FF
:104D4000202020202020D2D4CCABCDF8D3A6D3C3B2
:104D5000CFB5CDB3D4B6B3CCBFD8D6C6CCA828BBBC
:104D6000F9D3DA41746D656761313238202B2052F6
:104D7000544C38303139202B204E75742F4F532925
:104D80003C2F7370616E3E3C6272202F3E0D0A20F4
:104D900020202020203C2F7370616E3E3C2F703EFF
:104DA0000D0A202020203C2F6469763E3C2F74643D
:104DB0003E0D0A20203C2F74723E0D0A20203C74C8
:104DC000723E0D0A202020203C74642068656967CB
:104DD00068743D2234342220636C6173733D227405
:104DE0006F706C696E65223E3C7461626C65207701
:104DF000696474683D2235383022206865696768C7
:104E0000743D2234302220626F726465723D22301C
:104E10002220616C69676E3D2263656E7465722243
:104E20002063656C6C70616464696E673D22322238
:104E30002063656C6C73706163696E673D2231221B
:104E40003E0D0A2020202020203C74723E0D0A20B6
:104E5000202020202020203C74642077696474681E
:104E60003D223935223E3C64697620616C69676E6B
:104E70003D2263656E746572223E3C6120687265F6
:104E8000663D226D61696E2E68746D6C22207461BE
:104E9000726765743D226D61696E4672616D65224F
:104EA0003EA1BE484F4D45A1BF3C2F613E3C2F6403
:104EB00069763E3C2F74643E0D0A2020202020207D
:104EC00020203C74642077696474683D2231333358
:104ED00022206865696768743D223338223E3C644D
:104EE000697620616C69676E3D2263656E746572D8
:104EF000223E3C7370616E20636C6173733D22537C
:104F000054594C4534223E3C6120687265663D220E
:104F100061646D696E2F6367692D62696E2F6D63C1
:104F2000755F636F6E74726F6C2E6367693F70613B
:104F300072613D4745544C454453544154555322A6
:104F4000207461726765743D226D61696E4672619D
:104F50006D65223EA1BE4C454420D7B4CCACB2E92D
:104F6000D1AFA1BF3C2F613E3C2F7370616E3E3CC0
:104F70002F6469763E3C2F74643E0D0A2020202069
:104F8000202020203C74642077696474683D2231BD
:104F90003138223E3C64697620616C69676E3D223F
:104FA00063656E746572223E3C7370616E20636C43
:104FB0006173733D225354594C4534223E3C612069
:104FC000687265663D2261646D696E2F6367692D45
:104FD00062696E2F6D63755F636F6E74726F6C2E96
:104FE0006367693F706172613D53544152544D4F44
:104FF000544F5222207461726765743D226D61695D
:105000006E4672616D65223EA1BEC6F4B6AFB5E7CD
:10501000BBFAA1BF3C2F613E3C2F7370616E3E3CDA
:105020002F6469763E3C2F74643E0D0A20202020B8
:10503000202020203C74642077696474683D22310C
:105040003036223E3C64697620616C69676E3D2291
:1050500063656E746572223E3C7370616E20636C92
:105060006173733D225354594C4534223E3C6120B8
:10507000687265663D2261646D696E2F6367692D94
:1050800062696E2F6D63755F636F6E74726F6C2EE5
:105090006367693F706172613D53544F504D4F5487
:1050A0004F5222207461726765743D226D61696E92
:1050B0004672616D65223EA1BECDA3D6B9B5E7BBF0
:1050C000FAA1BF3C2F613E3C2F7370616E3E3C2FB6
:1050D0006469763E3C2F74643E0D0A202020202017
:1050E0002020203C74642077696474683D2231314B
:1050F00037223E3C64697620616C69676E3D2263AD
:10510000656E746572223E3C7370616E20636C61E3
:1051100073733D225354594C4534223E3C61206800
:105120007265663D2273657470617373776F726424
:105130002E68746D6C22207461726765743D226DF7
:1051400061696E4672616D65223EA1BEC9E8D6C333
:10515000C3DCC2EBA1BF3C2F613E3C2F7370616E7C
:105160003E3C2F6469763E3C2F74643E09090D0A6B
:105170002020202020203C2F74723E0D0A20202069
:10518000203C2F7461626C653E3C2F74643E0D0AB6
:1051900020203C2F74723E0D0A3C2F7461626C65B6
:1051A0003E0D0A3C2F626F64793E0D0A3C2F6874F5
:1051B0006D6C3E0D0A746F702E68746D6C005757DD
:1051C000572D41757468656E7469636174653A2022
:1051D0004261736963207265616C6D3D22257322A3
:1051E0000D0A003C48544D4C3E3C484541443E3C31
:1051F0005449544C453E25642025733C2F54495452
:105200004C453E3C2F484541443E3C424F44593E6C
:1052100025642025733C2F424F44593E3C2F48546F
:105220004D4C3E0D0A00636C6F73650D0A0D0A004C
:10523000436F6E6E656374696F6E3A2000436F6EE4
:1052400074656E742D4C656E6774683A20256C64C5
:105250000D0A00436F6E74656E742D547970653A53
:105260002025730D0A00485454502F25642E2564C0
:105270002025642025730D0A5365727665723A20E5
:1052800045746865726E75742025730D0A00FFFF02
:10529000FF30FFFFFFFFFFFFFFFFFFFFFFFFFFFFED
:1052A000FFFFFFFFFFFFFFFFFFFFFF3EFFFFFF3F8F
:1052B0003435363738393A3B3C3DFFFFFFFFFFFFBF
:1052C000FF000102030405060708090A0B0C0D0E76
:1052D0000F10111213141516171819FFFFFFFFFFF7
:1052E000FF1A1B1C1D1E1F202122232425262728D0
:1052F000292A2B2C2D2E2F30313233FFFFFFFFFFB9
:1053000080EC85BFAF9AA79AAE9AA69A81EE809359
:10531000008380E48093018385B78F7785BF80E029
:1053200090E09D9B05C0019641F09D9BF8CFFBCF7F
:10533000019619F09D99F3CFFBCF85B7806885BFA3
:10534000AF98A798AE98A69887E089B980939900FE
:1053500011241FBECFEFD0E1DEBFCDBF1BE0A0E028
:10536000B1E0E0E3F4E301E00BBF02C007900D926F
:10537000A03FB107D9F71DE0A0EFBBE001C01D922F
:10538000A735B107E1F78FEF9FE79EBF8DBF8FEF86
:105390009FE787559D408158914050F04FEF5EE761
:1053A00047555D4067E57DE080EF9CE00E94024E3E
:1053B0000E94FC5520E831E040E050E063E07EE2EE
:1053C0008AEB96E00E946C560E9400000C94169A9C
:1053D0000C9400009C01E199FECF3FBB2EBBE09AEC
:1053E0008DB308959C01E199FECF3FBB2EBB6DBBF1
:1053F0000FB6F894E29AE19A0FBE0895E2E6F0E063
:10540000808190E48927808308954F925F926F9204
:105410007F928F929F92AF92BF92CF92DF92EF9244
:10542000FF920F931F93DF93CF93CDB7DEB76297B1
:105430000FB6F894DEBF0FBECDBF80E092ECA1E0C6
:10544000B0E089839A83AB83BC8385E69AE060E011
:1054500070E040E00E94BF5540914B0B50914C0BC7
:1054600080E091E066E071E00E94DE8780914B0B66
:1054700090914C0B0E94488761E071E0AE014F5F54
:105480005F4F0E94DE8568EC70E080E090E00E9453
:10549000DD520E94265600D000D028E031E0EDB762
:1054A000FEB732832183948383830E940B890F90FC
:1054B0000F900F900F9088E89AE060E070E040E075
:1054C0000E94BF55892B21F082E291E00E941D8944
:1054D00000D000D08DE391E0EDB7FEB792838183D9
:1054E0008EE491E0948383830E940B89DE011596FC
:1054F000E2E2F2E087E001900D928150E1F70F9037
:105500000F900F900F9083E591E00E941D89F5E0C8
:105510004F2E512C4C0E5D1E8EE491E0B20120E620
:105520003AEE40E050E00E941B2F892B09F446C060
:1055300083E691E00E94D86A5B016C0181E791E00B
:105540000E94D86A7B018C018FE791E00E94D86AA3
:105550003B014C018BE891E00E941D898EE491E0B3
:10556000B201A60195010E94526E892B19F56114B2
:10557000710481049104D9F000D086E991E0EDB77F
:10558000FEB7928381830E940B890F900F9060E099
:1055900070E080E090E020E030E040E050E0840106
:1055A0007301E8E8CE2EEAE0DE2E0E94B46989EAB3
:1055B00091E002C08DEA91E00E941D8960912D0D5D
:1055C00070912E0D80912F0D9091300D0E942A6BBD
:1055D00000D000D025EB31E0EDB7FEB73283218358
:1055E000948383830E940B890F900F900F900F90EC
:1055F00086E29BE060E070E040E00E94BF5589E4F5
:1056000094E060EA70E04BE050E02AEE39E20E945C
:10561000E79880914904882381F480EA90E063EC64
:1056200071E04BE050E022EF39E20E94039989E4F7
:1056300094E06FEC71E00E94959886ED91E064E44F
:1056400074E00E948A3F8CED91E00E94934082E0DA
:1056500092E061ED7CE20E94084082E192E06DE11F
:105660007CE20E94084001E010E08CE0E82EF12C82
:10567000EC0EFD1ED701E9E2F2E087E001900D9209
:105680008150E1F7802F805D898BC7016EE47DE258
:10569000A80124E432E00E946C560F5F1F4F0530D2
:1056A000110541F78EEF0E944A508091610081649C
:1056B0008093610080916200806480936200809199
:1056C00062008E7F8093620017981F9A89E59AE0A6
:1056D0006EEF79E240E050E00E94405E89E59AE09A
:1056E0000E94625E60E67AEE80E090E00E94DD5209
:1056F000F9CFCF92DF92EF92FF920F931F93CF9348
:10570000DF938C017B016A01CEE6D6E08991999105
:10571000B8010E94D58826E0C238D207B9F780E3E5
:1057200092E0EF28C1F0ADB7BEB718970FB6F89466
:10573000BEBF0FBEADBFEDB7FEB7319612961C933C
:105740000E9311979383828381E692E095838483FD
:105750008BE692E017C0ADB7BEB718970FB6F894B6
:10576000BEBF0FBEADBFEDB7FEB7319612961C930C
:105770000E931197938382838EE692E095838483C0
:1057800088E792E0978386830E94C5882DB73EB74D
:10579000285F3F4F0FB6F8943EBF0FBE2DBF8CE77A
:1057A00092E0CD28C1F0ADB7BEB718970FB6F89408
:1057B000BEBF0FBEADBFEDB7FEB7319612961C93BC
:1057C0000E9311979383828381E692E0958384837D
:1057D0008EEA92E017C0ADB7BEB718970FB6F8942F
:1057E000BEBF0FBEADBFEDB7FEB7319612961C938C
:1057F0000E931197938382838EE692E09583848340
:1058000089EB92E0978386830E94C5882DB73EB7C7
:10581000285F3F4F0FB6F8943EBF0FBE2DBF80EC00
:1058200092E0B8010E94D588DF91CF911F910F912E
:10583000FF90EF90DF90CF900895DF92EF92FF926C
:105840000F931F93CF93DF937C018B01CB0167ED07
:1058500072E00E94CA47EC01C8016DED72E00E943F
:10586000CA47BC01CE010E948C98009759F58881E7
:10587000882341F1FE0101900020E9F73197EC1BEC
:10588000FD0B3B97F8F489E494E0BE010E949598E3
:10589000DE010D900020E9F71197AC1BBD0B80EAEB
:1058A00090E0BE01AD0122EF39E20E9403990E940F
:1058B0006D3F86ED91E064E474E00E948A3FDD2450
:1058C000D39401C0DD24C701B80148EC50E023EEB9
:1058D00032E00E94A54240915E0450915F04C701EE
:1058E000B8010FEF1FEF2FEF3FEF0E94544286EEFB
:1058F00092E0B7010E94D58887E193E0B7010E944A
:10590000D58888E393E0DD20D9F02DB73EB7285045
:1059100030400FB6F8943EBF0FBE2DBFEDB7FEB7B7
:105920003196ADB7BEB71296FC92EE921197938363
:10593000828385E693E0958384838DE693E017C0A8
:10594000ADB7BEB718970FB6F894BEBF0FBEADBFC8
:10595000EDB7FEB731961296FC92EE9211979383B3
:1059600082838FE793E09583848387E893E097832E
:1059700086830E94C5882DB73EB7285F3F4F0FB67C
:10598000F8943EBF0FBE2DBFC7010E94F98680E08C
:1059900090E0DF91CF911F910F91FF90EF90DF90FA
:1059A00008958F929F92AF92BF92CF92DF92EF9223
:1059B000FF920F931F93CF93DF934C015B01CB01B9
:1059C00060E070E00E9499478C01C50160E070E0E2
:1059D0000E94B247EC01C80168E973E00E948C980C
:1059E0000097F1F4CE016DE973E00E948C98009766
:1059F000B9F0CE016AEA73E00E948C98009721F416
:105A00008091620081600AC0CE0165EB73E00E9464
:105A10008C98009729F4809162008E7F80936200B9
:105A2000E0906200C0906200C401B50148EC50E013
:105A300023EE32E00E94A54240915E0450915F0443
:105A4000C401B5010FEF1FEF2FEF3FEF0E9454424B
:105A5000FF24A6E0F694E794AA95E1F7E094F09489
:105A600081E0E822FF24DD2481E0C822DD24C40196
:105A7000B701A6010E94792BC4010E94F98680E03B
:105A800090E0DF91CF911F910F91FF90EF90DF9009
:105A9000CF90BF90AF909F908F900895F82E9FEB7E
:105AA000492E93E0592E8CED682E83E0782E0BEF73
:105AB000802E03E0902E11E3A12E14E0B12EBDE064
:105AC000CB2EB4E0DB2E0E945F668C010097D1F4F0
:105AD00000D000D0EDB7FEB73196ADB7BEB7129685
