:100000000C946A020C94BA020C9487020C94870236
:100010000C9487020C9487020C9487020C9487023C
:100020000C9487020C9487020C9487020C9487022C
:100030000C9487020C9487020C9487020C9487021C
:100040000C9487020C9487020C9487020C9487020C
:100050000C94870200000000000000FFFFFFFFFF7C
:100060000000000000000000000000000030787870
:1000700078303000303000000066666624000000F2
:1000800000000000006C6CFE6C6C6CFE6C6C000080
:1000900030307CC0C0780C0CF8303000000000C458
:1000A000CC183060CC8C00000070D8D870FADECC50
:1000B000DC760000003030306000000000000000FE
:1000C000000C183060606030180C000000603018C0
:1000D0000C0C0C1830600000000000663CFF3C6611
:1000E0000000000000000018187E18180000000032
:1000F0000000000000000000383860000000000030
:1001000000FE0000000000000000000000000000F1
:1001100038380000000002060C183060C080000073
:10012000007CC6CEDED6F6E6C67C0000001030F0BD
:100130003030303030FC00000078CCCC0C1830600F
:10014000CCFC00000078CC0C0C380C0CCC780000F7
:10015000000C1C3C6CCCFE0C0C1E000000FCC0C053
:10016000C0F80C0CCC780000003860C0C0F8CCCCD3
:10017000CC78000000FEC6C6060C183030300000F7
:100180000078CCCCEC78DCCCCC7800000078CCCCFF
:10019000CC7C18183070000000000038380000389F
:1001A00038000000000000383800003838183000EF
:1001B000000C183060C06030180C00000000000017
:1001C0007E007E0000000000006030180C060C1855
:1001D000306000000078CC0C183030003030000067
:1001E000007CC6C6DEDEDEC0C07C0000003078CCFD
:1001F000CCCCFCCCCCCC000000FC6666667C666691
:1002000066FC0000003C66C6C0C0C0C6663C00007C
:1002100000F86C66666666666CF8000000FE626058
:10022000647C646062FE000000FE6662647C646060
:1002300060F00000003C66C6C0C0CEC6663E00004E
:1002400000CCCCCCCCFCCCCCCCCC0000007830307A
:100250003030303030780000001E0C0C0C0CCCCC50
:10026000CC78000000E6666C6C786C6C66E600008A
:1002700000F060606060626666FE000000C6EEFE30
:10028000FED6C6C6C6C6000000C6C6E6F6FEDECE70
:10029000C6C6000000386CC6C6C6C6C66C380000AC
:1002A00000FC6666667C606060F0000000386CC62A
:1002B000C6C6CEDE7C0C1E0000FC6666667C6C66E4
:1002C00066E600000078CCCCC07018CCCC7800007A
:1002D00000FCB430303030303078000000CCCCCC72
:1002E000CCCCCCCCCC78000000CCCCCCCCCCCCCC06
:1002F0007830000000C6C6C6C6D6D66C6C6C00004E
:1003000000CCCCCC783078CCCCCC000000CCCCCCA1
:10031000CC7830303078000000FECE981830606223
:10032000C6FE0000003C303030303030303C000041
:10033000000080C06030180C06020000003C0C0C6D
:100340000C0C0C0C0C3C000010386CC600000000BB
:100350000000000000000000000000000000FF009E
:100360003030180000000000000000000000000015
:10037000780C7CCCCC76000000E060607C66666621
:1003800066DC00000000000078CCC0C0CC78000023
:10039000001C0C0C7CCCCCCCCC7600000000000007
:1003A00078CCFCC0CC78000000386C6060F86060ED
:1003B00060F000000000000076CCCCCC7C0CCC7847
:1003C00000E060606C76666666E600000018180063
:1003D00078181818187E0000000C0C003C0C0C0C4F
:1003E0000CCCCC7800E06060666C786C66E600004F
:1003F0000078181818181818187E0000000000005F
:10040000FCD6D6D6D6C6000000000000F8CCCCCC76
:10041000CCCC00000000000078CCCCCCCC78000024
:1004200000000000DC666666667C60F0000000008C
:1004300076CCCCCCCC7C0C1E00000000EC6E766040
:1004400060F000000000000078CC6018CC7800005C
:1004500000002060FC6060606C380000000000005C
:10046000CCCCCCCCCC76000000000000CCCCCCCCEA
:100470007830000000000000C6C6D6D66C6C0000C4
:1004800000000000C66C38386CC600000000000098
:10049000666666663C0C18F000000000FC8C186074
:1004A000C4FC0000001C303060C06030301C000014
:1004B00000181818180018181818000000E030303C
:1004C000180C183030E000000073DACE0000000095
:1004D0000000000011241FBECFE5D4E0DEBFCDBF79
:1004E00012E0A0E6B0E0ECE0F3E202C005900D926D
:1004F000A438B107D9F712E0A4E8B2E001C01D9218
:10050000A239B107E1F70E947A030C9484110C948C
:1005100000000F931F9383E88FBD8091A7009091F7
:10052000A8009BBD8ABD2091A7003091A80000D0F3
:1005300000D000D0EDB7FEB7319606E812E0118387
:10054000008380E690E093838283358324830E9436
:10055000AC0E8DB79EB706960FB6F8949EBF0FBE31
:100560008DBF89E26AE5A80121E00E94E5061F919E
:100570000F9108951F920F920FB60F9211242F938F
:100580003F934F935F936F937F938F939F93AF931B
:10059000BF93EF93FF93EBE5F0E080818F7B808347
:1005A00088EE93E00197F1F782998EC020E030E069
:1005B000E0E3F0E091E00AC0892F8A95F1F72F5F20
:1005C0003F4F89E02136380709F47EC0808182FFE1
:1005D000F3CF50E0E0E3F0E041E060E070E00AC01B
:1005E000842F8A95F1F72F5F3F4F82E02935380736
:1005F00008F06AC0808182FDF3CF9B010AC0842F7E
:100600008A95F1F72F5F3F4F81E02D32380709F4CB
:100610005BC0808182FFF3CF80918402909185023C
:1006200096958795909385028093840227393105AA
:1006300048F08091840290918502986090938502A1
:10064000809384025F5F5C30A8F280918402909175
:10065000850225E08635920781F127E081379207F0
:1006600021F08453934081F514C08091A7009091AC
:10067000A8008959934050F48091A7009091A80058
:100680008C599F4F9093A8008093A7000E948902E5
:100690001BC08091A7009091A8008837910550F069
:1006A0008091A7009091A800845690409093A80054
:1006B0008093A7000E94890207C088EC90E0909385
:1006C000A8008093A7001FBCEBE5F0E08081806468
:1006D0008083FF91EF91BF91AF919F918F917F9117
:1006E0006F915F914F913F912F910F900FBE0F909F
:1006F0001F9018951F938BEF81BB8FEF8ABB87BB31
:100700000E94B3040E948E0482E268E04AE650E050
:1007100020E00E94E50684E16EE14BE750E020E036
:100720000E94E50684E16EE244E850E020E00E9489
:10073000E50684E16EE346E950E020E00E94E5062C
:1007400083E88FBD12E01EBD0E94890215BFEBE554
:10075000F0E08081806480837894FFCFAAE3B0E0EA
:100760001C92E8E3F0E080818460808380818D7F4B
:10077000808381E08A95F1F789B3908192609083BC
:100780009FEF9C930895AAE3B0E01C92E8E3F0E0A9
:1007900080818B7F808380818D7F808381E08A95BB
:1007A000F1F789B39081926090839FEF9C930895B5
:1007B0009FEF9ABBE8E3F0E090819B7F90838BBB37
:1007C00080818E7F808381E08A95F1F780818160CE
:1007D000808308959FEF9ABBE8E3F0E090819460F6
:1007E00090838BBB80818E7F808381E08A95F1F737
:1007F00080818160808308951F931AE00E94AE0378
:100800008370833011F01150C9F7812F1F91089523
:100810001F931AE00E94AE0383FD02C01150D1F76E
:10082000812F1F910895FF920F931F93F82E162F7B
:10083000042F0E94FC03882311F481E016C0812F4D
:100840000E94D8030E94FC03882311F482E00DC0AB
:10085000802F0E94D8030E94FC03882311F483E0B8
:1008600004C08F2D0E94EA0380E01F910F91FF903A
:1008700008950F931F93082F162F0E94FC038823BF
:1008800011F481E00DC0812F0E94D8030E94FC0367
:10089000882311F482E004C0802F0E94EA0380E0E4
:1008A0001F910F9108951F93182F0E94FC03882316
:1008B00011F481E004C0812F0E94EA0380E01F91BF
:1008C00008951F93182F0E940804882311F481E0D3
:1008D00004C0812F0E94D80380E01F9108950E94D8
:1008E000FC03882311F481E008950E94C303089556
:1008F0000F931F93182F062F24E1829F900111243C
:10090000260F311D84E2622F432F0E94130410939F
:100910009102009390021F910F910895CF93DF935E
:1009200084E260E040E00E94130480EB0E945304E4
:10093000C0E0D0E00E94080480E00E94610421969B
:1009400080E2C030D807B1F782EB0E94530484E202
:1009500060E040E00E941304109291021092900215
:10096000DF91CF91089580E460E040E00E9413049D
:1009700081E464E140E00E94130482E460E040E02E
:100980000E94130483E464E140E00E94130481EABE
:100990000E94530480E80E94530488E90E94530493
:1009A00080E00895CF92DF92EF92FF920F931F9312
:1009B000082FD42E0F2EF7E0FF2EF02DF622C62E94
:1009C000C694C694C694842F6C2D0E94780481EB43
:1009D0000E9453040E946F04E82E0E946F0498E066
:1009E0009F1910E04FEF50E09A01092E02C0220F2C
:1009F000331F0A94E2F7E22298010F2C02C03595CA
:100A000027950A94E2F7E22A02C0000F111F9A9577
:100A1000E2F702C055954795FA94E2F7F82EF422D2
:100A2000F02A82EB0E9453048D2D6C2D0E947804D5
:100A300080EB0E9453048E2D0E9461048F2D0E9432
:100A4000610482EB0E9453041F910F91FF90EF907D
:100A5000DF90CF9008951F93982F262F8095877051
:100A6000182F106F41111860692F6695669566956D
:100A7000822F0E947804812F806F0E9453041F915F
:100A80000895FC01DB0190818C9180839C930895F3
:100A90002F923F924F925F926F927F928F929F928E
:100AA000AF92BF92CF92DF92EF92FF920F931F937C
:100AB000DF93CF9300D000D00F92CDB7DEB78983FC
:100AC0006A834B832C83302EC62E462E55242D83CD
:100AD000822E9924D82E682E7724242EA42EBB246F
:100AE000B20168197909882777FD8095982F0E94AF
:100AF000050C7B018C01E89417F9B3016A197B0995
:100B0000882777FD8095982F0E94050C9B01AC01EA
:100B10005F77C801B7010E94D50B18160CF464C0AA
:100B2000B40164197509882777FD8095982F0E9474
:100B3000050C7B018C01B50166197709882777FDC3
:100B40008095982F0E94050C9B01AC01C801B7014C
:100B50000E94F90A4B015C01B201882777FD80955C
:100B6000982F0E94050C7B018C01B301882777FD2B
:100B70008095982F0E94050CA50194010E94FF0901
:100B80009B01AC01C801B7010E94A1097B018C0146
:100B90002D1460F4CE010196BE016D5F7F4F0E945F
:100BA0004105D9808B818D1508F480C06D2D70E0D2
:100BB000882777FD8095982F0E94050CA501940148
:100BC0000E94FF09A80197010E94D2090E942908EA
:100BD0009B01AC018D2D622F432D0E942B05D394D8
:100BE0008B818D1518F762C0B501661977098827C2
:100BF00077FD8095982F0E94050C7B018C01B40134
:100C000064197509882777FD8095982F0E94050C37
:100C10009B01AC01C801B7010E94F90A4B015C01BC
:100C2000B301882777FD8095982F0E94050C7B01E2
:100C30008C01B201882777FD8095982F0E94050CC2
:100C4000A50194010E94FF099B01AC01C801B701F5
:100C50000E94A1097B018C018D818C1558F4CE0175
:100C60000296BE016C5F7F4F0E944105CA808C8155
:100C70008C15E0F06C2D70E0882777FD8095982F1B
:100C80000E94050CA50194010E94FF09A80197018B
:100C90000E94D2090E942908DC01CB016C2D432D52
:100CA0000E942B05C3948C818C1520F70F900F9018
:100CB0000F900F900F90CF91DF911F910F91FF90A8
:100CC000EF90DF90CF90BF90AF909F908F907F90EC
:100CD0006F905F904F903F902F9008952F923F928A
:100CE0004F925F926F927F928F929F92AF92BF923C
:100CF000CF92DF92EF92FF920F931F93DF93CF93E8
:100D000000D00F92CDB7DEB75C01562E442EFC0109
:100D10003196E4918E2E99248114910409F43FC0F8
:100D2000CC24DD24FC01F491F9832F2E33247101AE
:100D3000F694E794F694E794F694E794662477247F
:100D4000852D8C0D642D0E94780480EB0E94530445
:100D5000E114F104D9F0EC9CC001ED9C900DFC9CD9
:100D6000900D112402968501080F191F7B826A825B
:100D7000F80184910E9461048A819B8101969B8382
:100D80008A830F5F1F4F8E159F0590F382EB0E94A1
:100D900053040894C11CD11CC814D90488F20F90C4
:100DA0000F900F90CF91DF911F910F91FF90EF90D7
:100DB000DF90CF90BF90AF909F908F907F906F907B
:100DC0005F904F903F902F9008952F923F924F92B7
:100DD0005F926F927F928F929F92AF92BF92CF92CB
:100DE000DF92EF92FF920F931F93DF93CF9300D088
:100DF00000D00F92CDB7DEB7982E562E5B834A8374
:100E0000822EAA81BB81FD0101900020E9F7319774
:100E1000EA1BFB0BE983EE2309F403C144242224DB
:100E2000EA81FB81E40DF11DF1901081E92CE6943B
:100E3000E694E694852D6E2D0E947804FF200CF434
:100E40006FC02FE12F15D4F03AE0F31639F08DE0A2
:100E5000F81621F098E0F91689F40AC04394AFE639
:100E6000A51510F49924B6C0BCE05B0E9924B2C05D
:100E70004394E8E0E51510F4F8EF5F0E2F2D3CE009
:100E80002302C00111249C01245731400F2EF4E5A8
:100E90006F2EF0E07F2EF02D620E731E152D292D82
:100EA00030E00F2EF7E0AF2EBB24F02DA222B322AC
:100EB000885691400F2EF4E5CF2EF0E0DF2EF02D76
:100EC000C80ED91E8EE18F15D4F4F3010491811060
:100ED0000095812F6E2D0E947804A114B10451F465
:100EE00080EB0E945304802F0E94610482EB0E94D9
:100EF000530405C0802F692D412F0E94D204812FF9
:100F00006E2D0E9478041F5F0894611C711C6C1484
:100F10007D04C1F6F8E0FF1609F45BC09F0E59C0CE
:100F2000EBEAF0E0CC2480818F1521F481818117D8
:100F300009F455C0C3947A9628E0C216A1F74FC0B1
:100F4000FD2CF50C8F2D6E2D0E94780437E03C159A
:100F500018F4122D022D05C0AC81BD811C91119693
:100F60000C916114710461F480EB0E9453048110B0
:100F70001095812F0E94610482EB0E94530407C0E8
:100F800081101095812F692D4F2D0E94D204A1143C
:100F9000B10461F480EB0E94530481100095802F0E
:100FA0000E94610482EB0E94530407C081100095E7
:100FB000802F632D4F2D0E94D204D394EC81FD81AC
:100FC0003296FD83EC83FCE0DF1609F0B9CF9F0E6B
:100FD000439443942981421608F422CF22C03AE177
:100FE000C39EC00111240296ABEAB0E0A80FB91F5E
:100FF000BD83AC83DD24892D90E00F2EF7E06F2EAA
:101000007724F02D6822792208960F2EF7E0AF2E74
:10101000BB24F02DA822B9223324689433F8390C6C
:101020008FCF0F900F900F900F900F90CF91DF9177
:101030001F910F91FF90EF90DF90CF90BF90AF90F6
:101040009F908F907F906F905F904F903F902F90E8
:101050000895EF92FF920F931F937B018C0120E084
:1010600030E040E05FE40E94A50B88238CF0C801CB
:10107000B70120E030E040E05FE40E94A1090E9457
:10108000630C9B01AC01205030404040504806C0EA
:10109000C801B7010E94630C9B01AC01B901CA01F0
:1010A0001F910F91FF90EF900895A0E0B0E0EBE565
:1010B000F8E00C944D11DC012B01FA019C91923067
:1010C00008F439C1EB018881823008F433C19430CF
:1010D00069F4843009F02FC111969C911197898190
:1010E000981709F428C1ABE7B1E025C1843009F4B1
:1010F00021C18230A9F4923009F01DC19A01AD01DD
:1011000088E0EA010990AE01E90109929E0181504F
:10111000C1F7E201898111969C918923818308C1DD
:10112000923009F407C112962D903C901397EB0171
:101130008A819B811496AD90BD90CD90DC901797DD
:10114000EC80FD800E811F819101281B390BB901B4
:1011500037FF04C066277727621B730B6032710567
:101160000CF061C0121613066CF537014801062E0B
:1011700004C096948794779467940A94D2F721E0F8
:1011800030E040E050E004C0220F331F441F551FE1
:101190006A95D2F721503040404050402E213F21E7
:1011A00040235123211531054105510521F021E04E
:1011B00030E040E050E079018A01E628F72808296C
:1011C00019293CC0232BD1F1260E371E35014601CB
:1011D000062E04C096948794779467940A94D2F765
:1011E00021E030E040E050E004C0220F331F441FF4
:1011F000551F6A95D2F721503040404050402A2177
:101200003B214C215D21211531054105510521F07E
:1012100021E030E040E050E059016A01A628B728FB
:10122000C828D9280BC0821593052CF01C01AA24CC
:10123000BB24650103C0EE24FF24870111969C9115
:10124000D20111968C91981709F445C0992339F071
:10125000A80197012A193B094C095D0906C0A6019E
:1012600095012E193F09400B510B57FD08C0118203
:101270003382228224833583468357831DC081E0D5
:1012800081833382228288279927DC01821B930B7A
:10129000A40BB50B84839583A683B7830DC0220F5F
:1012A000331F441F551F2483358346835783828110
:1012B000938101979383828324813581468157816D
:1012C000DA01C9010197A109B1098F5F9F4FAF4FA3
:1012D000BF4328F30BC0918333822282EA0CFB1CAC
:1012E0000C1D1D1DE482F5820683178383E0808335
:1012F000248135814681578157FF1AC0C901AA2729
:1013000097FDA095BA2F81709070A070B07056951F
:10131000479537952795822B932BA42BB52B848348
:101320009583A683B7838281938101969383828379
:10133000DF0101C0D201CD01CDB7DEB7E2E10C94EF
:101340006911A0E2B0E0E7EAF9E00C945911698371
:101350007A838B839C832D833E834F835887E9E078
:10136000EE2EF12CEC0EFD1ECE010196B7010E946F
:10137000DB0D8E010F5E1F4FCE010596B8010E9456
:10138000DB0D8A8991E089278A8BC701B801AE01FC
:10139000475E5F4F0E9455080E94060DA096E6E04A
:1013A0000C947511A0E2B0E0E8EDF9E00C9459114D
:1013B00069837A838B839C832D833E834F835887F5
:1013C000F9E0EF2EF12CEC0EFD1ECE010196B701D7
:1013D0000E94DB0D8E010F5E1F4FCE010596B801F6
:1013E0000E94DB0DC701B801AE01475E5F4F0E944E
:1013F00055080E94060DA096E6E00C947511A0E237
:10140000B0E0E5E0FAE00C944D1169837A838B83B8
:101410009C832D833E834F835887CE010196BE0166
:10142000675F7F4F0E94DB0DCE010596BE016F5EA8
:101430007F4F0E94DB0D9985923088F08989823038
:10144000C8F0943019F4823051F404C0843029F487
:10145000923081F48BE791E0C6C0923049F420E0ED
:101460009A858A89981321E02A87CE010996BBC004
:10147000823049F420E09A858A89981321E02A8BEA
:10148000CE014196B0C02D843E844F8458886D882B
:101490007E888F88988CEE24FF248701AA24BB24A1
:1014A000650140E050E060E070E0E0E0F0E0C101A4
:1014B00081709070892BE9F0E60CF71C081D191D4E
:1014C0009A01AB012A0D3B1D4C1D5D1D80E090E093
:1014D000A0E0B0E0E614F7040805190520F481E067
:1014E00090E0A0E0B0E0BA01A901480F591F6A1FBF
:1014F0007B1FAA0CBB1CCC1CDD1C97FE08C081E026
:1015000090E0A0E0B0E0A82AB92ACA2ADB2A3196E6
:10151000E032F10549F0660C771C881C991C569442
:10152000479437942794C3CFFA85EA892B893C895D
:101530008B859C85280F391F2E5F3F4F17C0CA012E
:1015400081709070892B61F016950795F794E79458
:1015500080E090E0A0E0B0E8E82AF92A0A2B1B2BF3
:1015600076956795579547952F5F3F4F77FDE7CF66
:101570000CC0440F551F661F771F17FD4160EE0C0E
:10158000FF1C001F111F21503040403090E05907D0
:1015900090E0690790E4790760F32B8F3C8FDB01C3
:1015A000CA018F779070A070B07080349105A1054A
:1015B000B10561F447FD0AC0E114F104010511050C
:1015C00029F0405C5F4F6F4F7F4F40781A8EFE17B7
:1015D00011F081E08A8F4D8F5E8F6F8F78A383E04B
:1015E000898FCE0149960E94060DA096E2E10C94E7
:1015F0006911A8E1B0E0EFEFFAE00C9455116983AE
:101600007A838B839C832D833E834F835887B9E0F5
:10161000EB2EF12CEC0EFD1ECE010196B7010E94BF
:10162000DB0D8E010F5E1F4FCE010596B8010E94A3
:10163000DB0D2985223008F47EC03989323010F460
:10164000B8017CC08A859A8989278A87243011F05D
:10165000223031F4231709F06EC06BE771E06EC0E1
:10166000343039F41D861E861F86188A1C861B8618
:1016700004C0323021F484E08987B7015FC02B8534
:101680003C858B899C89281B390B3C872B87ED84F3
:10169000FE840F851889AD88BE88CF88D88CEA145F
:1016A000FB040C051D0540F4EE0CFF1C001F111F70
:1016B000215030403C872B8720E030E040E050E074
:1016C00080E090E0A0E0B0E460E070E0EA14FB04A9
:1016D0000C051D0540F0282B392B4A2B5B2BEA18F3
:1016E000FB080C091D09B695A79597958795EE0CF3
:1016F000FF1C001F111F6F5F7F4F6F31710531F7A6
:10170000DA01C9018F779070A070B07080349105B4
:10171000A105B10561F427FD0AC0E114F10401053A
:10172000110529F0205C3F4F4F4F5F4F20782D87E8
:101730003E874F87588BBE01675F7F4FCB010E946A
:10174000060D6896EAE00C947111A8E1B0E0EBEAAE
:10175000FBE00C94591169837A838B839C832D83DE
:101760003E834F83588789E0E82EF12CEC0EFD1E56
:10177000CE010196B7010E94DB0D8E010F5E1F4F57
:10178000CE010596B8010E94DB0D8985823040F0BC
:101790008989823028F0C701B8010E94530E01C028
:1017A0008FEF6896E6E00C947511A8E1B0E0EBEDE0
:1017B000FBE00C94591169837A838B839C832D837E
:1017C0003E834F83588789E0E82EF12CEC0EFD1EF6
:1017D000CE010196B7010E94DB0D8E010F5E1F4FF7
:1017E000CE010596B8010E94DB0D8985823040F05C
:1017F0008989823028F0C701B8010E94530E01C0C8
:1018000081E06896E6E00C947511A8E0B0E0EBE0AA
:10181000FCE00C9456119B01AC0183E08983DA0152
:10182000C9018827B7FD83959927AA27BB27B82E1A
:10183000211531054105510519F482E089833AC02B
:101840008823A9F0203080E0380780E0480780E84E
:10185000580729F460E070E080E09FEC30C0EE248F
:10186000FF248701E21AF30A040B150B02C0790169
:101870008A018EE1C82ED12CDC82CB82ED82FE82E1
:101880000F831887C801B7010E94B70C019718167B
:10189000190684F4082E04C0EE0CFF1C001F111F53
:1018A0000A94D2F7ED82FE820F831887C81AD90AEC
:1018B000DC82CB82BA82CE0101960E94060D289668
:1018C000E9E00C947211ACE0B0E0E9E6FCE00C94C5
:1018D0005D1169837A838B839C83CE010196BE015F
:1018E0006B5F7F4F0E94DB0D8D81823061F1823012
:1018F00050F1843021F48E81882351F12EC02F8144
:10190000388537FD20C06E812F3131051CF06623EC
:10191000F9F023C08EE190E0821B930B29853A8574
:101920004B855C8504C056954795379527958A95D4
:10193000D2F76623B1F050954095309521953F4FF1
:101940004F4F5F4F0EC020E030E040E050E009C054
:101950002FEF3FEF4FEF5FE704C020E030E040E0C3
:1019600050E8B901CA012C96E2E00C947911EF928B
:10197000FF920F931F937B018C0180E0E81680E0BB
:10198000F80681E0080780E0180788F48FEFE81672
:10199000F1040105110531F028F088E090E0A0E0A5
:1019A000B0E017C080E090E0A0E0B0E012C080E0BE
:1019B000E81680E0F80680E0080781E0180728F0C4
:1019C00088E190E0A0E0B0E004C080E190E0A0E019
:1019D000B0E020E230E040E050E0281B390B4A0B39
:1019E0005B0B04C016950795F794E7948A95D2F798
:1019F000F701ED57FE4F8081281B3109410951093C
:101A0000C9011F910F91FF90EF900895DF92EF921F
:101A1000FF920F931F93FC01E480F58006811781EC
:101A2000D1808081823048F480E090E0A0E1B0E095
:101A3000E82AF92A0A2B1B2BA5C0843009F49FC081
:101A4000823021F4EE24FF24870105C0E114F10463
:101A50000105110519F4E0E0F0E096C062817381A0
:101A60009FEF623879070CF05BC022E83FEF261B3E
:101A7000370B2A3131052CF020E030E040E050E017
:101A80002AC0B801A701022E04C076956795579524
:101A900047950A94D2F781E090E0A0E0B0E004C05E
:101AA000880F991FAA1FBB1F2A95D2F70197A1097A
:101AB000B1098E219F21A023B1230097A105B10573
:101AC00021F081E090E0A0E0B0E09A01AB01282B8A
:101AD000392B4A2B5B2BDA01C9018F779070A070EC
:101AE000B07080349105A105B10539F427FF09C014
:101AF000205C3F4F4F4F5F4F04C0215C3F4F4F4F23
:101B00005F4FE0E0F0E02030A0E03A07A0E04A07B5
:101B1000A0E45A0710F0E1E0F0E079018A0127C063
:101B20006038710564F5FB01E158FF4FD801C7012A
:101B30008F779070A070B07080349105A105B105C9
:101B400039F4E7FE0DC080E490E0A0E0B0E004C00E
:101B50008FE390E0A0E0B0E0E80EF91E0A1F1B1F23
:101B600017FF05C016950795F794E794319687E01F
:101B700016950795F794E7948A95D1F705C0EE245A
:101B8000FF248701EFEFF0E06E2F679566276795DA
:101B9000902F9F77D794DD24D7948E2F8695492F49
:101BA000462B582F5D29B701CA011F910F91FF9055
:101BB000EF90DF900895FC01DB014081518122818B
:101BC000622F6F7770E0221F2227221F9381892FB7
:101BD000880F822B282F30E0991F9927991F119683
:101BE0009C93119721153105A9F541155105610502
:101BF000710511F482E037C082E89FEF13969C9341
:101C00008E9312979A01AB0167E0220F331F441F96
:101C1000551F6A95D1F783E08C930DC0220F331FB7
:101C2000441F551F12968D919C91139701971396FF
:101C30009C938E931297203080E0380780E048070D
:101C400080E4580758F314962D933D934D935C937D
:101C5000179708952F3F310579F441155105610516
:101C6000710519F484E08C93089564FF03C081E04A
:101C70008C9312C01C9210C02F57304013963C9387
:101C80002E93129783E08C9387E0440F551F661FB5
:101C9000771F8A95D1F7706414964D935D936D9379
:101CA0007C93179708951F93DC01FB019C91923060
:101CB00008F447C08081823008F443C0943051F466
:101CC00011961C91843099F58181682F70E0611B19
:101CD00071093FC0843021F0923031F48230B9F183
:101CE0008181882389F12DC011961C911197823032
:101CF000F1F081811817D9F412962D913C91139728
:101D0000828193818217930794F028173907BCF0DA
:101D100014968D919D910D90BC91A02D24813581BB
:101D200046815781281739074A075B0718F41123A2
:101D300041F00AC082179307A407B50740F41123A6
:101D400019F061E070E005C06FEF7FEF02C060E066
:101D500070E0CB011F910895AEE0B0E0E2EBFEE051
:101D60000C945B110D891E8986E08C831A8309838C
:101D70008FEF9FE79E838D839E01275E3F4FCE01AD
:101D800001966F89788DA9010E94D00E2F81388528
:101D9000020F131FF80110822E96E4E00C947711C5
:101DA000ABE0B0E0E6EDFEE00C944D113C012B0100
:101DB0005A01FC0117821682838181FD03C06FEFF7
:101DC0007FEFC6C19AE0892E1E010894211C311CA8
:101DD000F3012381F20123FD859123FF81912F01DE
:101DE000882309F4B2C1853239F423FD859123FF9C
:101DF00081912F01853229F490E0B3010E94C31034
:101E0000E7CF982FFF24EE249924FFE1FF15D0F0AF
:101E10009B3269F09C3228F4903259F0933291F45D
:101E20000EC09D3249F0903369F441E024C052E085
:101E3000F52A84E0F82A28C098E0F92A25C0E0E1D4
:101E4000FE2A22C0F7FC29C0892F80538A3070F403
:101E5000F6FE05C0989C902C1124980E15C0E89CA5
:101E6000E02C1124E80EF0E2FF2A0EC09E3229F485
:101E7000F6FC6BC140E4F42A07C09C3619F450E824
:101E8000F52A02C0983649F4F20123FD959123FF0B
:101E900091912F01992309F0B8CF892F8554833070
:101EA00018F08052833038F444E050E0A40EB51EA0
:101EB0005FE359830FC0933631F0933779F0933550
:101EC00009F056C020C0F5018081898342E050E0CE
:101ED000A40EB51E610101E010E012C0F501C08042
:101EE000D180F6FC03C06FEF7FEF02C0692D70E078
:101EF00042E050E0A40EB51EC6010E94B8108C014D
:101F00005FE7F52214C0F501C080D180F6FC03C064
:101F10006FEF7FEF02C0692D70E042E050E0A40E49
:101F2000B51EC6010E94AD108C0150E8F52AF3FEE3
:101F300007C01AC080E290E0B3010E94C310EA9487
:101F40008E2D90E008171907A8F30EC0F601F7FCD4
:101F50008591F7FE81916F0190E0B3010E94C3105B
:101F6000E110EA94015010400115110579F7EAC01B
:101F7000943611F0993669F5F7FE08C0F501208115
:101F800031814281538184E090E00AC0F501808173
:101F900091819C01442737FD4095542F82E090E0C9
:101FA000A80EB91E9FE6F92257FF09C0509540952B
:101FB000309521953F4F4F4F5F4FE0E8FE2ACA0111
:101FC000B901A1012AE030E00E94EF10D82ED2180A
:101FD00040C0953729F41F2D1F7E2AE030E01DC038
:101FE0001F2D197F9F3661F0903720F4983509F046
:101FF000ACC00FC0903739F0983709F0A6C004C0C4
:1020000028E030E00AC0106114FD146020E130E0E7
:1020100004C014FD166020E132E017FF08C0F5018E
:10202000608171818281938144E050E008C0F501B4
:1020300080819181BC0180E090E042E050E0A40EFC
:10204000B51EA1010E94EF10D82ED2188FE7F82EEE
:10205000F122F6FE0BC05EEFF522D91438F4F4FE3F
:1020600007C0F2FC05C08FEEF82202C01D2D01C092
:10207000192DF4FE0DC0FE01ED0DF11D80818033A0
:1020800019F499EEF92208C01F5FF2FE05C003C0E3
:102090008F2D867809F01F5F0F2DF3FC14C0F0FE22
:1020A0000FC01E1510F09D2C0BC09D2C9E0C911A7C
:1020B0001E2D06C080E290E0B3010E94C3101F5F96
:1020C0001E15C0F304C01E1510F4E11A01C0EE2461
:1020D00004FF0FC080E390E0B3010E94C31002FF31
:1020E0001DC001FD03C088E790E00EC088E590E0C8
:1020F0000BC0802F867891F001FF02C08BE201C0F7
:1021000080E2F7FC8DE290E0B3010E94C31006C0AC
:1021100080E390E0B3010E94C3109A94D914C0F3F5
:10212000DA94F101ED0DF11D808190E0B3010E9480
:10213000C310DD20A9F706C080E290E0B3010E9441
:10214000C310EA94EE20C1F743CEF3016681778194
:10215000CB012B96E2E10C946911FC0105906150D2
:1021600070400110D8F7809590958E0F9F1F0895AD
:10217000FC016150704001900110D8F78095909556
:102180008E0F9F1F08950F931F93CF93DF938C01A2
:10219000EB018B8181FF1BC082FF0DC02E813F812F
:1021A0008C819D812817390764F4E881F9810193B6
:1021B000F983E88306C0E885F985802F0995892B86
:1021C00031F48E819F8101969F838E8302C00FEF31
:1021D0001FEFC801DF91CF911F910F910895FA0170
:1021E000AA27283051F1203181F1E8946F936E7F56
:1021F0006E5F7F4F8F4F9F4FAF4FB1E03ED0B4E047
:102200003CD0670F781F891F9A1FA11D680F791F87
:102210008A1F911DA11D6A0F711D811D911DA11D98
:1022200020D009F468943F912AE0269F11243019A8
:10223000305D3193DEF6CF010895462F4770405D43
:102240004193B3E00FD0C9F7F6CF462F4F70405DF2
:102250004A3318F0495D31FD4052419302D0A9F74D
:10226000EACFB4E0A6959795879577956795BA9547
:10227000C9F700976105710508959B01AC010A2E0D
:1022800006945795479537952795BA95C9F7620FE4
:10229000731F841F951FA01D08952F923F924F9288
:1022A0005F926F927F928F929F92AF92BF92CF92E6
:1022B000DF92EF92FF920F931F93CF93DF93CDB7EF
:1022C000DEB7CA1BDB0B0FB6F894DEBF0FBECDBF67
:1022D00009942A88398848885F846E847D848C8438
:1022E0009B84AA84B984C884DF80EE80FD800C8141
:1022F0001B81AA81B981CE0FD11D0FB6F894DEBF24
:0C2300000FBECDBFED010895F894FFCF93
:10230C0053504545443A25346400BAECCDE2D2A38F
:10231C00BFD8D3A6D3C3D1DDCABE00496E667261E5
:10232C007265640052656D6F746520436F6E7472D4
:10233C006F6C6C6572004170706C69636174696F6D
:10234C006E2044656D6F00C8001480BAEC20002F1D
:10235C00E041009100E10021005900E10009003149
:10236C0000CFE00000CDE2210021003D00450045FA
:10237C0080A940192011002100410081000000D2E9
:10238C00A381C05E400A800500CFC051005FE049C8
:10239C00404FC0A0009FE00000BFD821002FE0F804
:1023AC0020228034406820A7C0210021002100EFAA
:1023BC00E00000D3A604007FE040004440544052AB
:1023CC00404A804A8041008100BFE00000D3C37FB7
:1023DC00C0444044407FC0444044407FC0444044DB
:1023EC0040844085C00000D1DD82005FE01020AF4A
:1023FC00C062002FC04A404FC0CA404FC058600056
:10240C0000CABE00807FC000000000FFE004001482
:10241C00802440442084201C0000000000000000A8
:10242C00000000000102020303030304040404047B
:10243C000404040505050505050505050505050543
:10244C000505050606060606060606060606060623
:10245C000606060606060606060606060606060610
:10246C0006060607070707070707070707070707F3
:10247C0007070707070707070707070707070707E0
:10248C0007070707070707070707070707070707D0
:10249C0007070707070707070707070707070707C0
:1024AC0007070708080808080808080808080808A3
:1024BC000808080808080808080808080808080890
:1024CC000808080808080808080808080808080880
:1024DC000808080808080808080808080808080870
:1024EC000808080808080808080808080808080860
:1024FC000808080808080808080808080808080850
:10250C00080808080808080808080808080808083F
:10251C00080808080808080808080808080808082F
:04252C000808080093
:00000001FF
