:1000000010C063C029C028C027C026C025C024C096
:1000100023C022C021C020C01FC01EC01DC01CC0E4
:100020001BC011241FBECFE5D2E0DEBFCDBF10E064
:10003000A0E6B0E0E8E4F4E002C005900D92A2373B
:10004000B107D9F710E0A2E7B0E001C01D92AB37CD
:10005000B107E1F76BD0F6C1D3CF20E0E8E3F0E0E1
:1000600041E038E7808184278083832F8A95F1F7E8
:100070002F5F2436B9F708950F931F9308E310E01C
:10008000F80180818F7B80838AE3809373FF11D195
:1000900068E572E031D1282F392F30936C0020931E
:1000A0006B0080916B0090916C00E0E7FFEF808324
:1000B000118280916B0090916C009083F801808197
:1000C000806480831F910F9108951F920F920FB645
:1000D0000F9211242F933F934F935F936F937F93CE
:1000E0008F939F93AF93BF93EF93FF93B6DFC4DFDC
:1000F000FF91EF91BF91AF919F918F917F916F9100
:100100005F914F913F912F910F900FBE0F901F90D5
:1001100018959091B2FF80917A00981731F09093E2
:100120007A009E3F11F4A8DF789408952F923F92B1
:100130004F925F926F927F928F929F92AF92BF92F7
:10014000CF92DF92EF92FF920F931F93CF93DF93A3
:100150008FEF8ABB87BB83EF81BB87E590E0ADD093
:10016000E5E5F0E080818268808389E88093B3FFD1
:1001700080E48BBF2224332423940F2EF1EB4F2EE7
:10018000FFEF5F2EF02D0F2EF0E66F2EF0E07F2EAA
:10019000F02D0F2EF0EB8F2EFFEF9F2EF02D0F2E58
:1001A000F8EEAF2EF3E0BF2EF02D0F2EFAE7CF2E94
:1001B000F0E0DF2EF02DC0916B00D0916C000F2E7F
:1001C000F2E7EF2EF0E0FF2EF02D07E010E0CE0179
:1001D0006AE070E07DD0482FF70181937F01CE0166
:1001E0006AE070E075D0862F972FEC01C101002ED8
:1001F00002C0880F991F0A94E2F7F2018083F3018D
:10020000E40FF11D8081F4018083C5010197F1F7AE
:1002100080DF01501040EC14FD04C9F6CCCFA0E003
:10022000B0E0E4E1F1E0BDC0EC01A880B980CA8093
:10023000DB80A114B104C104D10441F484E2A82EEE
:1002400089EDB82E8BE5C82E87E0D82EC601B50102
:100250002DE133EF41E050E081D027EA31E440E086
:1002600050E05DD07B018C01C601B5012DE133EF7B
:1002700041E050E073D0CA01B9012CEE34EF4FEFEA
:100280005FEF4DD06E0D7F1D801F911F97FF04C043
:100290006150704080409048688379838A839B8353
:1002A0009B013F77C901CDB7DEB7EAE096C0B7DF63
:1002B00008958DE690E0B3DF0895A0E0B0E080936C
:1002C0006D0090936E00A0936F00B093700008953E
:1002D000AA1BBB1B51E107C0AA1FBB1FA617B7076C
:1002E00010F0A61BB70B881F991F5A95A9F7809588
:1002F0009095BC01CD01089597FB092E07260AD0E1
:1003000077FD04D0E5DF06D000201AF470956195E2
:100310007F4F0895F6F7909581959F4F0895629FBE
:10032000D001739FF001829FE00DF11D649FE00DED
:10033000F11D929FF00D839FF00D749FF00D659F4E
:10034000F00D9927729FB00DE11DF91F639FB00D4D
:10035000E11DF91FBD01CF011124089597FB092E5E
:1003600005260ED057FD04D04BD00AD0001C38F41F
:1003700050954095309521953F4F4F4F5F4F0895D1
:10038000F6F790958095709561957F4F8F4F9F4FB1
:1003900008952F923F924F925F926F927F928F9229
:1003A0009F92AF92BF92CF92DF92EF92FF920F9304
:1003B0001F93CF93DF93CDB7DEB7CA1BDB0B0FB60E
:1003C000F894DEBF0FBECDBF09942A8839884888CB
:1003D0005F846E847D848C849B84AA84B984C88461
:1003E000DF80EE80FD800C811B81AA81B981CE0F58
:1003F000D11D0FB6F894DEBF0FBECDBFED0108953D
:10040000A1E21A2EAA1BBB1BFD010DC0AA1FBB1F18
:10041000EE1FFF1FA217B307E407F50720F0A21B8A
:10042000B30BE40BF50B661F771F881F991F1A94F7
:1004300069F760957095809590959B01AC01BD0121
:08044000CF010895F894FFCFED
:10044800C0F9A4B0999282F88090FFFE01010000E3
:020458000000A2
:00000001FF
