:100000000C942A000C9447000C9447000C94470071
:100010000C9432010C9447000C9447000C94470058
:100020000C9447000C94FA000C9447000C94470081
:100030000C9447000C9447000C9447000C94470024
:100040000C9447000C9447000C9447000C94470014
:100050000C94470011241FBECFE5D4E0DEBFCDBF16
:1000600010E0A0E6B0E0E4EEF2E002C005900D92F0
:10007000A437B107D9F710E0A4E7B0E001C01D92A2
:10008000A937B107E1F70E94AD000C9470010C9400
:100090000000809177008F5F80937700883110F0A7
:1000A0001092770020917700822F6AE00E9464010D
:1000B000A0E6B0E0FD01E80FF11D8081EBE6F0E085
:1000C0008193822F0E946401A90FB11D8C918083BE
:1000D0000895809178008F5F809378008C3320F0B2
:1000E000109278000E94490020917800822F6AE0E7
:1000F0000E946401A0E6B0E0FD01E80FF11D8081DF
:10010000EEE6F0E08193822F0E946401A90FB11DF9
:100110008C9180830895809176008F5F8093760024
:100120008C3320F0109276000E94690020917600B6
:10013000822F6AE00E946401A0E6B0E0FD01E80FB2
:10014000F11D8081E1E7F0E08193822F0E9464013C
:10015000A90FB11D8C91808308950F931F93CF93A6
:10016000DF938FEF8ABB8BBB81BB82BB17BA88BB87
:1001700083E083BF85E082BF88E082BD84E085BDE7
:1001800014BC81E489BF8CE08093770010927600E4
:1001900010927800ABE6B0E0FD0186E081938BE53C
:1001A00080838FE313968C93139714968C931497F4
:1001B00016968C93169717968C937894C6E3D0E096
:1001C00000E117E22091730088818217E9F3C801EA
:1001D0000197F1F788812817B9F38881809373001C
:1001E00083FD03C00E944900EDCF86FDEBCF0E9446
:1001F0006900E8CF1F920F920FB60F9211242F9330
:100200004F935F938F939F93AF93BF93EF93FF931E
:1002100085E082BFABE3B0E01C9220917400422FD6
:1002200050E0FA01E559FF4F80818C9381E090E026
:10023000022E02C0880F991F0A94E2F7809582BBB4
:100240002F5F277020937400FF91EF91BF91AF91C2
:100250009F918F915F914F912F910F900FBE0F90B3
:100260001F9018951F920F920FB60F9211242F9383
:100270003F934F935F936F937F938F939F93AF932E
:10028000BF93EF93FF9380916D00803429F4109217
:10029000700010926D0007C080E48093700080931E
:1002A0006D000E948B00FF91EF91BF91AF919F91E4
:1002B0008F917F916F915F914F913F912F910F900F
:1002C0000FBE0F901F901895991B79E004C0991FDD
:1002D000961708F0961B881F7A95C9F780950895A0
:0402E000F894FFCFC0
:1002E4003F065B4F666D7D077F6F00000040000096
:0402F400400000FFC7
:00000001FF
