:100000000C942A000C943F000C943F000C943F0089
:100010000C943F000C943F000C943F000C943F0064
:100020000C943F000C943F000C943F000C943F0054
:100030000C943F000C943F000C943F000C943F0044
:100040000C943F000C943F000C943F000C943F0034
:100050000C943F0011241FBECFE5D4E0DEBFCDBF1E
:1000600010E0A0E6B0E0E6E9F1E002C005900D92F4
:10007000A237B107D9F70E94A8000C94C9000C94CC
:10008000000080EF87BB8FE088BB88EE93E001978C
:10009000F1F786B390E08F3009F091E0892F089551
:1000A00086B38B3081F08C3018F48730A1F40FC008
:1000B0008D3029F08E3079F4109270000FC081E0FD
:1000C000809370000BC082E08093700007C083E0D3
:1000D0008093700003C08FEF809370008FE087BB28
:1000E00080EF88BB88EE93E00197F1F786B3803B01
:1000F00081F0813B18F48037C1F411C0803D19F0C4
:10010000803E99F40895809170008C5F8093700018
:10011000089580917000885F8093700008958091A9
:100120007000845F8093700008958FEF809370005B
:10013000089520E048EE53E0E2E3F0E0CA010197C1
:10014000F1F78081805880832F5F2436B9F70895B6
:100150000F931F93CF93DF938FEF84BB15BA00E605
:1001600010E0C5E3D0E00E9441008823E1F30E9443
:10017000500080917000803138F4F801E80FF11DD3
:10018000808188830E9499000E9441008823E1F7C2
:06019000EACFF894FFCF56
:100196003F065B4F666D7D077F6F777C395E7971B1
:0201A600100047
:00000001FF
