:100000000C942A000C9434000C9434000C943400AA
:100010000C9434000C9434000C9434000C94340090
:100020000C9434000C9434000C9434000C94340080
:100030000C9434000C9434000C9434000C94340070
:100040000C9434000C9434000C9434000C94340060
:100050000C94340011241FBECFE5D4E0DEBFCDBF29
:100060000E9436000C9474000C940000CF93DF9330
:100070008FEF87BB88BB84BBE5E3F0E0808311BAD8
:1000800082BB8BEF8083E0E3F0E0C5E3D0E02EEFAE
:10009000A8E3B0E09DEF3BEF808181FD0AC0808145
:1000A00081FFFDCF28838C918E7F8C938C91826011
:1000B0008C93808184FD0AC0808184FFFDCF98836A
:1000C0008C9181608C938C918D7F8C93808188231F
:1000D0001CF380818823ECF738838C918E7F8C937E
:0C00E0008C918D7F8C93D8CFF894FFCFCB
:00000001FF
